:020000040800F2
:10000000000005205DD60008ADD60008ADD600087A
:10001000ADD60008ADD60008ADD60008000000003F
:10002000000000000000000000000000ADD6000845
:10003000ADD600080000000019030008AD770008E5
:10004000ADD60008ADD60008ADD60008ADD6000884
:10005000ADD60008ADD60008ADD60008ADD6000874
:100060009D150008B3150008ADD60008ADD60008F0
:10007000ADD60008ADD60008ADD60008ADD6000854
:10008000ADD60008ADD60008ADD60008ADD6000844
:10009000ADD60008ADD60008ADD60008452B000847
:1000A000ADD60008ADD60008ADD60008ADD6000824
:1000B0007D23000899230008ADD60008ADD60008BE
:1000C000ADD60008ADD60008ADD60008ADD6000804
:1000D000ADD60008ADD60008ADD60008ADD60008F4
:1000E000ADD60008ADD60008ADD60008ADD60008E4
:1000F000ADD60008ADD60008ADD60008ADD60008D4
:10010000ADD60008ADD60008AD230008ADD6000876
:10011000ADD60008ADD60008ADD60008ADD60008B3
:10012000F9170008ADD60008ADD60008ADD6000816
:10013000ADD60008ADD60008ADD60008ADD6000893
:10014000ADD60008ADD60008ADD60008ADD6000883
:10015000ADD60008ADD60008ADD60008ADD6000873
:10016000ADD60008ADD60008ADD60008ADD6000863
:10017000ADD60008ADD60008ADD6000800000000DE
:10018000ADD60008ADD60008ADD60008ADD6000843
:10019000ADD60008ADD60008ADD60008ADD6000833
:1001A000A9E20008ADD60008ADD60008ADD600081B
:1001B000ADD60008ADD60008ADD60008ADD6000813
:1001C000ADD60008ADD6000800000000ADD600088E
:1001D000ADD60008ADD60008ADD60008ADD60008F3
:1001E000ADD60008ADD60008ADD60008ADD60008E3
:0801F000ADD60008ADD60008F1
:1002000010B5054C237833B9044B13B10448AFF350
:1002100000800123237010BD080A002000000000A8
:10022000BCE401080C4B43B10C480D4910B5AFF3C9
:1002300000800C48036823B910BD0A48036833B92D
:100240007047094B002BF7D0BDE810401847064B0C
:10025000002BF5D0184700BF00000000BCE40108E7
:100260000C0A0020080A002000000000EFF30981BA
:1002700021B120ED108A3C490A6810607047B0EC4B
:10028000108A3A490A681060704772B64EF62250DA
:10029000CEF2000040F2FF01C0F200010170002028
:1002A00080F3098845F21000C2F20000016881F372
:1002B000088807F019FA44F6E430C2F2000044F668
:1002C000D831C2F200010A78027044F6C040C2F28E
:1002D000000044F6C841C2F200010A6802601068DA
:1002E00080F30988EFF3148040F0020080F3148853
:1002F000BFF36F8FBDE8F04F0FBCBDE8005006BCE8
:1003000062B608471A484FF080510160704718489C
:100310004FF080510160704772B6EFF3098020E919
:10032000F04F44F6C045C2F20005296808607446E3
:1003300007F0DAF944F6E430C2F2000044F6D831AE
:10034000C2F200010A78027044F6C841C2F200010C
:100350000A682A6044F0040E1068B0E8F04F80F399
:10036000098862B670470000C04C0020C84C0020CD
:1003700004ED00E072B6704762B67047EFF310808C
:1003800072B6704780F31088704730BF704720BF47
:100390007047B0FA80F0704790FAA0F0B0FA80F0A1
:1003A000704790FAA0F0704781F0004102E000BF72
:1003B00083F0004330B54FEA41044FEA430594EA25
:1003C000050F08BF90EA020F1FBF54EA000C55EA60
:1003D000020C7FEA645C7FEA655C00F0E2804FEA31
:1003E0005454D4EB5555B8BF6D420CDD2C4480EA13
:1003F000020281EA030382EA000083EA010180EA43
:10040000020281EA0303362D88BF30BD11F0004F90
:100410004FEA01314FF4801C4CEA113102D04042C6
:1004200061EB410113F0004F4FEA03334CEA133301
:1004300002D0524263EB430394EA050F00F0A78019
:10044000A4F10104D5F1200E0DDB02FA0EFC22FA14
:1004500005F2801841F1000103FA0EF2801843FA08
:1004600005F359410EE0A5F120050EF1200E012AF9
:1004700003FA0EFC28BF4CF0020C43FA05F3C01837
:1004800051EBE37101F0004507D54FF0000EDCF1B0
:10049000000C7EEB00006EEB0101B1F5801F1BD359
:1004A000B1F5001F0CD349085FEA30004FEA3C0C5D
:1004B00004F101044FEA445212F5800F80F09A8053
:1004C000BCF1004F08BF5FEA500C50F1000041EB57
:1004D000045141EA050130BD5FEA4C0C404141EB5B
:1004E000010111F4801FA4F10104E9D191F0000F82
:1004F00004BF01460020B1FA81F308BF2033A3F105
:100500000B03B3F120020CDA0C3208DD02F1140CFB
:10051000C2F10C0201FA0CF021FA02F10CE002F136
:100520001402D8BFC2F1200C01FA02F120FA0CFC2F
:10053000DCBF41EA0C019040E41AA2BF01EB045178
:10054000294330BD6FEA04041F3C1CDA0C340EDC76
:1005500004F11404C4F1200220FA04F001FA02F3B9
:1005600040EA030021FA04F345EA030130BDC4F177
:100570000C04C4F1200220FA02F001FA04F340EA6C
:100580000300294630BD21FA04F0294630BD94F01D
:10059000000F83F4801306BF81F480110134013D04
:1005A0004EE77FEA645C18BF7FEA655C29D094EA75
:1005B000050F08BF90EA020F05D054EA000C04BFF3
:1005C0001946104630BD91EA030F1EBF00210020DE
:1005D00030BD5FEA545C05D14000494128BF41F07D
:1005E000004130BD14F580043CBF01F5801130BDE1
:1005F00001F0004545F0FE4141F470014FF000006C
:1006000030BD7FEA645C1ABF194610467FEA655C1C
:100610001CBF0B46024650EA013406BF52EA0335BE
:1006200091EA030F41F4002130BD00BF90F0000FAC
:1006300004BF0021704730B54FF4806404F13204E8
:100640004FF000054FF0000150E700BF90F0000FA1
:1006500004BF0021704730B54FF4806404F13204C8
:1006600010F0004548BF40424FF000013EE700BF98
:1006700042004FEAE2014FEA31014FEA02701FBF28
:1006800012F07F4393F07F4F81F06051704792F0FA
:10069000000F14BF93F07F4F704730B54FF4607474
:1006A00001F0004521F0004120E700BF50EA0102BF
:1006B00008BF704730B54FF000050AE050EA01026C
:1006C00008BF704730B511F0004502D5404261EBDC
:1006D00041014FF4806404F132045FEA915C3FF41D
:1006E000DCAE4FF003025FEADC0C18BF03325FEAB6
:1006F000DC0C18BF033202EBDC02C2F1200300FA6B
:1007000003FC20FA02F001FA03FE40EA0E0021FA8F
:1007100002F11444C1E600BF4FEA410212F5001293
:1007200015D211D56FF47873B3EB625212D94FEA38
:10073000C12343F0004343EA505311F0004F23FA22
:1007400002F018BF404270474FF00000704750EA77
:10075000013005D111F0004008BF6FF00040704734
:100760004FF00000704700BF53B94AB9002908BFD5
:1007700000281CBF4FF0FF314FF0FF3000F07AB976
:10078000ADF1080C6DE904CE00F006F8DDF804E0E8
:10079000DDE9022304B070472DE9F0478C460D4691
:1007A0000446089E002B51D18A4217466DD9B2FAF1
:1007B00082FEBEF1000F0BD0CEF1200C01FA0EF537
:1007C00020FA0CFC02FA0EF74CEA050C00FA0EF4C3
:1007D0004FEA174A250CBCFBFAF81FFA87F90AFB07
:1007E00018CC45EA0C4508FB09F3AB420AD9ED19D0
:1007F00008F1FF3280F02381AB4240F22081A8F162
:1008000002083D44ED1AA4B2B5FBFAF00AFB1055FC
:1008100044EA054400FB09F9A14509D9E41900F1AE
:10082000FF3380F00A81A14540F2078102383C4441
:10083000A4EB090440EA08400021002E61D024FA0C
:100840000EF4002334607360BDE8F0878B4207D953
:10085000002E54D0002186E821000846BDE8F0872C
:10086000B3FA83F1002940F08E80AB4202D382427A
:1008700000F2FA80841A65EB03050120AC46002ED5
:100880003FD086E81010BDE8F08712B90127B7FB0A
:10089000F2F7B7FA87FEBEF1000F34D1EB1B3A0C2A
:1008A0001FFA87FC0121B3FBF2F8250C02FB183379
:1008B00045EA03450CFB08F3AB4207D9ED1908F1F3
:1008C000FF3002D2AB4200F2D1808046ED1AA3B2D3
:1008D000B5FBF2F002FB105543EA05440CFB00FCAB
:1008E000A44507D9E41900F1FF3302D2A44500F270
:1008F000B8801846A4EB0C0440EA08409DE7314656
:100900003046BDE8F087CEF1200405FA0EF307FA71
:100910000EF720FA04F83A0C25FA04F448EA030822
:10092000B4FBF2F14FEA184502FB11441FFA87FCB1
:1009300045EA044501FB0CF3AB4200FA0EF409D979
:10094000ED1901F1FF3080F08A80AB4240F28780E0
:1009500002393D44EB1A1FFA88F5B3FBF2F002FBB3
:10096000103345EA034500FB0CF3AB4207D9ED1900
:1009700000F1FF386FD2AB426DD902383D44EB1A1B
:1009800040EA01418FE7C1F1200722FA07F88B40C6
:1009900005FA01F448EA030320FA07FE4FEA134C74
:1009A000FD404EEA040EB5FBFCF94FEA1E440CFB79
:1009B00019551FFA83F844EA054509FB08F4AC42CF
:1009C00002FA01F200FA01FA08D9ED1809F1FF3034
:1009D00043D2AC4241D9A9F102091D442D1B1FFA93
:1009E0008EFEB5FBFCF00CFB10554EEA054400FBF7
:1009F00008F8A04507D9E41800F1FF3529D2A04531
:100A000027D902381C4440EA0940A4EB0804A0FBA3
:100A100002894C45C6464D4615D312D056B1BAEBA5
:100A20000E0364EB050404FA07F7CB401F43CC40E8
:100A3000376074600021BDE8F0871846F8E69046FC
:100A4000E0E6C245EAD2B8EB020E69EB03050138D5
:100A5000E4E72846D7E7404691E78146BEE70146EE
:100A600078E702383C4445E7084608E7A8F1020861
:100A70003D442BE7704700BF844641EA000313F072
:100A800003036DD1403A41D351F8043B40F8043B95
:100A900051F8043B40F8043B51F8043B40F8043B58
:100AA00051F8043B40F8043B51F8043B40F8043B48
:100AB00051F8043B40F8043B51F8043B40F8043B38
:100AC00051F8043B40F8043B51F8043B40F8043B28
:100AD00051F8043B40F8043B51F8043B40F8043B18
:100AE00051F8043B40F8043B51F8043B40F8043B08
:100AF00051F8043B40F8043B51F8043B40F8043BF8
:100B000051F8043B40F8043B403ABDD2303211D397
:100B100051F8043B40F8043B51F8043B40F8043BD7
:100B200051F8043B40F8043B51F8043B40F8043BC7
:100B3000103AEDD20C3205D351F8043B40F8043B97
:100B4000043AF9D2043208D0D2071CBF11F8013B95
:100B500000F8013B01D30B8803806046704700BF5B
:100B6000082A13D38B078DD010F003038AD0C3F16A
:100B70000403D21ADB071CBF11F8013B00F8013B4C
:100B800080D331F8023B20F8023B7BE7043AD9D30B
:100B9000013A11F8013B00F8013BF9D20B780370E0
:100BA0004B7843708B78837060467047000000007C
:100BB0000000000000000000000000000000000035
:100BC00090F800F06DE9024520F007016FF0000C8D
:100BD00010F0070491F820F040F049804FF0000435
:100BE0006FF00700D1E9002391F840F000F1080010
:100BF00082FA4CF2A4FA8CF283FA4CF3A2FA8CF348
:100C00004BBBD1E9022382FA4CF200F10800A4FAAE
:100C10008CF283FA4CF3A2FA8CF3E3B9D1E9042302
:100C200082FA4CF200F10800A4FA8CF283FA4CF339
:100C3000A2FA8CF37BB9D1E9062301F1200182FAF3
:100C40004CF200F10800A4FA8CF283FA4CF3A2FAF9
:100C50008CF3002BC6D0002A04BF04301A4612BA07
:100C6000B2FA82F2FDE8024500EBD2007047D1E90A
:100C7000002304F00305C4F100004FEAC50514F099
:100C8000040F91F840F00CFA05F562EA05021CBF6A
:100C900063EA050362464FF00004A9E70000000084
:100CA00001F0FF01102A2BDB10F0070F08D010F81D
:100CB000013B013A8B422DD010F0070F42B3F6D121
:100CC000F0B441EA012141EA014122F007047FF03A
:100CD00000070023F0E80256083C85EA010586EA91
:100CE000010685FA47F5A3FA87F586FA47F6A5FACD
:100CF00087F68EB9EED1F0BC01F0FF0102F00702D9
:100D000032B110F8013B013A83EA010313B1F8D183
:100D10000020704701387047002D06BF3546033864
:100D2000073815F0010F07D1013015F4807F02BF9D
:100D3000013015F4C03F0130F0BC0138704700BFEE
:100D400080B58CB00AAF06F0EBFF00F05FFD06F057
:100D500081FE06F0A7FD06F083FDFFF70BFBBB1D30
:100D6000184602F017F800F02BFB00F00DFB104BBB
:100D7000D3F8CC30BA1D08920322079200220692C3
:100D800000220592002204924FF400720392029313
:100D9000074B0193072300930023064A064907489F
:100DA00004F016FCBB1D184602F03EFAFEE700BF39
:100DB000F80A0020C10D0008D8E40108240A002028
:100DC00080B58AB002AF786000F0AEFB324A324B99
:100DD0001B6B43F4805313632F4B1B6B03F4805343
:100DE000FB60FB6810F02CF92C480FF0B3FC10F0FE
:100DF000EBF810F04DF82A4810F042F8294B1B6828
:100E00001A46284B1B68013B009300230021002059
:100E10000EF032FF234B5B681A46224B5B68013BA6
:100E200000930023002101200EF026FF07F11E038E
:100E3000184604F035F906F045FE642264211A488C
:100E40000FF0E6FD00F036F807F1100318460FF03A
:100E5000A7FAFA2100200FF0B9FD14480FF0ECFDBD
:100E60003B695A1C3A61042118460EF02CFE1048CA
:100E70000FF0E2FD7B69042118460EF024FE07F115
:100E80001E0301930023009300230222002100206F
:100E900005F066FFD8E700BF00380240CCE8CF007D
:100EA000640A0208C43B0020E8E40108F8E40108F1
:100EB000FCE4010880B58CB00AAF384BD3F8CC30D5
:100EC000BA1D089203220792002206920022059280
:100ED000002204924FF40072039202932F4B01936D
:100EE0000D23009300232E4A2E492F4804F070FB57
:100EF0002E4BD3F8CC30BA1D089203220792002261
:100F0000069200220592002204924FF4007203928E
:100F10000293264B01930E2300930023244A254974
:100F2000254804F055FB254BD3F8CC30BA1D089268
:100F300003220792002206920022059200220492C8
:100F40004FF40072039202931C4B01930F23009302
:100F500000231B4A1B491C4804F03AFB1B4BD3F8E7
:100F6000CC30BA1D0892032207920022069200227A
:100F70000592002204924FF4007203920293134BE5
:100F80000193102300930023114A1249124804F0E0
:100F90001FFB00BF0837BD4680BD00BF9420002066
:100FA000E10F000800E5010894280020F03200203D
:100FB0004D11000818E501085C1F00207029002071
:100FC0002112000830E50108183200205C170020CB
:100FD000B512000848E50108F03A002000000000C2
:100FE00080B584B000AF786010F02AF804224A4936
:100FF0004A4806F013FF07F10E0300220021642087
:1010000004F0B8FDFB89002BF5D176E0444B1B784A
:10101000032B5BD801A252F823F000BF2D1000086B
:101020003D1000084D1000085D1000083A4B5B8829
:101030001A463C493C4817F045FE48E0364B9B8831
:101040001A463A49384817F03DFE40E0324BDB88FB
:101050001A463749344817F035FE38E02E4B1B88C6
:101060001A46344B1A60334B1B6807EE903AB8EEC1
:10107000677ADFED316AC7EE267A9FED307A67EE48
:10108000877A2F4BC3ED007A2D4BD3ED007AB7EE64
:10109000E77A9FED1F6B37EE466BB0EE045B86EE92
:1010A000057BB3EE096B37EE067BF7EEC77B244B6F
:1010B000C3ED007A224BD3ED007AB7EEE77A53EC1A
:1010C000172B2049184817F0FDFD00E000BF144B16
:1010D0001B781A46642303FB02F31A464FF4C871C7
:1010E00011480FF095FC1049174817F0D7FD0C4B2D
:1010F0001B780133DAB20A4B1A70094B1B78032BA9
:1011000084D9074B00221A7075E700BFAFF3008047
:101110000000000000C0874068290020E43B002058
:10112000F812002060E50108FC1200206CE50108BF
:1011300078E501083C13002000F07F4500404E4553
:101140004013002084E501088CE5010890B587B0C4
:1011500002AF78600FF074FF07F10A0301930023D8
:101160000093294B00224FF47A71284803F024FBA6
:101170000246274B1A607B89002BEDD1244B1B685C
:10118000234A1268126822F040421A60204B1B6802
:101190001B684FEAE3741F4AC2E900341C4B1B680A
:1011A00004331B6819464FEAE1721A4BD3E9003445
:1011B0005B1844EB0204174AC2E90034144B1C6864
:1011C000144BD3E900014FF47A724FF00003FFF79C
:1011D000CBFA02460B46134623604FF4C8714FF416
:1011E000C8700FF0F3FB0A4B1B681B68FB600521FE
:1011F000F8680EF068FC044B1B881A46064907483D
:1012000017F04CFDA8E700BF441300203020002059
:10121000EC320020481300205013002094E5010810
:1012200080B586B002AF786007F10E03002200217E
:10123000642004F09FFCFB89002BF5D10EF07AFDB1
:1012400001F01CFC174B1B7F002BEDD0154B1B7FB7
:1012500003F01F03DAB2134B1A77134B1B780133D9
:10126000DAB2114B1A700F4B1B7F5B08DAB20D4BD1
:101270001A770C4B1B7F03F00103002BEDD10A4BB7
:101280001A78084B1A7707F10E0300934FF4007396
:1012900001220649064803F08DFB034B00221A7019
:1012A000C2E700BF000000209013002008000020CB
:1012B0006020002080B586B002AF786007F1080298
:1012C00007F10A03019300230093134600224FF411
:1012D0007A71274803F070FA0246264B1A607B8920
:1012E000002BEBD1234B1B6814331B781A463B8928
:1012F0002149224817F0E6FC2049214817F0CEFC8E
:10130000642200211D480FF083FB0023FB6026E0D0
:10131000184B1B6814331B781946164B1A68FB6868
:101320005B0013441B881846124B1A68FB68053390
:101330005B0013441B88009303460A4611490F487B
:1013400017F0C0FC4FF4C87200210C480FF060FB8E
:101350000A490B4817F0A2FCFB680133FB60054B00
:101360001B6814331B781A46FB689A42D0DCA5E749
:101370006020002090200020B0E501089413002098
:101380008CE50108C8E5010880B582B000AFBB1D3F
:1013900005220749074803F0BBF9BB1D0522064992
:1013A000064803F0B5F900BF0837BD4680BD00BF51
:1013B000E4E5010860200020FCE501083020002061
:1013C00080B582B000AF00237B60FEF7D7FF786066
:1013D00006F0C4FB0E4B0F4A1A600F4B0F4A1A60FF
:1013E0000F4B104A1A60104B104A1A60104B114AEA
:1013F0001A60114B114A1A60114B124A1A6006F01A
:10140000CDFB7868FEF7BEFF00BF0837BD4680BD44
:10141000DC4E002049140008FC4E00205714000840
:10142000E04B002065140008D44C0020791400081B
:10143000444A00208D140008E84E0020A114000842
:10144000D84C0020AF14000880B400AF00BFBD46E8
:101450005DF8047B704780B400AF00BFBD465DF807
:10146000047B704780B483B000AF786000BF0C3756
:10147000BD465DF8047B704780B483B000AF7860F0
:1014800000BF0C37BD465DF8047B704780B483B065
:1014900000AF786000BF0C37BD465DF8047B704735
:1014A00080B400AF00BFBD465DF8047B704780B4D8
:1014B00000AF00BFBD465DF8047B704780B586B0C5
:1014C00000AF164A154B1B6B43F080031363134B9D
:1014D0001B6B03F080033B603B680C237B60104B6D
:1014E000BB600123FB6003233B613B1D19460D4894
:1014F00007F0F6FC082007F0F3F801220521082088
:1015000007F0D2F8092007F0EBF8012205210920A5
:1015100007F0CAF800BF1837BD4680BD003802404A
:1015200000002110001C024080B500AF00F086FAD8
:1015300000F00AFA01F01CFB00F04CFC154B2E22C7
:101540001A61144B17225A61124BD2229A61114B25
:101550001622DA610F4B01229A600E4B0122DA60EB
:101560000C4B4FF448721A600A4B4FF4F0725A60F9
:10157000084800F08BFAFFF7A1FF074B1B6898475C
:1015800000F06EFD00F0A4FD00F0E2FD00F034F884
:1015900000BF80BDC43B00200000002080B500AF2C
:1015A00001F0DAFC042007F077FE01F0F1FC00BF47
:1015B00080BD80B500AF01F0CFFC082007F06CFEC5
:1015C00001F0E6FC00BF80BD80B582B000AF0346ED
:1015D000FB80FB88042B02D0082B04D007E00020FE
:1015E00000F004FA03E0002000F0D8F900BF00BFCB
:1015F0000837BD4680BD000080B586B000AF354AD3
:10160000344B5B6C43F480735364324B5B6C03F478
:1016100080737B607B68304B304A1A602E4B4FF4EE
:1016200040325A602C4B00229A602B4B01221A61E7
:10163000294B00229A61284B00221A62264B002275
:10164000DA60254B0422DA61234B01221A63224B14
:1016500000225A61204B4FF030629A621E4B4FF0CD
:101660008052DA621C4806F095FB1D4BBB600123DB
:10167000FB6007233B6107F108031946164806F093
:10168000B1FC0423BB600223FB6007233B6107F12D
:1016900008031946104806F0A5FC0523BB60032388
:1016A000FB6007233B6107F1080319460A4806F06F
:1016B00099FC0623BB600423FB6007233B6107F111
:1016C00008031946044806F08DFC00BF1837BD46D4
:1016D00080BD00BF00380240E43B002000200140F4
:1016E0001200001080B58AB000AF78607B681B687C
:1016F0002F4A934258D12F4A2E4B1B6B43F00103C4
:1017000013632C4B1B6B03F001033B613B69294ABC
:10171000284B1B6B43F480031363264B1B6B03F4B2
:101720008003FB60FB680323BB610023FB61022392
:101730003B6270237B6107F1140319461E4807F0D2
:10174000CFFB1E4B1E4A1A601C4B00225A601B4BDB
:1017500000229A60194B0022DA60184B4FF4806225
:101760001A61164B4FF400625A61144B4FF4005249
:101770009A61124B4FF48072DA61104B00221A62A8
:101780000E4B00225A620D4806F0B8FF382006F0D2
:10179000A7FF02220021382006F086FF094B074AE6
:1017A0009A63064B074A9A6300BF2837BD4680BD3F
:1017B0000020014000380240000002402C3C002084
:1017C00010640240E43B002080B582B000AF786036
:1017D0007B681B68054A934204D1054A00210548ED
:1017E00004F0CAFA00BF0837BD4680BD00200140A2
:1017F000D41300209428002080B500AF024807F0E1
:101800008BF800BF80BD00BF2C3C002080B584B0A9
:1018100000AF334A324B1B6C43F080531364304BA0
:101820001B6C03F08053BB60BB682E4A2D4B1B68BA
:1018300043F4404313602B4B1B6803F440437B602D
:101840007B68294B01221A60274B4FF480325A6083
:10185000254B0022DA60244B02229A61224B4FF47E
:101860008002DA61204B19221A621F4B4FF4D872A2
:101870005A621D4B02229A621B4B0922DA621A48F5
:1018800008F08AFB0346FB73FB7B002B00D0FEE7CE
:1018900008F032FB0346FB73FB7B002B00D0FEE716
:1018A000124B0F221A60114B02225A600F4B00227A
:1018B0009A600E4B4FF4A052DA600C4B4FF48052FA
:1018C0001A610721094808F01DFE0346FB73FB7BE4
:1018D000002B00D0FEE700BF1037BD4680BD00BF23
:1018E0000038024000700040D81300200C14002083
:1018F00080B584B000AF0346FB71FB79032B1BD886
:1019000001A252F823F000BF19190008211900089C
:10191000291900083119000808F0F2FEF8600EE0FD
:1019200008F06CFFF8600AE008F074FFF86006E069
:1019300008F092FFF86002E00123FB6000BFFB6843
:1019400018461037BD4680BD80B586B000AF114A3D
:10195000104B1B6B43F0020313630E4B1B6B03F026
:1019600002033B603B6803237B600123BB600123D0
:10197000FB6003233B613B1D1946074807F0B0FAA3
:10198000002000F00BF8012000F008F800BF183725
:10199000BD4680BD003802400004024080B582B0E0
:1019A00000AF0346FB71FB79002B02D0012B06D060
:1019B0000BE0012201210C4807F054FC10E0012249
:1019C0000221094807F04EFC0AE0012201210648E5
:1019D00007F048FC01220221034807F043FC00BF46
:1019E00000BF0837BD4680BD0004024080B582B00C
:1019F00000AF0346FB71FB79002B02D0012B06D010
:101A00000BE0002201210C4807F02CFC10E0002222
:101A10000221094807F026FC0AE0002201210648BD
:101A200007F020FC00220221034807F01BFC00BF46
:101A300000BF0837BD4680BD0004024080B582B0BB
:101A400000AF0120FFF754FF7860786805F0CAFE08
:101A500000BF0837BD4680BD80B582B000AF78605A
:101A6000002006F016FE002318460837BD4680BD4C
:101A700080B582B000AFBB1C184605F073FA7860E1
:101A80007B6818460837BD4680BD000080B5B6B0FB
:101A900000AF78607A4A7A4B5B6C43F080635364A2
:101AA000774B5B6C03F08063FB60FB6808237B640F
:101AB0004FF4C673BB6503233B664FF480333B672B
:101AC00007F14403184608F0E9FE0346C7F8D4308E
:101AD000D7F8D430002B40F0C5806A4B6A4A1A60B0
:101AE000684B00225A60674B00229A60654B0022C7
:101AF000DA60644B00221A617B689B68013B614A93
:101B000053617B68DB68013B5E4A93617B689A683E
:101B10007B681B691344013B5A4AD3617B68DA68CE
:101B20007B685B691344013B564A13627B689A6881
:101B30007B681B691A447B681B681344013B514A4C
:101B400053627B68DA687B685B691A447B685B6810
:101B50001344013B4B4A93627B689A687B681B691C
:101B60001A447B681B681A447B689B691344013BD9
:101B7000444AD3627B68DA687B685B691A447B6895
:101B80005B681A447B68DB691344013B3D4A13637D
:101B90003C4B002283F836203A4B002283F8352054
:101BA000384B002283F83420364807F08DFB03467B
:101BB000C7F8D430D7F8D430002B55D100233B617F
:101BC0000023BB617B681B687B617B685B68FB6192
:101BD00002233B62FF237B620023BB624FF4C0639E
:101BE000FB624FF4E0633B634FF040437B637B68F1
:101BF0001B68BB637B685B68FB63002387F842302C
:101C0000002387F84130002387F8403007F11003A4
:101C1000002219461B4807F0F3FC0346C7F8D430EE
:101C2000D7F8D430002B21D1002300220021154801
:101C300007F0D7FE0346C7F8D430D7F8D430002BCE
:101C400016D17B6819687B685A6800230D4807F035
:101C50007CFE0346C7F8D430012220210B4807F050
:101C600001FB06E000BF04E000BF02E000BF00E0AF
:101C700000BFD7F8D4301846D837BD4680BD00BF66
:101C8000003802407031002000680140000402402A
:101C900080B58EB000AF7860484A484B5B6C43F02B
:101CA00080635364454B5B6C03F080633B623B6A2B
:101CB000424A424B1B6B43F4000313633F4B1B6BC5
:101CC00003F40003FB61FB693C4A3C4B1B6B43F094
:101CD00002031363394B1B6B03F00203BB61BB6947
:101CE000364A364B1B6B43F020031363334B1B6B9D
:101CF00003F020037B617B69304A304B1B6B43F060
:101D0000400313632D4B1B6B03F040033B613B69A6
:101D10002A4A2A4B1B6B43F080031363274B1B6B30
:101D200003F08003FB60FB68244A244B1B6B43F4E5
:101D300080731363214B1B6B03F48073BB60BB6820
:101D400020237B620123BB620123FB6203233B63ED
:101D500007F1240319461A4807F0C2F84FF48063CC
:101D60007B620223BB620023FB6203233B630E23DF
:101D70007B6307F124031946124807F0B1F84FF4CA
:101D80000C637B6207F1240319460F4807F0A8F89B
:101D90004FF47E437B6207F1240319460B4807F09A
:101DA0009FF840F2F7637B6207F124031946084865
:101DB00007F096F800BF3837BD4680BD00380240B6
:101DC000000402400014024000180240001C0240BF
:101DD0000020024080B500AF214B224A1A60204B00
:101DE00000225A601E4B01229A601D4B0822DA60C5
:101DF0001B4B10221A611A4B40225A61184B4FF4A8
:101E0000C0729A61164B0022DA61154B4FF40062E2
:101E10001A62134B4FF480525A62114B4FF4005226
:101E20009A62114B02221A600F4B08225A600E4B25
:101E300006229A600C4B0622DA600B4B02221A61D2
:101E4000094B02225A61084B02229A610649044852
:101E500009F06AFC024800F009F800BF80BD00BF2D
:101E60008C3C0020400100A0C03C002080B584B024
:101E700000AF78600023FB600023012201210020D5
:101E800000F0B6F84FF47A7000F00BFB002301224B
:101E90000221002000F0ACF80023082203210020DA
:101EA00000F0A6F84FF40C73FB60FB689BB20122B4
:101EB0000421002000F09CF840F23731034809F07B
:101EC00092FC00BF1037BD4680BD00BF8C3C002097
:101ED00080B58EB000AF78603F4A3F4B9B6B43F0BC
:101EE000010393633C4B9B6B03F001033B623B6A32
:101EF000394A394B1B6B43F004031363364B1B6B9E
:101F000003F00403FB61FB69334A334B1B6B43F063
:101F100008031363304B1B6B03F00803BB61BB6901
:101F20002D4A2D4B1B6B43F0100313632A4B1B6B85
:101F300003F010037B617B69274A274B1B6B43F03F
:101F400020031363244B1B6B03F020033B613B69AD
:101F5000214A214B1B6B43F0400313631E4B1B6B49
:101F600003F04003FB60FB680D237B620223BB622E
:101F70000123FB6203233B630C237B6307F12403F0
:101F80001946164806F0ACFF4CF203737B6207F16A
:101F900024031946124806F0A3FF4FF683737B62B1
:101FA00007F1240319460F4806F09AFF4FF63F0346
:101FB0007B6207F1240319460B4806F091FF48F2B3
:101FC00037137B6207F124031946084806F088FF9F
:101FD00000BF3837BD4680BD0038024000080240CF
:101FE000000C0240001002400014024000180240A1
:101FF00090B589B000AF0446084611461A462346FC
:10200000FB710346BB710B467B7113467B8000233B
:10201000FB61FB79002B02D11023FB6104E0FB790B
:10202000012B01D10823FB61BB79FB60FB693B619C
:102030007B797B617B88BB6107F10C034FF4805295
:102040001946064809F0A4FB0346002B01D10023E2
:1020500000E0012318462437BD4690BD8C3C00208B
:1020600080B582B000AF174A164B1B6C43F00103DA
:102070001364144B1B6C03F001037B607B68124BF1
:102080004FF080421A60104B40F2CF72DA600E4B74
:102090004DF2EF225A600C4B00229A600A4809F078
:1020A000C2FB0A4B20221A60084B80229A60074923
:1020B00005480AF0EFFA044809F0E0FB00BF0837D2
:1020C000BD4680BD003802408C3D0020F83C002019
:1020D00080B582B000AF1A4A194B1B6C43F0020363
:1020E0001364174B1B6C03F002037B607B68154B7A
:1020F000154A1A60134B40F2CF72DA60114B4DF261
:10210000EF225A600F4B00229A600E4809F0D1FB73
:102110000E4B60221A600D4B40F2E7325A600B4BB7
:1021200000229A600C22094906480AF01BFB0C2188
:10213000044809F0E9FB00BF0837BD4680BD00BF79
:10214000003802404C3D002000040040DC3C0020F0
:1021500080B582B000AF1C4A1B4B1B6C43F00803D8
:102160001364194B1B6C03F008037B607B68174BEF
:10217000174A1A60154B6B225A60144B00229A6062
:10218000124B4FF0FF32DA60104B00221A610F48F9
:1021900009F0EEFB0F4B00221A600E4B00229A60F2
:1021A0000C4B0022DA600B4B01225A6000220949D5
:1021B000064809F088FD0021044809F005FC00BF2D
:1021C0000837BD4680BD00BF003802400C3D0020EE
:1021D000000C00402014002080B588B000AF78606B
:1021E0007B681B68114A93421BD1114A104B1B6B31
:1021F00043F0020313630E4B1B6B03F00203BB603F
:10220000BB680223FB6002233B6101237B61032344
:10221000BB610223FB6107F10C031946054806F078
:102220005FFE00BF2037BD4680BD00BF00040040F8
:10223000003802400004024080B584B000AF7860EE
:102240007B681B68B3F1804F14D1194A184B1B6C83
:1022500043F001031364164B1B6C03F00103FB6096
:10226000FB681C2006F03CFA022200211C2006F02C
:102270001BFA18E07B681B680E4A934213D10C4A84
:102280000B4B1B6C43F002031364094B1B6C03F0F4
:102290000203BB60BB681D2006F022FA0322002166
:1022A0001D2006F001FA00BF1037BD4680BD00BFFB
:1022B000003802400004004080B58AB000AF78606A
:1022C0007B681B681B4A93422FD11B4A1A4B1B6C1D
:1022D00043F008031364184B1B6C03F008033B61C5
:1022E0003B69322006F0FCF902220021322006F080
:1022F000DBF9114A104B1B6B43F0010313630E4BC8
:102300001B6B03F00103FB60FB6801237B6102236D
:10231000BB610223FB6103233B6202237B6207F163
:1023200014031946054806F0DBFD00BF2837BD46FB
:1023300080BD00BF000C0040003802400000024099
:1023400080B483B000AF78607B681B68094A934211
:102350000AD1094B1B6803F04003002B04D0064B45
:102360001B680133044A136000BF0C37BD465DF89B
:10237000047B7047000C0040043D002080B500AF96
:1023800000F0EAFD034809F07FFB00F001FE00BF0A
:1023900080BD00BF8C3D002080B500AF024809F031
:1023A00073FB00BF80BD00BF4C3D002080B500AF77
:1023B00000F0D2FD034809F067FB00F0E9FD00BF23
:1023C00080BD00BF0C3D002080B584B002AF7860B6
:1023D0007B681B68294A93424BD1294B1B689B178A
:1023E000002B02D0012B2CD043E0254B4FF0804234
:1023F0001A60234B00225A607B681B681A6A41F2FC
:1024000011131340002B0FD17B681B681A6A40F22E
:1024100044431340002B07D17B681B687A6812681D
:10242000126822F001021A607B681B6800225A625F
:102430007B681B687A681268126842F001021A60B1
:1024400017E00F4B1B6843F000430D4A1360002157
:10245000786809F0D5FC03461A46094B5A60094BC7
:1024600000934FF4007301220549074802F0A2FAD5
:1024700000BF00BF0837BD4680BD00BF000C004054
:10248000043D0020301400203020002080B582B0B0
:1024900000AF7860786805F067FC00BF0837BD467C
:1024A00080BD80B485B000AF78600023BB600BE0D6
:1024B0000023FB6002E0FB680133FB60FB68FE2B3E
:1024C000F9D9BB680133BB60BA687B689A42EFD325
:1024D00000BF1437BD465DF8047B704780B500AF80
:1024E0000220FFF7DEFF00BF80BD000080B588B08E
:1024F00000AF194A184B1B6B43F080031363164B54
:102500001B6B03F08003BB60BB68134A124B1B6B51
:1025100043F480731363104B1B6B03F480737B6075
:102520007B684023FB6001233B6101237B61032324
:10253000BB6107F10C031946084806F0D1FC0823DB
:10254000FB6007F10C031946054806F0C9FC00BF03
:102550002037BD4680BD00BF00380240001C02404D
:102560000020024080B500AF134A134B1B6823F0D4
:10257000C0031360104A104B1B6843F04003136004
:10258000012208210C4806F06DFE012240210B4873
:1025900006F068FE1E20FFF784FF0022082106488F
:1025A00006F060FEFFF79AFF00224021034806F084
:1025B00059FE00BF80BD00BF00200240001C024049
:1025C00080B582B000AF0023FB711A4A194B1B681B
:1025D00023F0C0031360174A164B1B6813600122D7
:1025E0000821144806F03EFE01224021124806F060
:1025F00039FEFFF773FF0BE0FB790133FB71FB79C9
:10260000FA2B03D900F076F801230EE0FFF766FFFE
:102610000821084806F00EFE0346002BECD10022EC
:102620004021054806F01EFE002318460837BD4627
:1026300080BD00BF00200240001C024080B500AFFA
:1026400000224021124806F00DFE124A114B1B6871
:1026500023F0C00313600F4A0E4B1B6843F0400386
:102660001360FFF73BFF002208210A4806F0FAFD3D
:10267000FFF734FF01224021054806F0F3FDFFF784
:102680002DFF00224021024806F0ECFD00BF80BD76
:10269000001C02400020024080B500AF0022402113
:1026A000124806F0DFFD124A114B1B6823F0C003ED
:1026B00013600F4A0E4B1B6843F040031360FFF793
:1026C0000DFF012208210A4806F0CCFDFFF706FFA6
:1026D00001224021054806F0C5FDFFF7FFFE00225C
:1026E0004021024806F0BEFD00BF80BD001C024034
:1026F0000020024080B500AF104A104B1B6823F049
:10270000C00313600D4A0D4B1B6843F04003136078
:10271000012240210A4806F0A5FD1E20FFF7C1FE58
:1027200000220821054806F09DFDFFF7D7FE012293
:102730000821024806F096FD00BF80BD002002403F
:10274000001C024080B584B000AF0346FB7100233B
:10275000BB731E4A1D4B1B6823F0C00313601B4A4A
:102760001A4B1B6813601E20FFF79BFE0023FB73B0
:102770001BE000224021164806F074FDFFF7AEFE74
:1027800001224021124806F06DFDBB7B5B00BB734C
:1027900008210E4806F04EFD0346002B02D0BB7BFD
:1027A0000133BB73FB7B0133FB73FB7B072BE0D94E
:1027B000FB79002B02D1FFF76FFF01E0FFF73EFF2F
:1027C000BB7B18461037BD4680BD00BF00200240CD
:1027D000001C024080B584B000AF0346FB71204A64
:1027E0001F4B1B6823F0C00313601D4A1C4B1B6862
:1027F00043F040031360002240211A4806F032FDE6
:10280000FFF76CFE0023FB7322E097F90730002BE3
:1028100005DA01220821124806F024FD04E0002216
:1028200008210F4806F01EFDFB795B00FB710122B9
:1028300040210C4806F016FDFFF750FE0022402113
:10284000084806F00FFDFFF749FEFB7B0133FB73E1
:10285000FB7B072BD9D900BF1037BD4680BD00BF19
:1028600000200240001C024080B584B000AF034647
:102870003960FB8013467B710023BB73FFF772FE48
:102880007020FFF7A7FFFFF79BFEFB88DBB218461F
:10289000FFF7A0FFFFF794FE0023FB7310E0FB7B24
:1028A0003A6813441B781846FFF794FFFFF788FE39
:1028B0000346BB73BB7B002B07D1FB7B0133FB7350
:1028C000FA7B7B799A42EAD300E000BFFFF712FF60
:1028D000BB7B18461037BD4680BD90B585B000AFB4
:1028E00003463960FB8013467B71FFF73BFE702087
:1028F000FFF770FFFFF764FEFB88DBB21846FFF7B7
:1029000069FFFFF75DFEFFF72DFE7120FFF762FF05
:10291000FFF756FE0023FB7312E0FB7B3A68D418E6
:10292000FA7B7B79013B9A4214BF01230023DBB27F
:102930001846FFF707FF03462370FB7B0133FB7349
:10294000FA7B7B799A42E8D3FFF7D4FE00BF1437B5
:10295000BD4690BD80B588B000AF444A434B1B6B69
:1029600043F080031363414B1B6B03F080037B60D8
:102970007B683E4A3D4B1B6B43F4807313633B4BB8
:102980001B6B03F480733B603B688023BB60384B58
:10299000FB6001233B6103237B6107F108031946B8
:1029A000344806F09DFA172005F09AFE0022052112
:1029B000172005F079FE4FF48073BB600123FB60A4
:1029C00007F1080319462C4806F08AFAFFF78EFD36
:1029D00000224FF48071284806F044FC1420FFF7D1
:1029E00055FD01224FF48071234806F03BFC322054
:1029F000FFF74CFD00233B7707F11C03012219462A
:102A00000020FFF731FF07F11C0301221946A42023
:102A1000FFF72AFF16233B7707F11C030122194613
:102A20008020FFF721FF0C233B7707F11C030122D5
:102A300019468820FFF718FF07F11C0302221946E8
:102A4000A120FFF74AFF3B7F302B02D17B7F032B76
:102A500005D07B7F012B02D07B7F022B01D100238D
:102A600000E0012318462037BD4680BD00380240F3
:102A700000002110001C02400020024080B582B0FE
:102A800000AF7B1D012219460220FFF726FF7B794C
:102A900003F00F03002B4CD07B7903F00F03052BC1
:102AA00047DC7B7903F00F03FF2202FA03F3BB71CB
:102AB00097F90630DB435BB263F03F035BB2DAB2F7
:102AC0001E4B1A777B7903F00F03BB710023FB7158
:102AD0002BE0FB791A4A32F81330394604221846A3
:102AE000FFF7FBFEFB793A78120292B202F47062B1
:102AF00091B27A7892B20A4491B2104A08335B00DC
:102B000013440A465A80FB79BA78120292B202F450
:102B1000706291B2FA7892B20A4491B2074A0433D1
:102B200022F81310FB790133FB71FA79BB799A42D1
:102B3000CFD3002318460837BD4680BD00000020D3
:102B40003CE7010880B500AF00F006FA054A002115
:102B5000054803F011F9054B80225A6100F018FA7C
:102B600000BF80BD3214002018320020003C01401C
:102B700080B500AF124B134A1A60114B4FF4165236
:102B80005A600F4B00229A600D4B0022DA600C4B0A
:102B900000221A610A4B0C225A61094B00229A61E9
:102BA000074809F0A9FF03461A46074B1A70064B5F
:102BB0001B780133DAB2044B1A7000BF80BD00BF2E
:102BC000CC3D0020004400403414002080B58CB07F
:102BD00000AF78607B681B68364A934232D1364A30
:102BE000354B1B6C43F400331364334B1B6C03F401
:102BF0000033BB61BB69304A2F4B1B6B43F00103B1
:102C000013632D4B1B6B03F001037B617B69042372
:102C1000FB6102233B6200237B620023BB6207232C
:102C2000FB6207F11C031946244806F059F90823F2
:102C3000FB610723FB6207F11C0319461F4806F0DE
:102C40004FF932E07B681B681D4A93422DD11A4A26
:102C5000194B5B6C43F010035364174B5B6C03F030
:102C600010033B613B69144A134B1B6B43F0010398
:102C70001363114B1B6B03F00103FB60FB684FF404
:102C80008063FB6102233B6200237B620023BB6203
:102C90000723FB6207F11C031946084806F020F9D8
:102CA0004FF40073FB610723FB6200BF3037BD4662
:102CB00080BD00BF004400400038024000000240D8
:102CC0000010014080B584B000AFF860B9607A6050
:102CD0007B689AB24FF6FF73B968044809F05DFF4C
:102CE0007B6818461037BD4680BD00BFCC3D002034
:102CF00080B582B000AF154B1B687B607B6803F02A
:102D00000103002B07D07B6803F00203002B02D0E5
:102D10000F4B104A1A600120FEF7EAFD38600E4A98
:102D20000D4B1B6843F0807313600C4B00221A603C
:102D30000B4A0B4B1B6843F001031360386804F027
:102D4000B1FE00BF0837BD4680BD00BFB41F00E024
:102D5000B01F00E055CEACC5FCED00E0041000E073
:102D6000001000E080B483B000AF054B1B687B60AF
:102D70007B6818460C37BD465DF8047B704700BF82
:102D8000041000E080B400AF00BFBD465DF8047BD6
:102D90007047000080B584B000AF786004F0A6FAF8
:102DA000534B00221A70534B00221A70524B0022D0
:102DB0001A70524B00221A60514B00221A60514B7C
:102DC00000221A70504B00221A70504B1B68FB6097
:102DD000FB68002B0FD04E4B1B68BB6008E0BB6844
:102DE000013BBB60FB6800221A60FB680433FB6098
:102DF000BB68002BF3D1474B00221A60464B0022E0
:102E00001A60464B00221A60454B00221A60454B5F
:102E100000221A60444B00221A60444B00221A60C0
:102E2000434B00221A7001F0F7FB00F0BDFC414B50
:102E300000221A60404B00221A80786800F004FFDC
:102E40007B681B88002B43D1786800F015FF7B68F6
:102E50001B88002B3ED1394B00221A60384B0022D0
:102E60001A80384B00221A60374B00221A80374BE9
:102E700000221A60364B00221A80786803F0E8F9C5
:102E80007B681B88002B27D1786800F053FA7B6899
:102E90001B88002B22D1786803F0C0FB7B681B885D
:102EA000002B1DD1786802F029FB7B681B88002B62
:102EB00018D1786804F0A6F87B681B88002B13D122
:102EC00000F0B0FDFFF75EFF224B01221A700CE00C
:102ED00000BF0AE000BF08E000BF06E000BF04E05A
:102EE00000BF02E000BF00E000BF1037BD4680BD5C
:102EF000E44C0020514A0020404A0020C04C0020F1
:102F0000C84C0020E44B0020D84B002054E70108B7
:102F100058E70108E04B0020D44C0020444A002030
:102F2000DC4E0020FC4E0020E84E0020D84C002053
:102F3000504A0020044F0020004F0020F84F00208E
:102F40000C4F00209C4E0020C44C0020DC4B002085
:102F5000A04E0020D44B002080B400AF0A4B1B7859
:102F6000012B0AD1094B1B78F92B08D8074B1B788A
:102F70000133DAB2054B1A7002E000BF00E000BF77
:102F8000BD465DF8047B7047514A0020E44C0020A8
:102F900080B582B000AF00237B602B4B1B78012BE8
:102FA0004ED1FDF7EBF97860284B1B78002B03D14D
:102FB0007868FDF7E7F944E0244B1B78013BDAB26F
:102FC000224B1A70214B1B78002B03D07868FDF739
:102FD000D9F936E01E4B1B78002B03D07868FDF73B
:102FE000D1F92EE001F032FB03461A46194B1A7054
:102FF000184B1B781946184A0B465B000B449B0084
:1030000013441B68154A1360144B1A68144B1B6851
:103010009A4203D17868FDF7B5F912E00F4B1B68AF
:10302000D3F8A0200132C3F8A0200E4B1B68013357
:103030000C4A1360FDF76BF97868FDF7A3F900E01F
:1030400000BF0837BD4680BD514A0020E44C002037
:10305000404A0020D84B0020544A0020C84C002091
:10306000C04C0020E04C002080B582B000AF0023AF
:103070007B60204B1B78002B36D11F4B1B78002B1D
:1030800034D1FDF77BF9786001F0E0FA03461A4687
:103090001A4B1A70194B1B781946194A0B465B00DC
:1030A0000B449B0013441B68164A1360154B1A68A7
:1030B000154B1B689A4203D17868FDF763F916E057
:1030C000104B1B68D3F8A0200132C3F8A0200F4B8F
:1030D0001B6801330D4A1360FDF714F97868FDF79A
:1030E00051F9BFF36F8F02E000BF00E000BF083767
:1030F000BD4680BDE44C0020404A0020D84B002053
:10310000544A0020C84C0020C04C0020E04C002055
:1031100080B584B000AF78600023FB60184B1B784B
:10312000002B04D07B6846F662521A8024E0154BCF
:103130001B78012B04D07B6845F689621A801BE05E
:10314000114B1B78F92B04D97B6845F209221A80B0
:1031500012E0FDF713F9F86004F000FD0A4B1B784C
:103160000133DAB2084B1A7004F018FDF868FDF765
:1031700009F97B6800221A801037BD4680BD00BF68
:10318000E44C0020514A0020404A002080B584B021
:1031900000AF78600023FB60204B1B78002B04D02D
:1031A0007B6846F665521A8034E01D4B1B78012B74
:1031B00004D07B6845F689621A802BE0194B1B7896
:1031C000002B04D17B6846F664521A8022E0FDF79A
:1031D000D5F8F86004F0C2FC124B1B78013BDAB260
:1031E000104B1A700F4B1B78002B09D004F0D6FC43
:1031F000F868FDF7C7F87B6846F663521A8009E065
:1032000004F0CCFCF868FDF7BDF8FFF72DFF7B68F4
:1032100000221A801037BD4680BD00BFE44C00205C
:10322000514A0020404A002080B584B000AF786049
:10323000274B1B78012B04D07B6845F68B621A80E4
:1032400043E00023FB81FB890133FB81FB890133D0
:10325000FB81FB890133FB81FB890133FB811D4B22
:103260001B88FA899A4204D37B6845F68C621A80DF
:103270002BE0194B1B78002B23D101F0E7F9034613
:103280001A46164B1A70154B1A78154B1A70134BB9
:103290001B781946134A0B465B000B449B001344F2
:1032A0001B68114A1360104B1B68104A13600A4BCD
:1032B00001221A70FCF7E9FF7B6843F699221A8015
:1032C00003E07B6845F68A621A801037BD4680BDF0
:1032D000D44B0020E64C0020514A0020D84B00205F
:1032E000E44B0020544A0020C84C0020C04C002071
:1032F00080B584B000AF78600023FB60FDF73EF836
:10330000F86004F02BFC094B1B680133074A13607B
:10331000074B1B680133064A136004F03FFCF86852
:10332000FDF730F803F0D4FFE8E700BFF44E0020CB
:103330004C4A002080B58CB00AAF7860104B002258
:103340001A60104B1B68104A1268104909687868A7
:1033500008900B2007900020069000200590002088
:1033600004900391029201931F2300930023084AC3
:103370000849094802F02CF900BF0837BD4680BD56
:10338000F44E002048E701084CE7010850E7010827
:10339000F13200081CE60108C84D002080B586B057
:1033A00000AFF8600B467A60FB72174B1B68FA7A25
:1033B00083F83C20144B1B68002283F83D20124BFD
:1033C0001B687968184600F00DFBFB68002B0DD0D8
:1033D000FB6808337B610C4B1B68FA689A630A4BE5
:1033E0001B681946786900F0A3F803E0064B1B68D8
:1033F00000229A63044B1B681946F86800F006F82F
:1034000000BF1837BD4680BDC04C002080B485B0D9
:1034100000AF786039607B68002B0FD07B685A68FA
:103420003B68C3F8D0207B680833FB60FB681B68EF
:10343000BB60BB689A687B68DA6116E03B6893F80A
:103440003C30022B02D0072B05D009E03B680A4A2A
:10345000C3F8D02009E03B68084AC3F8D02004E054
:103460003B68074AC3F8D02000BF00BF1437BD46F1
:103470005DF8047B704700BF30E6010838E60108BC
:1034800044E6010880B485B000AF786039603B68DD
:103490000E4AC3F8D0207B68002B10D07B6808331D
:1034A000FB60FB681B68BB60BB68002B04D0BB687B
:1034B0009A687B68DA6102E07B68044ADA6100BFDF
:1034C0001437BD465DF8047B704700BF44E6010831
:1034D00080B584B000AF78607B689B6BFB60FB6855
:1034E0000833BB60BB681B681B6B002B09D0786876
:1034F00000F08AF87B68FA689A637968B86800F027
:1035000017F800BF1037BD4680BD80B483B000AF50
:1035100078607B6800221A607B6800225A607B68B2
:1035200000221A8100BF0C37BD465DF8047B70474E
:1035300080B485B000AF786039603B6893F83F3065
:10354000FB727B681B68002B0FD17B6801221A81FC
:103550003B6800221A633B6800225A637B683A6822
:103560001A607B683A685A6048E07B681B890133BF
:103570009AB27B681A817B681B68FB6008E0FB6875
:1035800093F83F30FA7A9A4206D3FB681B6BFB60D4
:10359000FB68002BF3D100E000BFFB68002B0ED1CD
:1035A0003B6800221A637B685A683B685A633B6831
:1035B0005B6B3A681A637B683A685A601EE0FB6886
:1035C0005B6B002B0CD13B68FA681A633B680022E6
:1035D0005A63FB683A685A637B683A681A600DE080
:1035E0003B68FA681A63FB685A6B3B685A633B682E
:1035F0005B6B3A681A63FB683A685A6300BF14371A
:10360000BD465DF8047B704780B487B000AF78603A
:103610007B689B6B002B46D07B689B6B08337B6180
:103620007B691B681B6B002B06D17B6900221A602B
:103630007B6900225A6027E07B685B6B002B09D115
:103640007B681B6B3B613B6900225A637B693A696B
:103650001A6019E07B681B6B002B09D17B685B6BE0
:10366000FB60FB6800221A637B69FA685A600BE012
:103670007B685B6BFB607B681B6B3B61FB683A693B
:103680001A633B69FA685A637B691B89013B9AB2EA
:103690007B691A817B6800221A637B6800225A6367
:1036A0007B6800229A6300BF1C37BD465DF8047B2F
:1036B0007047000080B584B000AFF860B9607A60F0
:1036C0007B80BB6893F83E30072B68D801A252F884
:1036D00023F000BF9F3700089F370008F536000829
:1036E000F53600089F3700089F3700084D3700085F
:1036F0004D370008BB687A681A66BB687A88A3F8F9
:103700006420BB68BA691A65FB68002B02D0B868F0
:10371000FFF77AFFB968F868FFF7B4FEBB6893F863
:103720003E30032B02D1B86803F0F8F8B86800F017
:1037300061F8BB68002283F83E20BB68002283F852
:103740003D20BB68002283F83C2029E0BB687A68F2
:103750001A66BB687A88A3F86420BB68BA691A65E0
:10376000FB68002B02D0B868FFF74EFFB968F86815
:10377000FFF788FEBB6893F83E30072B02D1B8688C
:1037800003F0CCF8BB68042283F83E20BB6800221B
:1037900083F83D20BB68002283F83C2000E000BF96
:1037A00000BF1037BD4680BD80B483B000AF00239A
:1037B0007B6013E07A6813465B0013449B000C4A5D
:1037C00013443B603B6800221A813B6800221A6068
:1037D0003B6800225A607B6801337B607B681F2B4B
:1037E000E8D900BF0C37BD465DF8047B704700BFC9
:1037F000544A002080B582B000AF78607B6893F8AF
:103800003F30184600F03AFF7B6893F83F20074BA3
:103810001B789A4203D1786800F04CF802E078688F
:1038200000F006F800BF0837BD4680BDE44B00201D
:1038300080B485B000AF78607B6893F83F301A465B
:1038400013465B0013449B00194A1344FB60FB685A
:103850001B68002B0FD1FB6801221A817B680022B4
:103860001A617B6800225A61FB687A681A60FB68FB
:103870007A685A6015E0FB681B8901339AB2FB68CD
:103880001A81FB681A687B681A617B6800225A619A
:10389000FB681B68BB60BB687A685A61FB687A6822
:1038A0001A6000BF1437BD465DF8047B704700BF47
:1038B000544A002080B485B000AF78607B6893F8EC
:1038C0003F301A4613465B0013449B00184A1344CA
:1038D000FB60FB681B68002B0FD1FB6801221A817B
:1038E0007B6800221A617B6800225A61FB687A6853
:1038F0001A60FB687A685A6014E0FB681B89013320
:103900009AB2FB681A817B6800221A61FB685B68C7
:10391000BB607B68BA685A61BB687A681A61FB68E9
:103920007A685A6000BF1437BD465DF8047B704763
:10393000544A002080B586B000AF78607B6893F869
:103940003F301A4613465B0013449B00244A13443D
:103950007B617B685B693B617B681B69FB603B69E2
:10396000002B1FD1FB68002B0FD17B6900221A812D
:103970007B6900221A607B6900225A607B6893F899
:103980003F30184600F09EFE1FE07B691B89013B1B
:103990009AB27B691A81FB6800225A617B69FA68D6
:1039A0001A6012E07B691B89013B9AB27B691A811C
:1039B0003B69FA681A61FB68002B03D17B693A699D
:1039C0005A6002E0FB683A695A617B6800225A61DA
:1039D0007B6800221A6100BF1837BD4680BD00BF5A
:1039E000544A002080B582B000AF786039603B68EF
:1039F000002B09D03A687968094802F07BFE7B68A1
:103A0000032283F83E2003E07B68022283F83E20F5
:103A10007868FFF78FFF00BF0837BD4680BD00BF45
:103A20000850002080B485B000AF454BFB60454B8B
:103A3000BB60454BFB60454BFB60454BBB60454B5A
:103A4000FB60454B7B60454BFB60454BFB60454B4A
:103A5000FB60454BFB60454B7B60454B7B60454BBA
:103A60007B60454BFB60454B7B60454BFB60454BAA
:103A70007B60454B7B60454B7B60454B7B60454B9A
:103A8000FB60454BFB60454BFB60454B7B60454B0A
:103A9000FB60454B7B60454B7B60454B7B60454BFA
:103AA0007B60454B7B60454B7B60454BFB60454BEA
:103AB000FB60454BFB60454BFB60454B7B60454BDA
:103AC0007B60454B7B60454BFB60454BFB60454B4A
:103AD000FB60454B7B60454B7B60454B7B60454BBA
:103AE000BB60454B7B60454BFB60454BFB60454BEA
:103AF000FB60454BFB60454BFB60454BFB60454B1A
:103B0000FB60454B7B60454BFB60454BFB60454B89
:103B10007B60454B7B60454BFB60454BFB60454BF9
:103B20007B60454BFB60454BFB60454B7B60454BE9
:103B30007B6000BF1437BD465DF8047B704700BF53
:103B4000A4E7010808E90108A5E70108A6E70108BC
:103B5000A8E70108ACE70108B0E70108ADE70108F4
:103B6000D8E70108D9E70108DAE70108DCE701082E
:103B7000DEE70108E0E7010800E8010802E80108C3
:103B800004E8010806E8010808E801080AE8010855
:103B90000CE801083CE801083DE801083EE801089E
:103BA00040E8010842E8010844E8010846E8010845
:103BB00048E801084AE801084CE8010850E8010813
:103BC00080E8010881E8010882E8010883E801082B
:103BD00084E8010886E8010888E80108B0E80108DF
:103BE000B1E80108B2E80108B3E80108B4E8010847
:103BF000B6E80108B8E80108BCE80108BDE801081A
:103C0000BEE80108BFE80108C0E80108C1E80108F2
:103C1000C2E80108C3E80108C4E80108C6E80108D1
:103C2000C7E80108C8E80108CAE80108CCE80108AB
:103C3000CDE80108D0E8010800E9010801E9010820
:103C400002E9010804E9010880B483B000AF78609C
:103C5000074B00221A60074B00221A807B68002263
:103C60001A8000BF0C37BD465DF8047B704700BF6B
:103C7000A44E00200A4F002080B487B000AF7860C7
:103C80002E4B1B68002B04D17B6845F21E721A80F4
:103C90004EE02B4B1B88002B04D17B6845F21D7234
:103CA0001A8045E0254B1B687B61244B1B683B61F8
:103CB0003B6910333B61224B1B88013BBB810023D6
:103CC000FB8114E07B693A691A607B6900225A60C3
:103CD0007B6900221A817B690022DA607B691033DC
:103CE0007B613B6910333B61FB890133FB81FA89BE
:103CF000BB899A42E6D37B6900221A607B69002265
:103D00005A607B6900221A817B690022DA600B4BC2
:103D10001B680C4A13600A4B1A880A4B9A80094B9D
:103D20000022DA80074B00221A817B6800221A8069
:103D30001C37BD465DF8047B704700BF60E7010893
:103D40005CE70108BC4D002080B485B000AF78600E
:103D50007B685B89FB817B685B89002B26D07B6855
:103D60001B68BB60154B1A68BB681A607B685B6890
:103D7000124A1360114BDA887B685B89D31A9AB2B6
:103D80000E4BDA800D4B9A887B685B8913449AB29C
:103D90000A4B9A807B6800225A817B6800229A81B4
:103DA0007B6800221A607B6800225A60FB891846F3
:103DB0001437BD465DF8047B704700BFBC4D002042
:103DC00080B483B000AF78600B467B807B687A88D4
:103DD0001A817B6800225A817B6800229A817B6865
:103DE00000221A607B6800225A6000BF0C37BD4673
:103DF0005DF8047B7047000080B487B000AFF860C6
:103E0000B9607A603B60FB685B89002B0ED1BB68B0
:103E100000221A807B68002B02D07B6800221A6087
:103E20003B6846F292521A8000233CE0FB685B68D4
:103E30007B617B695B683B617B691A89BB681A801F
:103E40007B68002B03D07B69DA687B681A607B692A
:103E50001A68FB685A60FB685B68002B06D1FB6838
:103E600000221A60FB6800225A8105E0FB685B892A
:103E7000013B9AB2FB685A810E4B1A687B691A6043
:103E80000C4A7B6913600B4B9B8801339AB2094B38
:103E90009A80084BDB88013B9AB2064BDA803B687C
:103EA00000221A803B6918461C37BD465DF8047B2A
:103EB000704700BFBC4D002080B487B000AFF860F1
:103EC000B96011461A460B46FB801346BB80FB685F
:103ED0005A89FB681B899A4204D37B6A46F2935243
:103EE0001A806BE0384B9B88002B04D17B6A45F22B
:103EF0001D721A8062E0344B1B687B617B691B6812
:103F0000314A1360304B9B88013B9AB22E4B9A800A
:103F10002D4BDB8801339AB22B4BDA802A4B1A895E
:103F2000294BDB889A4203D2274BDA88264B1A8129
:103F3000FB685B89002B0CD1FB687A691A60FB680F
:103F40007A695A60FB6801225A817B6900221A60F3
:103F50001EE0BB8803F01003002B0CD1FB681B682C
:103F60003B613B697A691A60FB687A691A607B6910
:103F700000221A6006E0FB685A687B691A60FB68D9
:103F80007A695A60FB685B8901339AB2FB685A818F
:103F9000FB689A89FB685B899A4203D2FB685A895D
:103FA000FB689A817B69BA685A607B69FA881A81D2
:103FB0007B693A6ADA607B6A00221A801C37BD4648
:103FC0005DF8047B704700BFBC4D002080B586B013
:103FD00000AFF860B9607A6000237B61204B1B78EA
:103FE000002B04D07B6842F6E1621A8035E0FB6862
:103FF000002B04D17B6845F6C3521A802DE0FCF7F4
:10400000BDF9786103F0AAFDFB68164A1A60FB68E7
:10401000BA685A60FB6800221A62FB6800225A6282
:10402000FB68002283F82820FB680022DA62FB6824
:1040300008331846FFF769FAF86800F029FA0A4BC6
:104040001B8801339AB2084B1A8003F0A7FD7869E8
:10405000FCF798F97B6800221A801837BD4680BDAE
:10406000E44C00204D5554580C4F002080B586B0CC
:1040700000AFF860B9603B601346FB8000237B61B2
:104080008C4B1B78002B04D03B6A46F2AE121A8090
:104090000DE1FB68002B04D13B6A45F6C3521A8040
:1040A00005E1FB88002B07D0B3F5004F04D03B6A35
:1040B00045F625621A80FAE000BFFB681B687E4A5D
:1040C000934204D03B6A45F6C4521A80EFE0FCF7F5
:1040D00055F9786103F042FDFB6893F82830002B16
:1040E0001DD1764B1A68FB685A62FB68012283F87F
:1040F00028203B68002B03D0FB68DA6A3B681A6013
:104100006E4B1B68F968184600F0EAF903F046FDAB
:104110007869FCF737F93B6A00221A80C7E0FB6830
:104120005A6A664B1B689A4227D1FB6893F828307D
:10413000FF2B09D103F032FD7869FCF723F93B6AC4
:1041400045F284721A80B2E0FB6893F8283001339C
:10415000DAB2FB6883F828203B68002B03D0FB68A9
:10416000DA6A3B681A6003F019FD7869FCF70AF90E
:104170003B6A45F282721A8099E0B7F90630002B4B
:104180000FDA03F00BFD7869FCF7FCF83B68002BB5
:1041900002D03B6800221A603B6A46F2B0121A80D5
:1041A00085E0474B1B78002B0FD003F0F7FC7869B4
:1041B000FCF7E8F83B68002B02D03B6800221A604D
:1041C0003B6A46F663521A8071E0FB685B6A3B61AA
:1041D0003B6993F83F20394B1B6893F83F309A4274
:1041E00007D9364B1B6893F83F301946386902F0FF
:1041F00037F9BA680421F868FFF7D0F803F0CEFC6D
:104200007869FCF7BFF8FEF72FFFFCF7B7F8786185
:1042100003F0A4FC294B1B6893F83D30032B3CD8DA
:1042200001A252F823F000BF3942000851420008B1
:10423000814200086B4200083B68002B04D01F4BF2
:104240001B681A6D3B681A603B6A00221A8029E0DD
:104250003B68002B04D0194B1B681A6D3B681A6031
:104260003B6A46F2A9121A801CE03B68002B02D080
:104270003B6800221A603B6A47F2D9221A8011E09B
:104280003B68002B04D00D4B1B681A6D3B681A600D
:104290003B6A45F6C2521A8004E03B6A46F62E623B
:1042A0001A8000BF03F07AFC7869FCF76BF81837C6
:1042B000BD4680BDE44C00204D555458C04C0020F4
:1042C000404A002080B58CB002AFF8600B467A609F
:1042D0007B8100237B626A4B1B78002B04D07B68B8
:1042E00046F20E221A80C7E0FB68002B04D17B68DF
:1042F00045F6C3521A80BFE07B89002B07D0B3F587
:10430000004F04D07B6845F625621A80B4E000BFF8
:10431000FB681B685B4A934204D07B6845F6C45235
:104320001A80A9E0FCF72AF8786203F017FCFB6812
:104330005A6A554B1B689A4209D003F02FFC786AE1
:10434000FCF720F87B6845F281721A8094E0FEF752
:1043500009FD3862FB683A6ADA62FB6893F8283034
:10436000013BDAB2FB6883F82820FB6893F8283019
:10437000002B09D003F012FC786AFCF703F87B6885
:1043800045F283721A8077E03F4B1B68F968184644
:1043900000F0B8F8FB680833FB61FB691B68002B71
:1043A0000FD1FB6800225A62FB68002283F82820A4
:1043B00003F0F4FB786AFBF7E5FF7B6800221A80C4
:1043C0005AE0314B1B6893F83F202F4B1B6893F842
:1043D00040309A422CD02C4B1B68184600F0AFF8A6
:1043E0000346FB76284B1B6893F84020FB7E9342E4
:1043F00028BF1346FB76244B1B6893F83F30FA7EA8
:104400009A4215D9204B1B681846FFF793FA1E4BAA
:104410001B68FA7E83F83F20FB7E184600F02EF9D9
:10442000194B1B681846FFF745FA184AFB7E1370B4
:10443000FB691B687B61FB687A695A62FB68012231
:1044400083F82820F968786900F04AF83B6A0093FD
:10445000002300227969F868FFF72CF903F09EFB2E
:10446000786AFBF78FFFB7F90A30002B01DBFEF704
:10447000FBFD7B6800221A802837BD4680BD00BF47
:10448000E44C00204D555458C04C0020E44B002013
:1044900080B483B000AF78607B680F4ADA617B68D4
:1044A00000225A610D4B1B68002B03D17B68002250
:1044B0009A6107E0094B1A687B689A61074B1B6891
:1044C0007A685A61054A7B68136000BF0C37BD46A5
:1044D0005DF8047B704700BF50E60108F84F0020EC
:1044E00080B483B000AF786039607B685A6C3B68F9
:1044F0001A627B683A685A6400BF0C37BD465DF8A3
:10450000047B704780B485B000AF786039607B6809
:104510004433FB6003E0FB681B682033FB60FB68EF
:104520001A683B689A42F6D1FB681B681A6AFB68F6
:104530001A6000BF1437BD465DF8047B704780B435
:1045400087B000AF78601F23FB747B6844337B61C6
:1045500014E07B691B689B68FB60FB68002B09D03B
:10456000FB6893F83F30FB72FA7AFB7C9A4201D2E7
:10457000FB7AFB747B691B6820337B617B691B685A
:10458000002BE6D1FB7C18461C37BD465DF8047B4A
:10459000704780B58AB002AF78607B685B6CFB6166
:1045A00033E0FB691B6ABB61FEF7DCFB7861FB69EA
:1045B0007A69DA62F9697868FFF7A4FFFB69083362
:1045C0003B613B691B68002B07D1FB69002283F824
:1045D0002820FB6900225A6215E03B691B68FB60DA
:1045E000FB697A685A62FB69012283F82820F9691D
:1045F000F868FFF775FF7B69009300230022F968D4
:10460000F869FFF757F8BB69FB61FB69002BC8D15C
:1046100000BF2037BD4680BD80B483B000AF00230B
:104620007B6007E0084A7B68002142F823107B6822
:1046300001337B607B68002BF4D000BF0C37BD4694
:104640005DF8047B704700BF3C4A002080B582B013
:1046500000AF0023FB71084B3B603B681B681846AA
:10466000FBF797FE0346DAB2FB791344FB71FB7943
:1046700018460837BD4680BD3C4A002080B487B04C
:1046800000AF0346FB710023FB75FB793B610123FF
:10469000FB603B69C3F11F03FA6802FA03F3FB6096
:1046A000FB7DFA7D064951F82210FA680A43044955
:1046B00041F8232000BF1C37BD465DF8047B7047DE
:1046C0003C4A002080B487B000AF0346FB71002352
:1046D000FB75FB793B610123FB603B69C3F11F0361
:1046E000FA6802FA03F3FB60FB7DFA7D074951F893
:1046F0002210FA68D2430A40044941F8232000BF3F
:104700001C37BD465DF8047B704700BF3C4A002063
:1047100080B586B000AFF860B9603B601346FB809F
:1047200000237B61214B1B78002B04D03B6842F6B1
:10473000E1621A8037E0FB68002B04D13B6845F644
:10474000C3521A802FE0FB88002B04D13B6846F24D
:1047500094521A8027E0FBF711FE786103F0FEF90E
:10476000FB68134A1A60FB68BA685A60FB6820331A
:10477000FA8811461846FFF723FBFB6808331846F2
:10478000FEF7C3FEF86800F0B7F90A4B1B88013347
:104790009AB2084B1A8003F001FA7869FBF7F2FD30
:1047A0003B6800221A801837BD4680BDE44C0020CB
:1047B00051554555C44C002080B586B000AFF86017
:1047C000B9603B601346FB8000233B61754B1B784F
:1047D000002B05D07B6A46F2AE121A800023DDE082
:1047E000FB68002B05D17B6A45F6C3521A80002373
:1047F000D4E03B68002B05D17B6A46F2D5221A80B3
:104800000023CBE0FB88002B08D0B3F5004F05D088
:104810007B6A45F625621A800023BFE000BFFB6873
:104820001B68614A934205D07B6A45F6C4521A80E0
:104830000023B3E03B6A002B02D03B6A00221A60DF
:10484000FBF79CFD386103F089F9FB6803F1200058
:104850007B6A3A6A3968FFF7CFFA78617B6A1B880E
:10486000002B06D103F09AF93869FBF78BFD7B69C1
:1048700094E0B7F90630002B0ADA03F08FF93869B3
:10488000FBF780FD7B6A46F2B0121A80002385E0B8
:10489000464B1B78002B0AD003F080F93869FBF7F0
:1048A00071FD7B6A46F663521A80002376E0BA688F
:1048B0000521F868FEF772FD03F070F93869FBF71F
:1048C00061FDFEF7D1FBFBF759FD386103F046F9B6
:1048D000374B1B6893F83D30032B4FD801A252F899
:1048E00023F000BFF5480008214900085949000895
:1048F000454900082E4B1B681B6E7B612C4B1B68C7
:10490000B3F864203B681A803B6A002B04D0284B24
:104910001B681A6D3B6A1A607B6A00221A8037E0B6
:1049200000237B613B6800221A803B6A002B04D085
:104930001F4B1B681A6D3B6A1A607B6A46F2A9120C
:104940001A8025E000237B613B6800221A807B6A85
:1049500047F2D9221A801BE000237B613B680022CA
:104960001A803B6A002B04D0114B1B681A6D3B6AFE
:104970001A607B6A45F6C2521A8009E000237B6107
:104980003B6800221A807B6A46F62E621A8000BFBE
:1049900003F004F93869FBF7F5FC7B691846183712
:1049A000BD4680BDE44C002051554555404A00208D
:1049B000C04C002080B58CB002AFF860B9601146E1
:1049C0001A460B46FB801346BB800023FB61FB6845
:1049D000002B04D13B6B45F6C3521A8087E0BB889D
:1049E000B3F5047F22D0B3F5047F07DC102B1DD074
:1049F000B3F5007F1AD0002B18D012E048F2100255
:104A0000934213D048F21002934203DCB3F5004FF7
:104A10000CD006E0B3F5024F08D048F210229342C2
:104A200004D03B6B45F625621A8060E000BFFB684E
:104A30001B68304A934204D03B6B45F6C4521A803F
:104A400055E0FEF78FF9B861FBF798FCF86103F0C9
:104A500085F8FB6808337B617B691B68002B1CD1E0
:104A6000BB8803F01003002B02D10023FB8401E07C
:104A70001023FB84FB6803F12000F98CFA883B6B60
:104A80000193BB6900930B46B968FFF715FA03F071
:104A900085F8F869FBF776FC29E07B691B683B62C7
:104AA00012E03B6A1B6B3B61FA88BB6900931346BB
:104AB000BA68396AF868FEF7FDFDBB8803F4007335
:104AC000002B05D03B693B623B6A002BE9D100E03B
:104AD00000BF03F063F8F869FBF754FCB7F9043042
:104AE000002B01DBFEF7C0FA3B6B00221A8028374F
:104AF000BD4680BD5155455580B483B000AF786048
:104B00007B680F4ADA617B6800225A610D4B1B6893
:104B1000002B03D17B6800229A6107E0094B1A68D9
:104B20007B689A61074B1B687A685A61054A7B6803
:104B3000136000BF0C37BD465DF8047B704700BFB3
:104B400058E601089C4E002080B586B000AFF860A2
:104B5000B9607A603B6000237B611D4B1B78002BA2
:104B600004D03B6842F6E1621A802EE0FB68002B1D
:104B700004D13B6845F6C3521A8026E0FBF7FEFBE2
:104B8000786102F0EBFFFB68124A1A60FB687A68F2
:104B90001A62FB6800225A62FB68BA685A60FB68B6
:104BA00008331846FEF7B1FCF86800F0A7F90A4B85
:104BB0001B8801339AB2084B1A8002F0EFFF786924
:104BC000FBF7E0FB3B6800221A801837BD4680BD2A
:104BD000E44C002053454D41A04E002080B586B0E6
:104BE00000AFF860B9603B601346FB8000237B6137
:104BF000724B1B78002B05D03B6A46F2AE121A802E
:104C00000023D6E0FB68002B05D13B6A45F6C35272
:104C10001A800023CDE0FB88002B08D0B3F5004FAD
:104C200005D03B6A45F625621A800023C1E000BF2B
:104C3000FB681B68624A934205D03B6A45F6C45242
:104C40001A800023B5E0FBF799FB786102F086FF3C
:104C5000FB681B6A002B18D0FB681B6A5A1EFB6896
:104C60001A623B68002B03D0FB685A6A3B681A60E3
:104C7000FB681B6A3B6102F091FF7869FBF782FBDE
:104C80003B6A00221A803B6993E0B7F90630002B9B
:104C900013DA3B68002B02D03B6800221A60FB68E5
:104CA0001B6A3B6102F07AFF7869FBF76BFB3B6A9A
:104CB00046F2B0121A803B697BE0424B1B78002B16
:104CC00010D03B68002B02D03B6800221A6002F033
:104CD00065FF7869FBF756FB3B6A46F663521A801C
:104CE000002366E0BA680621F868FEF757FB02F079
:104CF00055FF7869FBF746FBFEF7B6F9FBF73EFB7D
:104D0000786102F02BFF304B1B6893F83D30032B8A
:104D10003BD801A252F823F0294D0008414D00086C
:104D2000714D00085B4D00083B68002B04D0264BFA
:104D30001B681A6D3B681A603B6A00221A802FE0DC
:104D40003B68002B04D0204B1B681A6D3B681A602F
:104D50003B6A46F2A9121A8022E03B68002B02D07F
:104D60003B6800221A603B6A47F2D9221A8017E09A
:104D70003B68002B04D0144B1B681A6D3B681A600B
:104D80003B6A45F6C2521A800AE03B6A46F62E623A
:104D90001A8002F003FF7869FBF7F4FA002308E0B9
:104DA000FB681B6A3B6102F0F9FE7869FBF7EAFADF
:104DB0003B6918461837BD4680BD00BFE44C002053
:104DC00053454D41404A0020C04C002080B58CB076
:104DD00002AFF8600B467A607B8100233B62FB6880
:104DE000002B05D17B6845F6C3521A8000237FE073
:104DF0007B89B3F5007F11D0B3F5007F02DC002B77
:104E00000CD005E0B3F5004F08D0B3F5024F05D044
:104E10007B6845F625621A80002369E000BFFB68C5
:104E20001B68354A934205D07B6845F6C4521A8008
:104E300000235DE0FDF796FFF861FBF79FFA38620B
:104E400002F08CFEFB680833BB61BB691B68002B5A
:104E500024D1FB681B6AB3F1FF3F0AD102F09EFE2A
:104E6000386AFBF78FFA7B6846F6C5521A80002332
:104E70003EE0FB681B6A5A1CFB681A62FB681B6AEF
:104E80007B61FB68FA695A6202F088FE386AFBF7B8
:104E900079FA7B6800221A807B6929E0BB691B686C
:104EA0007B6211E07B6A1B6B3B61FB690093002313
:104EB0000022796AF868FEF7FDFB7B8903F4007332
:104EC000002B05D03B697B627B6A002BEAD100E0B6
:104ED00000BF02F063FE386AFBF754FAB7F90A30F4
:104EE000002B01DBFEF7C0F87B6800221A8000234C
:104EF00018462837BD4680BD53454D4180B483B028
:104F000000AF78607B680F4ADA617B6800225A61E3
:104F10000D4B1B68002B03D17B6800229A6107E0D0
:104F2000094B1A687B689A61074B1B687A685A615B
:104F3000054A7B68136000BF0C37BD465DF8047BF3
:104F4000704700BF64E60108DC4B002080B586B0E6
:104F500000AF78600023FB60FBF710FAF86002F006
:104F6000FDFD474B00221A80464B00221A60464B3B
:104F700000221A60454B00221A60454B00221A603D
:104F800002F042FE434B00221A8102F007FEF8684D
:104F9000FBF7F8F9FBF7F2F9F86002F0DFFD3E4BA2
:104FA0001B687B6102F0FAFDF868FBF7EBF938E06B
:104FB000FBF7E4F9F86002F0D1FD7B690022C3F849
:104FC000C4207B690022DA677B690022C3F8B8201D
:104FD0007B690022C3F8A0207B690022A3F89A20F5
:104FE0007B690022A3F89C207B690022C3F8AC20D7
:104FF0007B690022C3F8B020FDF7B4FE02467B694E
:10500000C3F8A8207B696833BB60BB6800229A8123
:105010007B69D3F8CC307B6102F0C0FDF868FBF708
:10502000B1F97B69002BC3D1FBF7A8F9F86002F056
:1050300095FD1A4B1B683B6102F0B0FDF868FBF769
:10504000A1F912E0FBF79AF9F86002F087FD3B69DD
:105050002033BB60BB6800229A813B699B693B613E
:1050600002F09CFDF868FBF78DF93B69002BE9D154
:105070007B6800221A8000BF1837BD4680BD00BF84
:10508000C64C0020484A0020EC4F0020D04C0020A5
:10509000F04E0020BC4D0020CC4C00209C4E002047
:1050A00080B586B000AF786000233B6107F10E0346
:1050B0001946364800F08EFFFB89002B03D0FA8991
:1050C0007B681A805EE007F10E031A460021022079
:1050D00001F0D6FDFB89002B03D0FA897B681A808A
:1050E00050E0FBF74BF9386102F038FD284B002205
:1050F0001A6002F053FD3869FBF744F900237B6125
:10510000244B1A68244B1B689A4206D9214B1A6813
:10511000214B1B68B2FBF3F37B617B69002B06D14B
:105120001C4B1B681D4AA2FB0323DB087B6107F1B4
:105130000E031A460021786901F0A2FD07F10E0363
:105140001946124800F04EFCFB89002B03D0FA8967
:105150007B681A8016E0FBF711F9386102F0FEFC5B
:105160000F4B00221A600A4B1B680E4A13600E4B4D
:1051700001221A7002F012FD3869FBF703F97B680F
:1051800000221A801837BD4680BD00BFE84C0020C1
:105190004C4A00207CE7010868E70108CDCCCCCC64
:1051A000484A0020E04E0020D94B002080B590B046
:1051B00000AF78600023BB6108E0904B1B685B0088
:1051C00007F10A020021184601F05AFD8C4B1B78AA
:1051D000012BF2D107F10A031846FFF7B7FE0023AF
:1051E000FB61884B1A68854B1B689A4206D9854B30
:1051F0001A68824B1B68B2FBF3F3FB61FB69002B5F
:1052000006D1804B1B68804AA2FB0323DB08FB61AD
:10521000FDF7A8FD786102F087FC02467B4B1A601F
:10522000FBF7ACF8B86102F099FC794B1B68794A3E
:105230001360774B00221A6002F0B0FCB869FBF7EC
:10524000A1F8754B1A68734B1B689A424FD9724B81
:105250001B68724A934205D842F210737B620123A5
:105260003B6224E06C4B1B686D4A934205D84FF4B7
:105270007A737B620A233B6219E0674B1B68694AB9
:10528000934204D864237B6264233B620FE0624B49
:105290001B68654A934205D80A237B624FF47A73F0
:1052A0003B6204E001237B6242F210733B625A4B83
:1052B0001A683B6AB2FBF3F33B61564B1B687A6A90
:1052C00002FB03F23B69B2FBF3F39AB242F21073B2
:1052D0009B1A9AB2554B1A80554B1A88534B1B8810
:1052E0009A4207D2514B1A88514B1A8002E04F4B19
:1052F00000221A8002F024F80023BB63FBF73EF87B
:10530000B86102F02BFC4B4B1B68BB6202F046FC01
:10531000B869FBF737F827E0FBF730F8B86102F01F
:105320001DFCBB6AD3F8AC20BB6AC3F8B020BB6AD3
:105330000022C3F8AC2002F031FCB869FBF722F878
:10534000BB6AD3F8B030BA6B1344BB63FBF716F8F3
:10535000B86102F003FCBB6AD3F8CC30BB6202F048
:105360001DFCB869FBF70EF8BB6A002BD4D1BB6BF0
:10537000002B31D0BB6B294A934205D842F21073FF
:105380003B6301237B6321E0BB6B254A934205D835
:105390004FF47A733B630A237B6317E0BB6B214AAC
:1053A000934204D864233B6364237B630EE0BB6BAE
:1053B0001D4A934205D80A233B634FF47A737B63FB
:1053C00004E001233B6342F210737B63BA6B7B6B97
:1053D000B2FBF3F3FB6203E000233B630123FB62B8
:1053E000FAF7CCFFB86102F0B9FB124B1B68BB6245
:1053F00002F0D4FBB869FAF7C5FF56E068E7010888
:10540000D94B00207CE70108CDCCCCCCF04E00205D
:105410004C4A0020F84E0020E04E00207F1A060083
:10542000FF083D00FF596202FF83D717DC4C0020C4
:10543000C64C0020CC4C0020BB6AD3F8B0303A6B8D
:1054400002FB03F2FB6AB2FBF3F3FB87FB8F42F232
:105450001072934202D942F21073FB87BB6AFA8F33
:10546000A3F89A20BB6AB3F89C30FA8F9A4203D90A
:10547000BB6AFA8FA3F89C20BB6A03F1C001BB6A28
:1054800003F1BC0207F10A03B86A00F023FDFAF742
:1054900075FFB86102F062FBBB6AD3F8CC30BB6227
:1054A00002F07CFBB869FAF76DFFBB6A002BC3D131
:1054B000104B1B78012B07D10E4B00221A7007F1FD
:1054C0000A031846FFF742FDFDF74CFC02467B69D4
:1054D000D31AFB60084B1A68FB689A4202D2064A4C
:1054E000FB68136007F10A031A460021F86901F00E
:1054F000C7FB8DE6084F0020484A002090B58DB0CC
:105500000AAF7860254B00221A60254B00221A60F2
:10551000244B00221A60244B00221A70234B0022D5
:105520001A70234B1B68002B04D17B6846F62B6254
:105530001A802FE01F4B1A681F4B1B689A4204D237
:105540007B6846F62C621A8024E01C4B1B781E2BCD
:1055500004D97B6846F62A621A801BE0174B1B7839
:10556000134A126816490968124800687C68089452
:105570000324079400240694002405940024049432
:10558000039002910192009300230E4A0E490F48A6
:1055900000F01EF80C37BD4690BD00BF4C4A0020FD
:1055A000F84E0020E04E0020D94B0020084F00208C
:1055B0006CE7010874E7010878E7010864E701086F
:1055C00070E70108AD51000868E60108104F00209F
:1055D00080B58CB002AFF860B9607A603B600023A0
:1055E000BB61814B1B78002B04D03B6D47F24A1204
:1055F0001A80F6E0FB68002B04D13B6D47F2AD1238
:105600001A80EEE07B68002B04D13B6D47F24F120D
:105610001A80E6E07B6B002B04D13B6D46F62F62CF
:105620001A80DEE0714B1B68FA6B9A4204D23B6D24
:1056300046F630621A80D4E0BA6BFB6B9A4204D310
:105640003B6D46F631621A80CBE097F830301E2B66
:1056500008D997F830301F2B04D03B6D46F27322E7
:105660001A80BEE097F830301F2B08D1FB68604AE3
:10567000934204D03B6D46F273221A80B1E0F86881
:1056800000F002FE3B6D00221A80B7F84C3003F0A8
:105690000103002B05D1B7F84C3003F00203002BB7
:1056A00017D0B7F84C3003F00203002B11D07B6BFE
:1056B000FB6100237B6208E0FB6900221A60FB6942
:1056C0000433FB617B6A01337B627A6AFB6B9A422B
:1056D000F2D3BB6B9B007A6B13447B61B7F84C3001
:1056E0000193FB6B00937B697A6B3968786801F0F2
:1056F0006BFEF861FA697B6B9A4204D23B6D46F609
:105700002C621A806DE0FB687A689A62FB683A68DE
:10571000DA62FB68BA689A60FB6897F8302083F811
:105720003F20FB6897F8302083F84020FB68FA6937
:105730001A60FB687A69DA60FB68BA6C5A60FB68C9
:105740007A6B5A62FB68FA6B9A64FB68B7F84C2074
:10575000A3F84C20002387F823300BE097F8232090
:10576000FB682032002143F8221097F823300133E0
:1057700087F8233097F82330002BEFD0FB6868338D
:10578000B7F8402011461846FEF71AFBF86801F0FA
:10579000E5FDFAF7F3FDB86102F0E0F9FB6893F874
:1057A0003F301846FEF76AFFF868FEF783F8F8689E
:1057B00000F0E6FC0F4B1B8801339AB20D4B1A80A8
:1057C0000D4B1B78012B05D002F0E8F9B869FAF708
:1057D000D9FD06E002F0E2F9B869FAF7D3FDFDF76A
:1057E00043FC2837BD4680BDE44C002078E7010823
:1057F000C84D0020E64C0020514A002080B586B0FC
:1058000000AF7860396000233B61724B1B78002B3E
:1058100004D03B6847F24E121A80D8E07B686E4A8B
:10582000934204D13B6847F24C121A80CFE07B6868
:10583000002B0CD1FAF7A2FD386102F08FF9674B0B
:105840001B687B6002F0AAF93869FAF79BFDFAF74A
:1058500095FD386102F082F97B6893F83E30072BA2
:105860007FD801A252F823F0895800089158000807
:10587000995800089958000877590008915800086D
:1058800099580008995800087868FEF753F875E0B1
:10589000786801F043F871E07B6893F83C30072B9F
:1058A0004ED801A252F823F041590008C958000807
:1058B0004159000841590008D1580008C95800084A
:1058C000C9580008415900087868FDF79DFE3AE084
:1058D0007B689B6B5B6AFB60FB6893F83F30FB75F2
:1058E0007868FDF791FEFB6893F83F20FB6893F81A
:1058F00040309A4214D0FB6893F83F207B6893F8BD
:105900003F309A420CD1F868FEF719FE0346FB754A
:10591000FB6893F84020FB7D934228BF1346FB753C
:105920007B68002283F83C20FB6893F83F30FA7DC7
:105930009A4207D0FB7D1946F86800F091FD01E01E
:1059400000BF00E000BF7B6893F83E30032B04D01B
:105950007B6893F83E30072B0FD1786800F0DEFFAC
:105960000BE002F01BF93869FAF70CFD3B6846F6CC
:105970002D621A802BE000BF00E000BF7B685B6CEB
:10598000002B02D07868FEF704FE7B686833184667
:10599000FEF7DAF9786801F0F3FC786800F016FC9D
:1059A0000F4B1B88013B9AB20D4B1A80786800F0B0
:1059B0006BFC7B68FF2283F83E203B6800221A8044
:1059C00002F0ECF83869FAF7DDFCFDF74DFB18370B
:1059D000BD4680BDE44C0020C84D0020C04C0020D6
:1059E000E64C002080B584B000AF786039600023B9
:1059F000FB605E4B1B78002B04D03B6847F25512CE
:105A00001A80B0E0FAF7BAFCF86002F0A7F87B68F9
:105A1000002B04D0564B1B687A689A4209D102F0D9
:105A2000BDF8F868FAF7AEFC3B6847F257121A80E7
:105A300099E002F0B3F8F868FAF7A4FCFAF79EFCD4
:105A4000F86002F08BF83B6800221A807B6893F8BC
:105A50003E30072B7BD801A252F823F07D5A000874
:105A60007D5A00087D5A00087D5A0008915A0008A6
:105A7000C55A0008F35A0008215B000802F08EF8AE
:105A8000F868FAF77FFC3B6847F253121A8068E027
:105A90007B6893F89830013BDAB27B6883F89820F2
:105AA0007B6893F89830002B06D17B68002283F83E
:105AB0003E207868FDF79EFE02F070F8F868FAF76D
:105AC00061FC4EE07B6893F89830013BDAB27B686A
:105AD00083F898207B6893F89830002B03D17B687B
