:020000040800F2
:10000000000005204D1301089D1301089D130108F0
:100010009D1301089D1301089D13010800000000B5
:100020000000000000000000000000009D13010817
:100030009D1301080000000019030008D57B00088B
:100040009D1301089D1301089D1301089D130108CC
:100050009D1301089D1301089D1301089D130108BC
:10006000C1160008D71600089D1301089D1301084A
:100070009D1301089D1301089D1301089D1301089C
:100080009D1301089D1301089D1301089D1301088C
:100090009D1301089D1301089D1301086531000897
:1000A0009D1301089D1301089D1301089D1301086C
:1000B0009D290008B92900089D1301089D13010816
:1000C0009D1301089D1301089D1301089D1301084C
:1000D0009D1301089D1301089D1301089D1301083C
:1000E0009D1301089D1301089D1301089D1301082C
:1000F0009D1301089D1301089D1301089D1301081C
:100100009D1301089D130108CD2900089D130108C6
:100110009D1301089D1301089D1301089D130108FB
:100120001D1900089D1301089D1301089D13010866
:100130009D1301089D1301089D1301089D130108DB
:100140009D1301089D1301089D1301080D18010856
:100150009D1301089D1301089D1301089D130108BB
:100160009D1301089D1301089D1301089D130108AB
:100170009D1301089D1301089D1301080000000054
:100180009D1301089D1301089D1301089D1301088B
:100190009D1301089D1301089D1301089D1301087B
:1001A000A94D01089D1301089D1301089D13010825
:1001B0009D1301089D1301089D1301089D1301085B
:1001C0009D1301089D130108000000009D13010804
:1001D0009D1301089D1301089D1301089D1301083B
:1001E0009D1301089D1301089D1301089D1301082B
:0801F0009D1301089D13010895
:1002000010B5054C237833B9044B13B10448AFF350
:1002100000800123237010BD480A00200000000068
:10022000A85102080C4B43B10C480D4910B5AFF36F
:1002300000800C48036823B910BD0A48036833B92D
:100240007047094B002BF7D0BDE810401847064B0C
:10025000002BF5D0184700BF00000000A85102088D
:100260004C0A0020480A002000000000EFF309813A
:1002700021B120ED108A3C490A6810607047B0EC4B
:10028000108A3A490A681060704772B64EF62250DA
:10029000CEF2000040F2FF01C0F200010170002028
:1002A00080F3098846F2D010C2F20000016881F3A1
:1002B000088807F02DFC45F6A450C2F2000045F670
:1002C0009851C2F200010A78027045F68060C2F2CD
:1002D000000045F68861C2F200010A6802601068F9
:1002E00080F30988EFF3148040F0020080F3148853
:1002F000BFF36F8FBDE8F04F0FBCBDE8005006BCE8
:1003000062B608471A484FF080510160704718489C
:100310004FF080510160704772B6EFF3098020E919
:10032000F04F45F68065C2F2000529680860744602
:1003300007F0EEFB45F6A450C2F2000045F69851D6
:10034000C2F200010A78027045F68861C2F200012B
:100350000A682A6044F0040E1068B0E8F04F80F399
:10036000098862B670470000805E0020885E002029
:1003700004ED00E072B6704762B67047EFF310808C
:1003800072B6704780F31088704730BF704720BF47
:100390007047B0FA80F0704790FAA0F0B0FA80F0A1
:1003A000704790FAA0F0704781F0004102E000BF72
:1003B00083F0004330B54FEA41044FEA430594EA25
:1003C000050F08BF90EA020F1FBF54EA000C55EA60
:1003D000020C7FEA645C7FEA655C00F0E2804FEA31
:1003E0005454D4EB5555B8BF6D420CDD2C4480EA13
:1003F000020281EA030382EA000083EA010180EA43
:10040000020281EA0303362D88BF30BD11F0004F90
:100410004FEA01314FF4801C4CEA113102D04042C6
:1004200061EB410113F0004F4FEA03334CEA133301
:1004300002D0524263EB430394EA050F00F0A78019
:10044000A4F10104D5F1200E0DDB02FA0EFC22FA14
:1004500005F2801841F1000103FA0EF2801843FA08
:1004600005F359410EE0A5F120050EF1200E012AF9
:1004700003FA0EFC28BF4CF0020C43FA05F3C01837
:1004800051EBE37101F0004507D54FF0000EDCF1B0
:10049000000C7EEB00006EEB0101B1F5801F1BD359
:1004A000B1F5001F0CD349085FEA30004FEA3C0C5D
:1004B00004F101044FEA445212F5800F80F09A8053
:1004C000BCF1004F08BF5FEA500C50F1000041EB57
:1004D000045141EA050130BD5FEA4C0C404141EB5B
:1004E000010111F4801FA4F10104E9D191F0000F82
:1004F00004BF01460020B1FA81F308BF2033A3F105
:100500000B03B3F120020CDA0C3208DD02F1140CFB
:10051000C2F10C0201FA0CF021FA02F10CE002F136
:100520001402D8BFC2F1200C01FA02F120FA0CFC2F
:10053000DCBF41EA0C019040E41AA2BF01EB045178
:10054000294330BD6FEA04041F3C1CDA0C340EDC76
:1005500004F11404C4F1200220FA04F001FA02F3B9
:1005600040EA030021FA04F345EA030130BDC4F177
:100570000C04C4F1200220FA02F001FA04F340EA6C
:100580000300294630BD21FA04F0294630BD94F01D
:10059000000F83F4801306BF81F480110134013D04
:1005A0004EE77FEA645C18BF7FEA655C29D094EA75
:1005B000050F08BF90EA020F05D054EA000C04BFF3
:1005C0001946104630BD91EA030F1EBF00210020DE
:1005D00030BD5FEA545C05D14000494128BF41F07D
:1005E000004130BD14F580043CBF01F5801130BDE1
:1005F00001F0004545F0FE4141F470014FF000006C
:1006000030BD7FEA645C1ABF194610467FEA655C1C
:100610001CBF0B46024650EA013406BF52EA0335BE
:1006200091EA030F41F4002130BD00BF90F0000FAC
:1006300004BF0021704730B54FF4806404F13204E8
:100640004FF000054FF0000150E700BF90F0000FA1
:1006500004BF0021704730B54FF4806404F13204C8
:1006600010F0004548BF40424FF000013EE700BF98
:1006700042004FEAE2014FEA31014FEA02701FBF28
:1006800012F07F4393F07F4F81F06051704792F0FA
:10069000000F14BF93F07F4F704730B54FF4607474
:1006A00001F0004521F0004120E700BF50EA0102BF
:1006B00008BF704730B54FF000050AE050EA01026C
:1006C00008BF704730B511F0004502D5404261EBDC
:1006D00041014FF4806404F132045FEA915C3FF41D
:1006E000DCAE4FF003025FEADC0C18BF03325FEAB6
:1006F000DC0C18BF033202EBDC02C2F1200300FA6B
:1007000003FC20FA02F001FA03FE40EA0E0021FA8F
:1007100002F11444C1E600BF4FEA410212F5001293
:1007200015D211D56FF47873B3EB625212D94FEA38
:10073000C12343F0004343EA505311F0004F23FA22
:1007400002F018BF404270474FF00000704750EA77
:10075000013005D111F0004008BF6FF00040704734
:100760004FF00000704700BF53B94AB9002908BFD5
:1007700000281CBF4FF0FF314FF0FF3000F07AB976
:10078000ADF1080C6DE904CE00F006F8DDF804E0E8
:10079000DDE9022304B070472DE9F0478C460D4691
:1007A0000446089E002B51D18A4217466DD9B2FAF1
:1007B00082FEBEF1000F0BD0CEF1200C01FA0EF537
:1007C00020FA0CFC02FA0EF74CEA050C00FA0EF4C3
:1007D0004FEA174A250CBCFBFAF81FFA87F90AFB07
:1007E00018CC45EA0C4508FB09F3AB420AD9ED19D0
:1007F00008F1FF3280F02381AB4240F22081A8F162
:1008000002083D44ED1AA4B2B5FBFAF00AFB1055FC
:1008100044EA054400FB09F9A14509D9E41900F1AE
:10082000FF3380F00A81A14540F2078102383C4441
:10083000A4EB090440EA08400021002E61D024FA0C
:100840000EF4002334607360BDE8F0878B4207D953
:10085000002E54D0002186E821000846BDE8F0872C
:10086000B3FA83F1002940F08E80AB4202D382427A
:1008700000F2FA80841A65EB03050120AC46002ED5
:100880003FD086E81010BDE8F08712B90127B7FB0A
:10089000F2F7B7FA87FEBEF1000F34D1EB1B3A0C2A
:1008A0001FFA87FC0121B3FBF2F8250C02FB183379
:1008B00045EA03450CFB08F3AB4207D9ED1908F1F3
:1008C000FF3002D2AB4200F2D1808046ED1AA3B2D3
:1008D000B5FBF2F002FB105543EA05440CFB00FCAB
:1008E000A44507D9E41900F1FF3302D2A44500F270
:1008F000B8801846A4EB0C0440EA08409DE7314656
:100900003046BDE8F087CEF1200405FA0EF307FA71
:100910000EF720FA04F83A0C25FA04F448EA030822
:10092000B4FBF2F14FEA184502FB11441FFA87FCB1
:1009300045EA044501FB0CF3AB4200FA0EF409D979
:10094000ED1901F1FF3080F08A80AB4240F28780E0
:1009500002393D44EB1A1FFA88F5B3FBF2F002FBB3
:10096000103345EA034500FB0CF3AB4207D9ED1900
:1009700000F1FF386FD2AB426DD902383D44EB1A1B
:1009800040EA01418FE7C1F1200722FA07F88B40C6
:1009900005FA01F448EA030320FA07FE4FEA134C74
:1009A000FD404EEA040EB5FBFCF94FEA1E440CFB79
:1009B00019551FFA83F844EA054509FB08F4AC42CF
:1009C00002FA01F200FA01FA08D9ED1809F1FF3034
:1009D00043D2AC4241D9A9F102091D442D1B1FFA93
:1009E0008EFEB5FBFCF00CFB10554EEA054400FBF7
:1009F00008F8A04507D9E41800F1FF3529D2A04531
:100A000027D902381C4440EA0940A4EB0804A0FBA3
:100A100002894C45C6464D4615D312D056B1BAEBA5
:100A20000E0364EB050404FA07F7CB401F43CC40E8
:100A3000376074600021BDE8F0871846F8E69046FC
:100A4000E0E6C245EAD2B8EB020E69EB03050138D5
:100A5000E4E72846D7E7404691E78146BEE70146EE
:100A600078E702383C4445E7084608E7A8F1020861
:100A70003D442BE7704700BF844641EA000313F072
:100A800003036DD1403A41D351F8043B40F8043B95
:100A900051F8043B40F8043B51F8043B40F8043B58
:100AA00051F8043B40F8043B51F8043B40F8043B48
:100AB00051F8043B40F8043B51F8043B40F8043B38
:100AC00051F8043B40F8043B51F8043B40F8043B28
:100AD00051F8043B40F8043B51F8043B40F8043B18
:100AE00051F8043B40F8043B51F8043B40F8043B08
:100AF00051F8043B40F8043B51F8043B40F8043BF8
:100B000051F8043B40F8043B403ABDD2303211D397
:100B100051F8043B40F8043B51F8043B40F8043BD7
:100B200051F8043B40F8043B51F8043B40F8043BC7
:100B3000103AEDD20C3205D351F8043B40F8043B97
:100B4000043AF9D2043208D0D2071CBF11F8013B95
:100B500000F8013B01D30B8803806046704700BF5B
:100B6000082A13D38B078DD010F003038AD0C3F16A
:100B70000403D21ADB071CBF11F8013B00F8013B4C
:100B800080D331F8023B20F8023B7BE7043AD9D30B
:100B9000013A11F8013B00F8013BF9D20B780370E0
:100BA0004B7843708B78837060467047000000007C
:100BB0000000000000000000000000000000000035
:100BC00090F800F06DE9024520F007016FF0000C8D
:100BD00010F0070491F820F040F049804FF0000435
:100BE0006FF00700D1E9002391F840F000F1080010
:100BF00082FA4CF2A4FA8CF283FA4CF3A2FA8CF348
:100C00004BBBD1E9022382FA4CF200F10800A4FAAE
:100C10008CF283FA4CF3A2FA8CF3E3B9D1E9042302
:100C200082FA4CF200F10800A4FA8CF283FA4CF339
:100C3000A2FA8CF37BB9D1E9062301F1200182FAF3
:100C40004CF200F10800A4FA8CF283FA4CF3A2FAF9
:100C50008CF3002BC6D0002A04BF04301A4612BA07
:100C6000B2FA82F2FDE8024500EBD2007047D1E90A
:100C7000002304F00305C4F100004FEAC50514F099
:100C8000040F91F840F00CFA05F562EA05021CBF6A
:100C900063EA050362464FF00004A9E70000000084
:100CA00001F0FF01102A2BDB10F0070F08D010F81D
:100CB000013B013A8B422DD010F0070F42B3F6D121
:100CC000F0B441EA012141EA014122F007047FF03A
:100CD00000070023F0E80256083C85EA010586EA91
:100CE000010685FA47F5A3FA87F586FA47F6A5FACD
:100CF00087F68EB9EED1F0BC01F0FF0102F00702D9
:100D000032B110F8013B013A83EA010313B1F8D183
:100D10000020704701387047002D06BF3546033864
:100D2000073815F0010F07D1013015F4807F02BF9D
:100D3000013015F4C03F0130F0BC0138704700BFEE
:100D400080B58CB00AAF07F0FFF900F0F1FD07F0B5
:100D500095F806F0BBFF06F097FFFFF70BFBBB1DF6
:100D6000184602F02DFB00F0D7FB00F0B9FB104B4A
:100D7000D3F8CC30BA1D08920322079200220692C3
:100D800000220592002204924FF400720392029313
:100D9000074B0193072300930023064A064907489F
:100DA00004F02CFFBB1D184602F054FDFEE700BF07
:100DB000380B0020610E0008C0510208640A0020B0
:100DC00080B58AB000AF3B1D194616480CF01AFEDC
:100DD000034687F827307B68012B08D0012B02D30C
:100DE000032B08D00BE010481FF010F80BE00F4861
:100DF0001FF00CF807E00E481FF008F803E00D485C
:100E00001FF004F800BF7B69BA6902FB03F31B0DF6
:100E1000194609481EF08EFF97F8273018462837E4
:100E2000BD4680BDC84D0020D0510208E8510208DF
:100E3000045202081C5202083052020880B582B0E7
:100E400000AF78600B46FB70FB78194603481EF034
:100E500071FF00BF0837BD4680BD00BF4852020881
:100E600080B584B000AF786000F00AFC094801F05A
:100E700097F807F10E03184604F028FC07F036F83F
:100E800000F00AF807F10E031946002004F0CCFF29
:100E9000F8E700BF0000002080B58CB00AAF454BDA
:100EA000D3F8CC30BA1D0892032207920022069292
:100EB00000220592002204924FF4007203920293E2
:100EC0003C4B01930D23009300233B4A3B493C4894
:100ED00004F094FE3B4BD3F8CC30BA1D08920322A9
:100EE00007920022069200220592002204924FF4FB
:100EF000007203920293334B01930E23009300235D
:100F0000314A3249324804F079FE324BD3F8CC30C2
:100F1000BA1D08920322079200220692002205922F
:100F2000002204924FF4007203920293294B019322
:100F30000F2300930023284A2849294804F05EFE25
:100F4000284BD3F8CC30BA1D089203220792002216
:100F5000069200220592002204924FF4007203923E
:100F60000293204B01931023009300231E4A1F4934
:100F70001F4804F043FE1F4BD3F8CC30BA1D089233
:100F80000322079200220692002205920022049278
:100F90004FF4007203920293164B01930A230093BD
:100FA0000023154A1549164804F028FE00BF0837EB
:100FB000BD4680BDD82000200910000870520208EC
:100FC000D8300020343B00207511000888520208F8
:100FD000A01F0020B43100204D120008A0520208CA
:100FE0005C3A0020A0170020E1120008B852020865
:100FF000FC470020D8280020B5130008D052020872
:10100000D04800200000000080B584B000AF7860B8
:1010100016F096FD04224A494A4807F013F907F1F1
:101020000E0300220021642005F0BAF8FB89002B92
:10103000F5D176E0444B1B78032B5BD801A252F824
:1010400023F000BF55100008651000087510000857
:10105000851000083A4B5B881A463C493C481EF014
:101060003BFF48E0364B9B881A463A4938481EF009
:1010700033FF40E0324BDB881A46374934481EF0D4
:101080002BFF38E02E4B1B881A46344B1A60334B2B
:101090001B6807EE903AB8EE677ADFED316AC7EE6B
:1010A000267A9FED307A67EE877A2F4BC3ED007A70
:1010B0002D4BD3ED007AB7EEE77A9FED1F6B37EE3D
:1010C000466BB0EE045B86EE057BB3EE096B37EE44
:1010D000067BF7EEC77B244BC3ED007A224BD3EDA2
:1010E000007AB7EEE77A53EC172B204918481EF028
:1010F000F3FE00E000BF144B1B781A46642303FB89
:1011000002F31A464FF4C871114816F001FA10495B
:1011100017481EF00FFE0C4B1B780133DAB20A4B56
:101120001A70094B1B78032B84D9074B00221A70C5
:1011300075E700BFAFF300800000000000C08740EB
:10114000AC310020A449002038130020E8520208E6
:101150003C130020F4520208005302087C130020C4
:1011600000F07F4500404E45801300200C530208DC
:101170001453020890B587B002AF786016F0E0FC17
:1011800007F10E03019300230093294B00224FF433
:101190007A71284803F026FE0246274B1A60FB8925
:1011A000002BEDD1244B1B68234A1268126822F0F1
:1011B00040421A60204B1B681B684FEAE3741F4AC9
:1011C000C2E900341C4B1B6804331B6819464FEA04
:1011D000E1721A4BD3E900345B1844EB0204174A5E
:1011E000C2E90034144B1C68144BD3E900014FF4DE
:1011F0007A724FF00003FFF7B7FA02460B46134628
:1012000023600D4B1B681B680D4A0F210D481EF013
:1012100017FE4FF4C8724FF4C8710A4816F078F9F7
:10122000034B1B881A46074907481EF083FDA7E7B2
:101230008413002074200020303B002088130020FD
:101240001C530208901300202853020880B586B072
:1012500002AF786007F10E0300220021642004F041
:101260009FFFFB89002BF5D115F0E4FA01F016FF82
:10127000174B1B7F002BEDD0154B1B7F03F01F037B
:10128000DAB2134B1A77134B1B780133DAB2114BD6
:101290001A700F4B1B7F5B08DAB20D4B1A770C4BA1
:1012A0001B7F03F00103002BEDD10A4B1A78084B8A
:1012B0001A7707F10E0300934FF4007301220649D9
:1012C000064803F08DFE034B00221A70C2E700BFF0
:1012D00020000020D013002028000020A42000209F
:1012E00080B586B002AF786007F1080207F10A0303
:1012F000019300230093134600224FF47A7127488C
:1013000003F070FD0246264B1A607B89002BEBD15F
:10131000234B1B6814331B781A463B89214922480A
:101320001EF0DAFD204921481EF004FD6422002150
:101330001D4816F0EDF80023FB6026E0184B1B68F3
:1013400014331B781946164B1A68FB685B0013446C
:101350001B881846124B1A68FB6805335B00134460
:101360001B88009303460A4611490F481EF0B4FD3E
:101370004FF4C87200210C4816F0CAF80A490B480D
:101380001EF0D8FCFB680133FB60054B1B6814336F
:101390001B781A46FB689A42D0DCA5E7A4200020FF
:1013A000D420002044530208D41300201453020810
:1013B0005C53020880B592B002AF78603C4A3C4B67
:1013C0001B6B43F480531363394B1B6B03F4805343
:1013D000FB60FB6816F0B4FB01223649364810F07A
:1013E0001FFA3649344810F09FFA334810F091FB49
:1013F000334815F02FFF16F067FB16F0C9FA314895
:1014000016F0BEFA304B1B681A462F4B1B68013B87
:10141000009300230021002015F0AEF92A4B5B68F1
:101420001A46294B5B68013B0093002300210120F1
:1014300015F0A2F964226421244816F069F807F136
:101440001003184615F02CFDFA21002016F03EF886
:101450001F4816F071F83B695A1C3A61042118467E
:1014600015F0B1F81B4816F067F87B69042118469F
:1014700015F0A9F800F0D0FCF86307F11C03FA6B33
:10148000154918461EF028FD07F11C03194613489C
:101490001EF050FCFFF794FC074810F04BFB0023B4
:1014A000FB6300BFFB6B5A1CFA63002BFAD1C6E743
:1014B000003802403D0E0008344300204400002064
:1014C000CCE8CF00D07C020800000020785302084E
:1014D000885302088C530208905302089453020860
:1014E00080B582B000AFBB1D05220749074803F055
:1014F00025FCBB1D05220649064803F01FFC00BF62
:101500000837BD4680BD00BFA8530208A4200020B4
:10151000C05302087420002080B582B000AF0023C1
:101520007B60FEF72BFF786006F02CFD0E4B0F4A18
:101530001A600F4B0F4A1A600F4B104A1A60104B7B
:10154000104A1A60104B114A1A60114B114A1A6066
:10155000114B124A1A6006F035FD7868FEF712FF4B
:1015600000BF0837BD4680BD9C600020A115000863
:10157000BC600020AF150008A05D0020BD1500086C
:10158000945E0020D1150008045C0020E5150008D9
:10159000A8600020F9150008985E002007160008D2
:1015A00080B400AF00BFBD465DF8047B704780B4D7
:1015B00000AF00BFBD465DF8047B704780B483B0C8
:1015C00000AF786000BF0C37BD465DF8047B704704
:1015D00080B483B000AF786000BF0C37BD465DF8C3
:1015E000047B704780B483B000AF786000BF0C37D5
:1015F000BD465DF8047B704780B400AF00BFBD46B8
:101600005DF8047B704780B400AF00BFBD465DF855
:10161000047B704780B586B000AF164A154B1B6B34
:1016200043F080031363134B1B6B03F080033B6099
:101630003B680C237B60104BBB600123FB600323E2
:101640003B613B1D19460D4807F0D6FE082007F008
:101650005BFA01220521082007F03AFA092007F079
:1016600053FA01220521092007F032FA00BF18378A
:10167000BD4680BD0038024000002110001C024021
:1016800080B500AF00F064FC00F0F0F901F080FDDF
:1016900000F0B0FEFFF7BEFF084B1B68984700F054
:1016A0005FFA00F021FE00F0EBFF01F021F801F0FD
:1016B0005FF800F033F800BF80BD00BF20000020BD
:1016C00080B500AF01F05EFF042008F071F801F072
:1016D00075FF00BF80BD80B500AF01F053FF08204B
:1016E00008F066F801F06AFF00BF80BD80B582B0E7
:1016F00000AF0346FB80FB88042B02D0082B04D0EC
:1017000007E0002000F004FA03E0002000F0D8F920
:1017100000BF00BF0837BD4680BD000080B586B061
:1017200000AF354A344B5B6C43F480735364324BE7
:101730005B6C03F480737B607B68304B304A1A60CB
:101740002E4B4FF440325A602C4B00229A602B4BA8
:1017500001221A61294B00229A61284B00221A6249
:10176000264B0022DA60254B0422DA61234B01224A
:101770001A63224B00225A61204B4FF030629A626A
:101780001E4B4FF08052DA621C4806F017FD1D4BCD
:10179000BB600123FB6007233B6107F10803194687
:1017A000164806F033FE0423BB600223FB600723C8
:1017B0003B6107F108031946104806F027FE052390
:1017C000BB600323FB6007233B6107F10803194655
:1017D0000A4806F01BFE0623BB600423FB600723B8
:1017E0003B6107F108031946044806F00FFE00BFED
:1017F0001837BD4680BD00BF00380240A449002014
:10180000002001401200001080B58AB000AF78605F
:101810007B681B682F4A934258D12F4A2E4B1B6B73
:1018200043F0010313632C4B1B6B03F001033B617B
:101830003B69294A284B1B6B43F480031363264BF7
:101840001B6B03F48003FB60FB680323BB61002375
:10185000FB6102233B6270237B6107F1140319468D
:101860001E4807F0C9FD1E4B1E4A1A601C4B002281
:101870005A601B4B00229A60194B0022DA60184B09
:101880004FF480621A61164B4FF400625A61144B98
:101890004FF400529A61124B4FF48072DA61104B90
:1018A00000221A620E4B00225A620D4807F0B2F96C
:1018B000382007F029F902220021382007F008F922
:1018C000094B074A9A63064B074A9A6300BF2837B9
:1018D000BD4680BD002001400038024000000240AB
:1018E000EC49002010640240A449002080B582B079
:1018F00000AF78607B681B68054A934204D1054AB3
:101900000021054804F04EFD00BF0837BD4680BDEC
:101910000020014014140020D830002080B500AF12
:10192000024807F085FA00BF80BD00BFEC490020E7
:1019300080B584B000AF334A324B1B6C43F0805308
:101940001364304B1B6C03F08053BB60BB682E4AA2
:101950002D4B1B6843F4404313602B4B1B6803F46F
:1019600040437B607B68294B01221A60274B4FF470
:1019700080325A60254B0022DA60244B02229A61A1
:10198000224B4FF48002DA61204B19221A621F4B5E
:101990004FF4D8725A621D4B02229A621B4B0922E5
:1019A000DA621A480AF0ACF90346FB73FB7B002BA2
:1019B00000D0FEE70AF054F90346FB73FB7B002BD3
:1019C00000D0FEE7124B0F221A60114B02225A6020
:1019D0000F4B00229A600E4B4FF4A052DA600C4B72
:1019E0004FF480521A61072109480AF03FFC034670
:1019F000FB73FB7B002B00D0FEE700BF1037BD461A
:101A000080BD00BF00380240007000401814002064
:101A10004C14002080B584B000AF0346FB71FB7905
:101A2000032B1BD801A252F823F000BF3D1A000877
:101A3000451A00084D1A0008551A00080AF014FD4E
:101A4000F8600EE00AF08EFDF8600AE00AF096FDFC
:101A5000F86006E00AF0B4FDF86002E00123FB60E4
:101A600000BFFB6818461037BD4680BD80B586B004
:101A700000AF114A104B1B6B43F0020313630E4B74
:101A80001B6B03F002033B603B6803237B60012375
:101A9000BB600123FB6003233B613B1D19460748E4
:101AA00007F0AAFC002000F00BF8012000F008F875
:101AB00000BF1837BD4680BD003802400004024018
:101AC00080B582B000AF0346FB71FB79002B02D0DA
:101AD000012B06D00BE0012201210C4807F04EFE3D
:101AE00010E001220221094807F048FE0AE0012225
:101AF0000121064807F042FE01220221034807F0B7
:101B00003DFE00BF00BF0837BD4680BD0004024057
:101B100080B582B000AF0346FB71FB79002B02D089
:101B2000012B06D00BE0002201210C4807F026FE15
:101B300010E000220221094807F020FE0AE00022FE
:101B40000121064807F01AFE00220221034807F08F
:101B500015FE00BF00BF0837BD4680BD000402402F
:101B600080B588B000AF00F003F9414B414A1A60DC
:101B70003F4B4FF480725A603D4B00229A603C4BC1
:101B80000022DA603A4B00221A61394B4FF40032DE
:101B90005A61374B0A229A61354B0A22DA610A23CD
:101BA0003B610A237B610A23BB610A23FB610A2391
:101BB0003B600A237B600A23BB600A23FB603A4632
:101BC00007F1100319462A480AF008F800F0AEF9A8
:101BD000642000F06BFF00F01FF90246264B1A61EB
:101BE000254B1B69194625481EF0A4F8042000F077
:101BF000E7F8214B1B69224A934216D11E4B4FF442
:101C000087521A801C4B4FF480525A801A4BE022A4
:101C10009A80194B80229A71174B4FF400621A81F7
:101C2000154B4FF480525A811DE0134B1B69154A26
:101C3000934216D1104B4FF404621A800E4B4FF4AE
:101C400000625A800C4B40229A800B4B40229A71C2
:101C5000094B4FF400621A81074B4FF480525A81AE
:101C600001E0012300E0002318462037BD4680BD77
:101C70004C4A0020800000A08C4A0020E05302085B
:101C800089260048569590DC80B58CB000AF78600E
:101C9000334A334B9B6B43F001039363304B9B6B95
:101CA00003F00103BB61BB692D4A2D4B1B6B43F055
:101CB000080313632A4B1B6B03F008037B617B69EA
:101CC000274A274B1B6B43F010031363244B1B6BFA
:101CD00003F010033B613B69214A214B1B6B43F02E
:101CE000400313631E4B1B6B03F04003FB60FB6858
:101CF0004023FB6100233B6201237B620323BB6221
:101D000007F11C031946174807F076FB4FF40073E0
:101D1000FB6102233B6200237B620323BB620C2333
:101D2000FB6207F11C0319460F4807F065FB4DF6EF
:101D30003303FB6100237B6207F11C03194609484A
:101D400007F05AFB4FF4F063FB6107F11C031946DF
:101D5000064807F051FB00BF3037BD4680BD00BFCD
:101D600000380240000C02400018024000100240FF
:101D700080B584B000AF06F0D5FE01233B7003238D
:101D80007B704FF000437B601B233B7200237B7210
:101D90000023BB720323FB7200233B7300237B737E
:101DA0000023BB730123FB733B46184606F0EEFE8F
:101DB000042006F0CDFE00BF1037BD4680BD0000F8
:101DC00080B582B000AF0346FB71114BEF221A7051
:101DD000104B01221A704FF00042FB7913704FF044
:101DE000004300221A704FF0004300221A704FF097
:101DF000004300221A7000F077F80346402B01D10F
:101E0000002300E0012318460837BD4680BD00BF0F
:101E1000000001800000028080B485B000AF184B44
:101E200090221A70174B00221A704FF000431B7853
:101E3000DBB23B714FF000431B78DBB27B714FF09C
:101E400000431B78DBB2BB714FF000431B78DBB261
:101E5000FB714FF000431B78DBB23B727B791A06B3
:101E6000BB791B041A43FB791B0213433A7A1343D1
:101E7000FB60FB6818461437BD465DF8047B70476D
:101E8000000001800000028080B483B000AF002316
:101E9000FB71144B70221A70FB79DBB20133DBB299
:101EA000FB71FB79DBB20133DBB2FB71FB79DBB297
:101EB0000133DBB2FB71FB79DBB20133DBB2FB71C7
:101EC000FB79DBB20133DBB2FB714FF000431B78CF
:101ED000DBB2FB71FB79DBB218460C37BD465DF80F
:101EE000047B70470000018080B582B000AF002302
:101EF000FB7100233B60FFF7C7FF0346FB71FB79D3
:101F000003F04003002B08D13B6801333B603B6882
:101F1000054A9342EFD9022301E000BF402318464F
:101F20000837BD4680BD00BFFEFF010080B500AF91
:101F3000064BFF221A70FFF7D7FF0346402B01D153
:101F4000002300E00123184680BD00BF000001808F
:101F500080B582B000AF0120FFF75CFD7860786843
:101F600005F054FE00BF0837BD4680BD80B582B085
:101F700000AF7860002006F0A0FD00231846083767
:101F8000BD4680BD80B582B000AFBB1C184605F0D1
:101F9000FDF978607B6818460837BD4680BD0000B3
:101FA00080B5B6B000AF78607A4A7A4B5B6C43F08C
:101FB00080635364774B5B6C03F08063FB60FB686A
:101FC00008237B644FF4C673BB6503233B664FF461
:101FD00080333B6707F1440318460AF013FB0346BE
:101FE000C7F8D430D7F8D430002B40F0C5806A4B06
:101FF0006A4A1A60684B00225A60674B00229A6056
:10200000654B0022DA60644B00221A617B689B6892
:10201000013B614A53617B68DB68013B5E4A936127
:102020007B689A687B681B691344013B5A4AD361F9
:102030007B68DA687B685B691344013B564A13622C
:102040007B689A687B681B691A447B681B68134429
:10205000013B514A53627B68DA687B685B691A44CA
:102060007B685B681344013B4B4A93627B689A68C8
:102070007B681B691A447B681B681A447B689B69F0
:102080001344013B444AD3627B68DA687B685B692E
:102090001A447B685B681A447B68DB691344013B24
:1020A0003D4A13633C4B002283F836203A4B002212
:1020B00083F83520384B002283F83420364808F066
:1020C00075FF0346C7F8D430D7F8D430002B55D16C
:1020D00000233B610023BB617B681B687B617B68DD
:1020E0005B68FB6102233B62FF237B620023BB62D0
:1020F0004FF4C063FB624FF4E0633B634FF0404337
:102100007B637B681B68BB637B685B68FB63002346
:1021100087F84230002387F84130002387F84030A9
:1021200007F11003002219461B4809F0DBF80346AB
:10213000C7F8D430D7F8D430002B21D100230022A7
:102140000021154809F0BFFA0346C7F8D430D7F884
:10215000D430002B16D17B6819687B685A6800233D
:102160000D4809F064FA0346C7F8D4300122202153
:102170000B4807F003FB06E000BF04E000BF02E0ED
:1021800000BF00E000BFD7F8D4301846D837BD46AE
:1021900080BD00BF00380240B43900200068014013
:1021A0000004024080B58EB000AF7860484A484BCA
:1021B0005B6C43F080635364454B5B6C03F080635E
:1021C0003B623B6A424A424B1B6B43F4000313637E
:1021D0003F4B1B6B03F40003FB61FB693C4A3C4B28
:1021E0001B6B43F002031363394B1B6B03F00203B9
:1021F000BB61BB69364A364B1B6B43F0200313634C
:10220000334B1B6B03F020037B617B69304A304BFF
:102210001B6B43F0400313632D4B1B6B03F0400318
:102220003B613B692A4A2A4B1B6B43F080031363D3
:10223000274B1B6B03F08003FB60FB68244A244B95
:102240001B6B43F480731363214B1B6B03F480738C
:10225000BB60BB6820237B620123BB620123FB625E
:1022600003233B6307F1240319461A4807F0C4F817
:102270004FF480637B620223BB620023FB62032373
:102280003B630E237B6307F124031946124807F0D2
:10229000B3F84FF40C637B6207F1240319460F482F
:1022A00007F0AAF84FF47E437B6207F12403194636
:1022B0000B4807F0A1F840F2F7637B6207F12403B3
:1022C0001946084807F098F800BF3837BD4680BD6A
:1022D000003802400004024000140240001802408E
:1022E000001C02400020024080B582B000AF184AB6
:1022F000174B5B6C43F400635364154B5B6C03F446
:1023000000633B603B68134B134A1A60114B002279
:102310005A60104B00229A600E4B0022DA600D4B7F
:102320004FF400621A610B4B00225A61094B0022E4
:102330009A6108480BF0ACF80346FB71FB79002B5F
:1023400001D0012300E0002318460837BD4680BDB8
:1023500000380240C84D0020002C014080B58AB0F2
:1023600000AF7860204A204B1B6B43F4800313635B
:102370001D4B1B6B03F480033B613B691A4A1A4BEC
:102380001B6B43F004031363174B1B6B03F0040335
:10239000FB60FB68144A144B1B6B43F00803136388
:1023A000114B1B6B03F00803BB60BB684FF4F85381
:1023B0007B610223BB610123FB6103233B620C238E
:1023C0007B6207F114031946084807F015F8042347
:1023D0007B6107F114031946054807F00DF800BFAB
:1023E0002837BD4680BD00BF0038024000080240CB
:1023F000000C024080B500AF214B224A1A60204BEE
:1024000000225A601E4B01229A601D4B0822DA609E
:102410001B4B10221A611A4B40225A61184B4FF481
:10242000C0729A61164B0022DA61154B4FF40062BC
:102430001A62134B4FF480525A62114B4FF4005200
:102440009A62114B02221A600F4B08225A600E4BFF
:1024500006229A600C4B0622DA600B4B02221A61AC
:10246000094B02225A61084B02229A61064904482C
:102470000BF065FC024800F009F800BF80BD00BF0A
:102480004C4E0020400100A0804E002080B584B05A
:1024900000AF78600023FB600023012201210020AF
:1024A00000F0B6F84FF47A7000F00BFB0023012225
:1024B0000221002000F0ACF80023082203210020B4
:1024C00000F0A6F84FF40C73FB60FB689BB201228E
:1024D0000421002000F09CF840F2373103480BF053
:1024E0008DFC00BF1037BD4680BD00BF4C4E0020A4
:1024F00080B58EB000AF78603F4A3F4B9B6B43F096
:10250000010393633C4B9B6B03F001033B623B6A0B
:10251000394A394B1B6B43F004031363364B1B6B77
:1025200003F00403FB61FB69334A334B1B6B43F03D
:1025300008031363304B1B6B03F00803BB61BB69DB
:102540002D4A2D4B1B6B43F0100313632A4B1B6B5F
:1025500003F010037B617B69274A274B1B6B43F019
:1025600020031363244B1B6B03F020033B613B6987
:10257000214A214B1B6B43F0400313631E4B1B6B23
:1025800003F04003FB60FB680D237B620223BB6208
:102590000123FB6203233B630C237B6307F12403CA
:1025A0001946164806F028FF4CF203737B6207F1C8
:1025B00024031946124806F01FFF4FF683737B620F
:1025C00007F1240319460F4806F016FF4FF63F03A4
:1025D0007B6207F1240319460B4806F00DFF48F211
:1025E00037137B6207F124031946084806F004FFFD
:1025F00000BF3837BD4680BD0038024000080240A9
:10260000000C02400010024000140240001802407A
:1026100090B589B000AF0446084611461A462346D5
:10262000FB710346BB710B467B7113467B80002315
:10263000FB61FB79002B02D11023FB6104E0FB79E5
:10264000012B01D10823FB61BB79FB60FB693B6176
:102650007B797B617B88BB6107F10C034FF480526F
:10266000194606480BF09FFB0346002B01D10023BF
:1026700000E0012318462437BD4690BD4C4E002093
:1026800080B582B000AF174A164B1B6C43F00103B4
:102690001364144B1B6C03F001037B607B68124BCB
:1026A0004FF080421A60104B40F2CF72DA600E4B4E
:1026B0004DF2EF225A600C4B00229A600A480BF050
:1026C000BDFB0A4B20221A60084B80229A60074902
:1026D00005480CF0EBFA04480BF0DBFB00BF0837B1
:1026E000BD4680BD003802404C4F0020B84E00204F
:1026F00080B582B000AF1A4A194B1B6C43F002033D
:102700001364174B1B6C03F002037B607B68154B53
:10271000154A1A60134B40F2CF72DA60114B4DF23A
:10272000EF225A600F4B00229A600E480BF0CCFB50
:102730000E4B60221A600D4B40F2E7325A600B4B91
:1027400000229A600C22094906480CF017FB0C2164
:1027500004480BF0E5FB00BF0837BD4680BD00BF55
:10276000003802400C4F0020000400409C4E002026
:1027700080B582B000AF1C4A1B4B1B6C43F00803B2
:102780001364194B1B6C03F008037B607B68174BC9
:10279000174A1A60154B6B225A60144B00229A603C
:1027A000124B4FF0FF32DA60104B00221A610F48D3
:1027B0000BF0EAFB0F4B00221A600E4B00229A60CE
:1027C0000C4B0022DA600B4B01225A6000220949AF
:1027D00006480BF084FD002104480BF001FC00BF0B
:1027E0000837BD4680BD00BF00380240CC4E0020F7
:1027F000000C00406014002080B588B000AF786005
:102800007B681B68114A93421BD1114A104B1B6B0A
:1028100043F0020313630E4B1B6B03F00203BB6018
:10282000BB680223FB6002233B6101237B6103231E
:10283000BB610223FB6107F10C031946054806F052
:10284000DBFD00BF2037BD4680BD00BF0004004057
:10285000003802400004024080B584B000AF7860C8
:102860007B681B68B3F1804F14D1194A184B1B6C5D
:1028700043F001031364164B1B6C03F00103FB6070
:10288000FB681C2006F040F9022200211C2006F003
:102890001FF918E07B681B680E4A934213D10C4A5B
:1028A0000B4B1B6C43F002031364094B1B6C03F0CE
:1028B0000203BB60BB681D2006F026F9032200213D
:1028C0001D2006F005F900BF1037BD4680BD00BFD2
:1028D000003802400004004080B58AB000AF786044
:1028E0007B681B681B4A93422FD11B4A1A4B1B6CF7
:1028F00043F008031364184B1B6C03F008033B619F
:102900003B69322006F000F902220021322006F055
:10291000DFF8114A104B1B6B43F0010313630E4B9E
:102920001B6B03F00103FB60FB6801237B61022347
:10293000BB610223FB6103233B6202237B6207F13D
:1029400014031946054806F057FD00BF2837BD4659
:1029500080BD00BF000C0040003802400000024073
:1029600080B483B000AF78607B681B68094A9342EB
:102970000AD1094B1B6803F04003002B04D0064B1F
:102980001B680133044A136000BF0C37BD465DF875
:10299000047B7047000C0040C44E002080B500AF9F
:1029A00000F0F0FD03480BF07BFB00F007FE00BFDA
:1029B00080BD00BF4C4F002080B500AF02480BF037
:1029C0006FFB00BF80BD00BF0C4F002080B500AF83
:1029D00000F0D8FD03480BF063FB00F0EFFD00BFF3
:1029E00080BD00BFCC4E002080B584B002AF7860BF
:1029F0007B681B68294A93424BD1294B1B689B1764
:102A0000002B02D0012B2CD043E0254B4FF080420D
:102A10001A60234B00225A607B681B681A6A41F2D5
:102A200011131340002B0FD17B681B681A6A40F208
:102A300044431340002B07D17B681B687A681268F7
:102A4000126822F001021A607B681B6800225A6239
:102A50007B681B687A681268126842F001021A608B
:102A600017E00F4B1B6843F000430D4A1360002131
:102A700078680BF0D1FC03461A46094B5A60094BA3
:102A800000934FF4007301220549074802F0A8FAA9
:102A900000BF00BF0837BD4680BD00BF000C00402E
:102AA000C44E0020701400207420002080B582B035
:102AB00000AF7860786805F06BFB00BF0837BD4653
:102AC00080BD80B485B000AF78600023BB600BE0B0
:102AD0000023FB6002E0FB680133FB60FB68FE2B18
:102AE000F9D9BB680133BB60BA687B689A42EFD3FF
:102AF00000BF1437BD465DF8047B704780B500AF5A
:102B00000220FFF7DEFF00BF80BD000080B588B067
:102B100000AF194A184B1B6B43F080031363164B2D
:102B20001B6B03F08003BB60BB68134A124B1B6B2B
:102B300043F480731363104B1B6B03F480737B604F
:102B40007B684023FB6001233B6101237B610323FE
:102B5000BB6107F10C031946084806F04DFC082339
:102B6000FB6007F10C031946054806F045FC00BF61
:102B70002037BD4680BD00BF00380240001C024027
:102B80000020024080B500AF134A134B1B6823F0AE
:102B9000C0031360104A104B1B6843F040031360DE
:102BA000012208210C4806F0E9FD012240210B48D2
:102BB00006F0E4FD1E20FFF784FF002208210648EE
:102BC00006F0DCFDFFF79AFF00224021034806F0E3
:102BD000D5FD00BF80BD00BF00200240001C0240A8
:102BE00080B582B000AF0023FB711A4A194B1B68F5
:102BF00023F0C0031360174A164B1B6813600122B1
:102C00000821144806F0BAFD01224021124806F0BE
:102C1000B5FDFFF773FF0BE0FB790133FB71FB7927
:102C2000FA2B03D900F076F801230EE0FFF766FFD8
:102C30000821084806F08AFD0346002BECD100224B
:102C40004021054806F09AFD002318460837BD4686
:102C500080BD00BF00200240001C024080B500AFD4
:102C600000224021124806F089FD124A114B1B68D0
:102C700023F0C00313600F4A0E4B1B6843F0400360
:102C80001360FFF73BFF002208210A4806F076FD9B
:102C9000FFF734FF01224021054806F06FFDFFF7E2
:102CA0002DFF00224021024806F068FD00BF80BDD4
:102CB000001C02400020024080B500AF00224021ED
:102CC000124806F05BFD124A114B1B6823F0C0034B
:102CD00013600F4A0E4B1B6843F040031360FFF76D
:102CE0000DFF012208210A4806F048FDFFF706FF04
:102CF00001224021054806F041FDFFF7FFFE0022BA
:102D00004021024806F03AFD00BF80BD001C024091
:102D10000020024080B500AF104A104B1B6823F022
:102D2000C00313600D4A0D4B1B6843F04003136052
:102D3000012240210A4806F021FD1E20FFF7C1FEB6
:102D400000220821054806F019FDFFF7D7FE0122F1
:102D50000821024806F012FD00BF80BD002002409D
:102D6000001C024080B584B000AF0346FB71002315
:102D7000BB731E4A1D4B1B6823F0C00313601B4A24
:102D80001A4B1B6813601E20FFF79BFE0023FB738A
:102D90001BE000224021164806F0F0FCFFF7AEFED3
:102DA00001224021124806F0E9FCBB7B5B00BB73AB
:102DB00008210E4806F0CAFC0346002B02D0BB7B5C
:102DC0000133BB73FB7B0133FB73FB7B072BE0D928
:102DD000FB79002B02D1FFF76FFF01E0FFF73EFF09
:102DE000BB7B18461037BD4680BD00BF00200240A7
:102DF000001C024080B584B000AF0346FB71204A3E
:102E00001F4B1B6823F0C00313601D4A1C4B1B683B
:102E100043F040031360002240211A4806F0AEFC44
:102E2000FFF76CFE0023FB7322E097F90730002BBD
:102E300005DA01220821124806F0A0FC04E0002275
:102E400008210F4806F09AFCFB795B00FB71012218
:102E500040210C4806F092FCFFF750FE0022402172
:102E6000084806F08BFCFFF749FEFB7B0133FB7340
:102E7000FB7B072BD9D900BF1037BD4680BD00BFF3
:102E800000200240001C024080B584B000AF034621
:102E90003960FB8013467B710023BB73FFF772FE22
:102EA0007020FFF7A7FFFFF79BFEFB88DBB21846F9
:102EB000FFF7A0FFFFF794FE0023FB7310E0FB7BFE
:102EC0003A6813441B781846FFF794FFFFF788FE13
:102ED0000346BB73BB7B002B07D1FB7B0133FB732A
:102EE000FA7B7B799A42EAD300E000BFFFF712FF3A
:102EF000BB7B18461037BD4680BD90B585B000AF8E
:102F000003463960FB8013467B71FFF73BFE702060
:102F1000FFF770FFFFF764FEFB88DBB21846FFF790
:102F200069FFFFF75DFEFFF72DFE7120FFF762FFDF
:102F3000FFF756FE0023FB7312E0FB7B3A68D418C0
:102F4000FA7B7B79013B9A4214BF01230023DBB259
:102F50001846FFF707FF03462370FB7B0133FB7323
:102F6000FA7B7B799A42E8D3FFF7D4FE00BF14378F
:102F7000BD4690BD80B588B000AF444A434B1B6B43
:102F800043F080031363414B1B6B03F080037B60B2
:102F90007B683E4A3D4B1B6B43F4807313633B4B92
:102FA0001B6B03F480733B603B688023BB60384B32
:102FB000FB6001233B6103237B6107F10803194692
:102FC000344806F019FA172005F09EFD002205216D
:102FD000172005F07DFD4FF48073BB600123FB607B
:102FE00007F1080319462C4806F006FAFFF78EFD94
:102FF00000224FF48071284806F0C0FB1420FFF730
:1030000055FD01224FF48071234806F0B7FB3220B2
:10301000FFF74CFD00233B7707F11C030122194603
:103020000020FFF731FF07F11C0301221946A420FD
:10303000FFF72AFF16233B7707F11C0301221946ED
:103040008020FFF721FF0C233B7707F11C030122AF
:1030500019468820FFF718FF07F11C0302221946C2
:10306000A120FFF74AFF3B7F302B02D17B7F032B50
:1030700005D07B7F012B02D07B7F022B01D1002367
:1030800000E0012318462037BD4680BD00380240CD
:1030900000002110001C02400020024080B582B0D8
:1030A00000AF7B1D012219460220FFF726FF7B7926
:1030B00003F00F03002B4CD07B7903F00F03052B9B
:1030C00047DC7B7903F00F03FF2202FA03F3BB71A5
:1030D00097F90630DB435BB263F03F035BB2DAB2D1
:1030E0001E4B1A777B7903F00F03BB710023FB7132
:1030F0002BE0FB791A4A32F813303946042218467D
:10310000FFF7FBFEFB793A78120292B202F470628A
:1031100091B27A7892B20A4491B2104A08335B00B5
:1031200013440A465A80FB79BA78120292B202F42A
:10313000706291B2FA7892B20A4491B2074A0433AB
:1031400022F81310FB790133FB71FA79BB799A42AB
:10315000CFD3002318460837BD4680BD200000208D
:10316000A859020880B500AF00F00CFA054A00210A
:10317000054803F017F9054B80225A6100F01EFA4A
:1031800000BF80BD721400205C3A0020003C01406A
:1031900080B500AF124B134A1A60114B4FF4165210
:1031A0005A600F4B00229A600D4B0022DA600C4BE4
:1031B00000221A610A4B0C225A61094B00229A61C3
:1031C00007480BF0A5FF03461A46074B1A70064B3B
:1031D0001B780133DAB2044B1A7000BF80BD00BF08
:1031E0008C4F0020001001407414002080B58CB07A
:1031F00000AF78607B681B68394A934232D1394A04
:10320000384B1B6C43F400331364364B1B6C03F4D4
:103210000033BB61BB69334A324B1B6B43F0010384
:103220001363304B1B6B03F001037B617B69042349
:10323000FB6102233B6200237B620023BB62072306
:10324000FB6207F11C031946274806F0D5F808234E
:10325000FB610723FB6207F11C031946224806F0B5
:10326000CBF838E07B681B68204A934233D11D4A73
:103270001C4B5B6C43F0100353641A4B5B6C03F004
:1032800010033B613B69174A164B1B6B43F001036C
:103290001363144B1B6B03F00103FB60FB684FF4DB
:1032A0008063FB6102233B6200237B620023BB62DD
:1032B0000723FB6207F11C0319460B4806F09CF834
:1032C0004FF40073FB610723FB6207F11C031946EF
:1032D000054806F091F800BF3037BD4680BD00BFFD
:1032E000004400400038024000000240001001404D
:1032F00080B584B000AFF860B9607A607B689AB23C
:103300004FF6FF73B96804480BF053FF7B6818460B
:103310001037BD4680BD00BF8C4F002080B582B005
:1033200000AF154B1B687B607B6803F00103002B2B
:1033300007D07B6803F00203002B02D00F4B104A2A
:103340001A600120FEF766FB38600E4A0D4B1B68C1
:1033500043F0807313600C4B00221A600B4A0B4B36
:103360001B6843F001031360386804F0AFFD00BF31
:103370000837BD4680BD00BFB41F00E0B01F00E0AD
:1033800055CEACC5FCED00E0041000E0001000E0FC
:1033900080B483B000AF054B1B687B607B68184628
:1033A0000C37BD465DF8047B704700BF041000E099
:1033B00080B400AF00BFBD465DF8047B70470000DD
:1033C00080B584B000AF786004F0A4F9534B0022BC
:1033D0001A70534B00221A70524B00221A70524B33
:1033E00000221A60514B00221A60514B00221A70C1
:1033F000504B00221A70504B1B68FB60FB68002B7F
:103400000FD04E4B1B68BB6008E0BB68013BBB6044
:10341000FB6800221A60FB680433FB60BB68002B6A
:10342000F3D1474B00221A60464B00221A60464BEC
:1034300000221A60454B00221A60454B00221A6098
:10344000444B00221A60444B00221A60434B002276
:103450001A7001F0F7FB00F0BDFC414B00221A602E
:10346000404B00221A80786800F004FF7B681B88BC
:10347000002B43D1786800F015FF7B681B88002B78
:103480003ED1394B00221A60384B00221A80384B4B
:1034900000221A60374B00221A80374B00221A6034
:1034A000364B00221A80786803F0E8F97B681B88A5
:1034B000002B27D1786800F053FA7B681B88002B1B
:1034C00022D1786803F0C0FB7B681B88002B1DD1DC
:1034D000786802F029FB7B681B88002B18D178687C
:1034E00003F0A4FF7B681B88002B13D100F0B0FD14
:1034F000FFF75EFF224B01221A700CE000BF0AE0CA
:1035000000BF08E000BF06E000BF04E000BF02E02B
:1035100000BF00E000BF1037BD4680BDA45E0020A4
:10352000115C0020005C0020805E0020885E00208E
:10353000A45D0020985D0020C0590208C45902080B
:10354000A05D0020945E0020045C00209C600020B0
:10355000BC600020A8600020985E0020105C002065
:10356000C4600020C0600020B8610020CC60002052
:103570005C600020845E00209C5D00206060002074
:10358000945D002080B400AF0A4B1B78012B0AD158
:10359000094B1B78F92B08D8074B1B780133DAB29B
:1035A000054B1A7002E000BF00E000BFBD465DF8A9
:1035B000047B7047115C0020A45E002080B582B0BF
:1035C00000AF00237B602B4B1B78012B4ED1FCF707
:1035D000D5FE7860284B1B78002B03D17868FCF768
:1035E000D1FE44E0244B1B78013BDAB2224B1A7027
:1035F000214B1B78002B03D07868FCF7C3FE36E024
:103600001E4B1B78002B03D07868FCF7BBFE2EE026
:1036100001F032FB03461A46194B1A70184B1B78FF
:103620001946184A0B465B000B449B0013441B6869
:10363000154A1360144B1A68144B1B689A4203D145
:103640007868FCF79FFE12E00F4B1B68D3F8A020B0
:103650000132C3F8A0200E4B1B6801330C4A1360E3
:10366000FCF755FE7868FCF78DFE00E000BF0837D8
:10367000BD4680BD115C0020A45E0020005C0020DF
:10368000985D0020145C0020885E0020805E002091
:10369000A05E002080B582B000AF00237B60204B8D
:1036A0001B78002B36D11F4B1B78002B34D1FCF735
:1036B00065FE786001F0E0FA03461A461A4B1A706C
:1036C000194B1B781946194A0B465B000B449B00AB
:1036D00013441B68164A1360154B1A68154B1B6878
:1036E0009A4203D17868FCF74DFE16E0104B1B6838
:1036F000D3F8A0200132C3F8A0200F4B1B68013380
:103700000D4A1360FCF7FEFD7868FCF73BFEBFF343
:103710006F8F02E000BF00E000BF0837BD4680BDEC
:10372000A45E0020005C0020985D0020145C002056
:10373000885E0020805E0020A05E002080B584B0FE
:1037400000AF78600023FB60184B1B78002B04D07F
:103750007B6846F662521A8024E0154B1B78012BD9
:1037600004D07B6845F689621A801BE0114B1B78F8
:10377000F92B04D97B6845F209221A8012E0FCF784
:10378000FDFDF86004F0FEFB0A4B1B780133DAB252
:10379000084B1A7004F016FCF868FCF7F3FD7B6820
:1037A00000221A801037BD4680BD00BFA45E0020F5
:1037B000115C0020005C002080B584B000AF786010
:1037C0000023FB60204B1B78002B04D07B6846F65F
:1037D00065521A8034E01D4B1B78012B04D07B68A6
:1037E00045F689621A802BE0194B1B78002B04D117
:1037F0007B6846F664521A8022E0FCF7BFFDF86051
:1038000004F0C0FB124B1B78013BDAB2104B1A706C
:103810000F4B1B78002B09D004F0D4FBF868FCF7A1
:10382000B1FD7B6846F663521A8009E004F0CAFBDA
:10383000F868FCF7A7FDFFF72DFF7B6800221A80D0
:103840001037BD4680BD00BFA45E0020115C002083
:10385000005C002080B584B000AF7860274B1B78F7
:10386000012B04D07B6845F68B621A8043E000236D
:10387000FB81FB890133FB81FB890133FB81FB89E0
:103880000133FB81FB890133FB811D4B1B88FA89C6
:103890009A4204D37B6845F68C621A802BE0194B60
:1038A0001B78002B23D101F0E7F903461A46164B8B
:1038B0001A70154B1A78154B1A70134B1B78194652
:1038C000134A0B465B000B449B0013441B68114AD0
:1038D0001360104B1B68104A13600A4B01221A70C8
:1038E000FCF7D3FC7B6843F699221A8003E07B68DF
:1038F00045F68A621A801037BD4680BD945D00206F
:10390000A65E0020115C0020985D0020A45D0020D0
:10391000145C0020885E0020805E002080B584B0AA
:1039200000AF78600023FB60FCF728FDF86004F02E
:1039300029FB094B1B680133074A1360074B1B68BF
:103940000133064A136004F03DFBF868FCF71AFDEA
:1039500003F0D2FEE8E700BFB46000200C5C00205A
:1039600080B58CB00AAF7860104B00221A60104B03
:103970001B68104A126810490968786808900B2083
:1039800007900020069000200590002004900391ED
:10399000029201931F2300930023084A0849094813
:1039A00002F02CF900BF0837BD4680BDB46000208E
:1039B000B4590208B8590208BC5902081D39000858
:1039C00084540208885F002080B586B000AFF8609C
:1039D0000B467A60FB72174B1B68FA7A83F83C201F
:1039E000144B1B68002283F83D20124B1B6879683A
:1039F000184600F00DFBFB68002B0DD0FB68083368
:103A00007B610C4B1B68FA689A630A4B1B6819466A
:103A1000786900F0A3F803E0064B1B6800229A6364
:103A2000044B1B681946F86800F006F800BF183709
:103A3000BD4680BD805E002080B485B000AF786058
:103A400039607B68002B0FD07B685A683B68C3F8ED
:103A5000D0207B680833FB60FB681B68BB60BB68D9
:103A60009A687B68DA6116E03B6893F83C30022B79
:103A700002D0072B05D009E03B680A4AC3F8D020E2
:103A800009E03B68084AC3F8D02004E03B68074AD5
:103A9000C3F8D02000BF00BF1437BD465DF8047BDB
:103AA000704700BF98540208A0540208AC540208A2
:103AB00080B485B000AF786039603B680E4AC3F8C7
:103AC000D0207B68002B10D07B680833FB60FB683C
:103AD0001B68BB60BB68002B04D0BB689A687B681E
:103AE000DA6102E07B68044ADA6100BF1437BD4640
:103AF0005DF8047B704700BFAC54020880B584B009
:103B000000AF78607B689B6BFB60FB680833BB6031
:103B1000BB681B681B6B002B09D0786800F08AF823
:103B20007B68FA689A637968B86800F017F800BF94
:103B30001037BD4680BD80B483B000AF78607B682D
:103B400000221A607B6800225A607B6800221A817A
:103B500000BF0C37BD465DF8047B704780B485B06C
:103B600000AF786039603B6893F83F30FB727B6848
:103B70001B68002B0FD17B6801221A813B68002251
:103B80001A633B6800225A637B683A681A607B6854
:103B90003A685A6048E07B681B8901339AB27B68B7
:103BA0001A817B681B68FB6008E0FB6893F83F3074
:103BB000FA7A9A4206D3FB681B6BFB60FB68002B0A
:103BC000F3D100E000BFFB68002B0ED13B68002260
:103BD0001A637B685A683B685A633B685B6B3A6858
:103BE0001A637B683A685A601EE0FB685B6B002BC7
:103BF0000CD13B68FA681A633B6800225A63FB6881
:103C00003A685A637B683A681A600DE03B68FA6864
:103C10001A63FB685A6B3B685A633B685B6B3A6894
:103C20001A63FB683A685A6300BF1437BD465DF8F3
:103C3000047B704780B487B000AF78607B689B6B73
:103C4000002B46D07B689B6B08337B617B691B68CC
:103C50001B6B002B06D17B6900221A607B69002256
:103C60005A6027E07B685B6B002B09D17B681B6B7C
:103C70003B613B6900225A637B693A691A6019E02B
:103C80007B681B6B002B09D17B685B6BFB60FB685F
:103C900000221A637B69FA685A600BE07B685B6BF1
:103CA000FB607B681B6B3B61FB683A691A633B698D
:103CB000FA685A637B691B89013B9AB27B691A8156
:103CC0007B6800221A637B6800225A637B680022AB
:103CD0009A6300BF1C37BD465DF8047B7047000047
:103CE00080B584B000AFF860B9607A607B80BB6853
:103CF00093F83E30072B68D801A252F823F000BF9A
:103D0000CB3D0008CB3D0008213D0008213D0008C7
:103D1000CB3D0008CB3D0008793D0008793D000807
:103D2000BB687A681A66BB687A88A3F86420BB68A7
:103D3000BA691A65FB68002B02D0B868FFF77AFFF2
:103D4000B968F868FFF7B4FEBB6893F83E30032B00
:103D500002D1B86803F0F8F8B86800F061F8BB6801
:103D6000002283F83E20BB68002283F83D20BB6818
:103D7000002283F83C2029E0BB687A681A66BB6899
:103D80007A88A3F86420BB68BA691A65FB68002BBF
:103D900002D0B868FFF74EFFB968F868FFF788FEF1
:103DA000BB6893F83E30072B02D1B86803F0CCF81B
:103DB000BB68042283F83E20BB68002283F83D20C4
:103DC000BB68002283F83C2000E000BF00BF103732
:103DD000BD4680BD80B483B000AF00237B6013E09C
:103DE0007A6813465B0013449B000C4A13443B6003
:103DF0003B6800221A813B6800221A603B6800225F
:103E00005A607B6801337B607B681F2BE8D900BF59
:103E10000C37BD465DF8047B704700BF145C002082
:103E200080B582B000AF78607B6893F83F30184669
:103E300000F03AFF7B6893F83F20074B1B789A42CB
:103E400003D1786800F04CF802E0786800F006F8DA
:103E500000BF0837BD4680BDA45D002080B485B09A
:103E600000AF78607B6893F83F301A4613465B00DA
:103E700013449B00194A1344FB60FB681B68002B2A
:103E80000FD1FB6801221A817B6800221A617B68CE
:103E900000225A61FB687A681A60FB687A685A6087
:103EA00015E0FB681B8901339AB2FB681A81FB6835
:103EB0001A687B681A617B6800225A61FB681B687C
:103EC000BB60BB687A685A61FB687A681A6000BF99
:103ED0001437BD465DF8047B704700BF145C0020BA
:103EE00080B485B000AF78607B6893F83F301A46A5
:103EF00013465B0013449B00184A1344FB60FB68A5
:103F00001B68002B0FD1FB6801221A817B680022FD
:103F10001A617B6800225A61FB687A681A60FB6844
:103F20007A685A6014E0FB681B8901339AB2FB6817
:103F30001A817B6800221A61FB685B68BB607B6842
:103F4000BA685A61BB687A681A61FB687A685A6015
:103F500000BF1437BD465DF8047B7047145C002039
:103F600080B586B000AF78607B6893F83F301A4622
:103F700013465B0013449B00244A13447B617B6817
:103F80005B693B617B681B69FB603B69002B1FD150
:103F9000FB68002B0FD17B6900221A817B6900220C
:103FA0001A607B6900225A607B6893F83F3018469C
:103FB00000F09EFE1FE07B691B89013B9AB27B6982
:103FC0001A81FB6800225A617B69FA681A6012E064
:103FD0007B691B89013B9AB27B691A813B69FA684C
:103FE0001A61FB68002B03D17B693A695A6002E0D1
:103FF000FB683A695A617B6800225A617B6800223B
:104000001A6100BF1837BD4680BD00BF145C002098
:1040100080B582B000AF786039603B68002B09D072
:104020003A687968094802F07BFE7B68032283F8CE
:104030003E2003E07B68022283F83E207868FFF789
:104040008FFF00BF0837BD4680BD00BFC86100209C
:1040500080B485B000AF454BFB60454BBB60454B22
:10406000FB60454BFB60454BBB60454BFB60454BE4
:104070007B60454BFB60454BFB60454BFB60454B14
:10408000FB60454B7B60454B7B60454B7B60454B04
:10409000FB60454B7B60454BFB60454B7B60454B74
:1040A0007B60454B7B60454B7B60454BFB60454BE4
:1040B000FB60454BFB60454B7B60454BFB60454BD4
:1040C0007B60454B7B60454B7B60454B7B60454B44
:1040D0007B60454B7B60454BFB60454BFB60454B34
:1040E000FB60454BFB60454B7B60454B7B60454B24
:1040F0007B60454BFB60454BFB60454BFB60454B94
:104100007B60454B7B60454B7B60454BBB60454BC3
:104110007B60454BFB60454BFB60454BFB60454B73
:10412000FB60454BFB60454BFB60454BFB60454BE3
:104130007B60454BFB60454BFB60454B7B60454BD3
:104140007B60454BFB60454BFB60454B7B60454BC3
:10415000FB60454BFB60454B7B60454B7B6000BF84
:104160001437BD465DF8047B704700BF105A020843
:10417000745B0208115A0208125A0208145A020803
:10418000185A02081C5A0208195A0208445A02080E
:10419000455A0208465A0208485A02084A5A020872
:1041A0004C5A02086C5A02086E5A0208705A0208E9
:1041B000725A0208745A0208765A0208785A02089B
:1041C000A85A0208A95A0208AA5A0208AC5A0208B8
:1041D000AE5A0208B05A0208B25A0208B45A02088B
:1041E000B65A0208B85A0208BC5A0208EC5A020829
:1041F000ED5A0208EE5A0208EF5A0208F05A020875
:10420000F25A0208F45A02081C5B02081D5B0208FD
:104210001E5B02081F5B0208205B0208225B02088B
:10422000245B0208285B0208295B02082A5B02085B
:104230002B5B02082C5B02082D5B02082E5B020838
:104240002F5B0208305B0208325B0208335B020816
:10425000345B0208365B0208385B0208395B0208EF
:104260003C5B02086C5B02086D5B02086E5B020837
:10427000705B020880B483B000AF7860074B002207
:104280001A60074B00221A807B6800221A8000BF48
:104290000C37BD465DF8047B704700BF64600020AA
:1042A000CA60002080B487B000AF78602E4B1B68D6
:1042B000002B04D17B6845F21E721A804EE02B4B16
:1042C0001B88002B04D17B6845F21D721A8045E0E3
:1042D000254B1B687B61244B1B683B613B6910339A
:1042E0003B61224B1B88013BBB810023FB8114E017
:1042F0007B693A691A607B6900225A607B690022F7
:104300001A817B690022DA607B6910337B613B692B
:1043100010333B61FB890133FB81FA89BB899A42E7
:10432000E6D37B6900221A607B6900225A607B69B0
:1043300000221A817B690022DA600B4B1B680C4A51
:1043400013600A4B1A880A4B9A80094B0022DA80C4
:10435000074B00221A817B6800221A801C37BD4659
:104360005DF8047B704700BFCC590208C8590208A9
:104370007C5F002080B485B000AF78607B685B898B
:10438000FB817B685B89002B26D07B681B68BB6048
:10439000154B1A68BB681A607B685B68124A136029
:1043A000114BDA887B685B89D31A9AB20E4BDA809C
:1043B0000D4B9A887B685B8913449AB20A4B9A80AA
:1043C0007B6800225A817B6800229A817B680022E8
:1043D0001A607B6800225A60FB8918461437BD4674
:1043E0005DF8047B704700BF7C5F002080B483B021
:1043F00000AF78600B467B807B687A881A817B6887
:1044000000225A817B6800229A817B6800221A6010
:104410007B6800225A6000BF0C37BD465DF8047B04
:104420007047000080B487B000AFF860B9607A6070
:104430003B60FB685B89002B0ED1BB6800221A80B1
:104440007B68002B02D07B6800221A603B6846F232
:1044500092521A8000233CE0FB685B687B617B69B9
:104460005B683B617B691A89BB681A807B68002B9B
:1044700003D07B69DA687B681A607B691A68FB681D
:104480005A60FB685B68002B06D1FB6800221A604B
:10449000FB6800225A8105E0FB685B89013B9AB208
:1044A000FB685A810E4B1A687B691A600C4A7B695B
:1044B00013600B4B9B8801339AB2094B9A80084BCF
:1044C000DB88013B9AB2064BDA803B6800221A80F7
:1044D0003B6918461C37BD465DF8047B704700BF3A
:1044E0007C5F002080B487B000AFF860B9601146EF
:1044F0001A460B46FB801346BB80FB685A89FB6853
:104500001B899A4204D37B6A46F293521A806BE06D
:10451000384B9B88002B04D17B6A45F21D721A80B0
:1045200062E0344B1B687B617B691B68314A136016
:10453000304B9B88013B9AB22E4B9A802D4BDB88E7
:1045400001339AB22B4BDA802A4B1A89294BDB882C
:104550009A4203D2274BDA88264B1A81FB685B8983
:10456000002B0CD1FB687A691A60FB687A695A6083
:10457000FB6801225A817B6900221A601EE0BB8819
:1045800003F01003002B0CD1FB681B683B613B69F7
:104590007A691A60FB687A691A607B6900221A607E
:1045A00006E0FB685A687B691A60FB687A695A60A2
:1045B000FB685B8901339AB2FB685A81FB689A8970
:1045C000FB685B899A4203D2FB685A89FB689A812F
:1045D0007B69BA685A607B69FA881A817B693A6A92
:1045E000DA607B6A00221A801C37BD465DF8047BC6
:1045F000704700BF7C5F002080B586B000AFF860D8
:10460000B9607A6000237B61204B1B78002B04D0BB
:104610007B6842F6E1621A8035E0FB68002B04D12A
:104620007B6845F6C3521A802DE0FBF7A7FE786140
:1046300003F0A8FCFB68164A1A60FB68BA685A6067
:10464000FB6800221A62FB6800225A62FB680022A3
:1046500083F82820FB680022DA62FB6808331846DA
:10466000FFF769FAF86800F029FA0A4B1B88013352
:104670009AB2084B1A8003F0A5FC7869FBF782FE1A
:104680007B6800221A801837BD4680BDA45E0020DA
:104690004D555458CC60002080B586B000AFF8600E
:1046A000B9603B601346FB8000237B618C4B1B7819
:1046B000002B04D03B6A46F2AE121A800DE1FB6873
:1046C000002B04D13B6A45F6C3521A8005E1FB88F2
:1046D000002B07D0B3F5004F04D03B6A45F62562A6
:1046E0001A80FAE000BFFB681B687E4A934204D040
:1046F0003B6A45F6C4521A80EFE0FBF73FFE786153
:1047000003F040FCFB6893F82830002B1DD1764B5A
:104710001A68FB685A62FB68012283F828203B680C
:10472000002B03D0FB68DA6A3B681A606E4B1B688B
:10473000F968184600F0EAF903F044FC7869FBF7E1
:1047400021FE3B6A00221A80C7E0FB685A6A664B6A
:104750001B689A4227D1FB6893F82830FF2B09D1B8
:1047600003F030FC7869FBF70DFE3B6A45F284727A
:104770001A80B2E0FB6893F828300133DAB2FB68A4
:1047800083F828203B68002B03D0FB68DA6A3B687B
:104790001A6003F017FC7869FBF7F4FD3B6A45F2F9
:1047A00082721A8099E0B7F90630002B0FDA03F015
:1047B00009FC7869FBF7E6FD3B68002B02D03B68FB
:1047C00000221A603B6A46F2B0121A8085E0474B1D
:1047D0001B78002B0FD003F0F5FB7869FBF7D2FDB7
:1047E0003B68002B02D03B6800221A603B6A46F609
:1047F00063521A8071E0FB685B6A3B613B6993F826
:104800003F20394B1B6893F83F309A4207D9364B0B
:104810001B6893F83F301946386902F037F9BA68D7
:104820000421F868FFF7D0F803F0CCFB7869FBF7B8
:10483000A9FDFEF72FFFFBF7A1FD786103F0A2FBB6
:10484000294B1B6893F83D30032B3CD801A252F84A
:1048500023F000BF654800087D480008AD48000807
:10486000974800083B68002B04D01F4B1B681A6D4B
:104870003B681A603B6A00221A8029E03B68002BE3
:1048800004D0194B1B681A6D3B681A603B6A46F2EC
:10489000A9121A801CE03B68002B02D03B68002262
:1048A0001A603B6A47F2D9221A8011E03B68002B5C
:1048B00004D00D4B1B681A6D3B681A603B6A45F6C5
:1048C000C2521A8004E03B6A46F62E621A8000BF8C
:1048D00003F078FB7869FBF755FD1837BD4680BDBE
:1048E000A45E00204D555458805E0020005C0020DE
:1048F00080B58CB002AFF8600B467A607B810023F4
:104900007B626A4B1B78002B04D07B6846F20E2238
:104910001A80C7E0FB68002B04D17B6845F6C352C0
:104920001A80BFE07B89002B07D0B3F5004F04D07D
:104930007B6845F625621A80B4E000BFFB681B68FF
:104940005B4A934204D07B6845F6C4521A80A9E0C2
:10495000FBF714FD786203F015FBFB685A6A554BB0
:104960001B689A4209D003F02DFB786AFBF70AFD19
:104970007B6845F281721A8094E0FEF709FD386287
:10498000FB683A6ADA62FB6893F82830013BDAB2D6
:10499000FB6883F82820FB6893F82830002B09D0A7
:1049A00003F010FB786AFBF7EDFC7B6845F283723D
:1049B0001A8077E03F4B1B68F968184600F0B8F89A
:1049C000FB680833FB61FB691B68002B0FD1FB6898
:1049D00000225A62FB68002283F8282003F0F2FAD2
:1049E000786AFBF7CFFC7B6800221A805AE0314BD3
:1049F0001B6893F83F202F4B1B6893F840309A4276
:104A00002CD02C4B1B68184600F0AFF80346FB7601
:104A1000284B1B6893F84020FB7E934228BF134627
:104A2000FB76244B1B6893F83F30FA7E9A4215D9E7
:104A3000204B1B681846FFF793FA1E4B1B68FA7E43
:104A400083F83F20FB7E184600F02EF9194B1B68B7
:104A50001846FFF745FA184AFB7E1370FB691B687E
:104A60007B61FB687A695A62FB68012283F828201F
:104A7000F968786900F04AF83B6A00930023002245
:104A80007969F868FFF72CF903F09CFA786AFBF76C
:104A900079FCB7F90A30002B01DBFEF7FBFD7B68E0
:104AA00000221A802837BD4680BD00BFA45E0020CA
:104AB0004D555458805E0020A45D002080B483B022
:104AC00000AF78607B680F4ADA617B6800225A6128
:104AD0000D4B1B68002B03D17B6800229A6107E015
:104AE000094B1A687B689A61074B1B687A685A61A0
:104AF000054A7B68136000BF0C37BD465DF8047B38
:104B0000704700BFB8540208B861002080B483B079
:104B100000AF786039607B685A6C3B681A627B68CA
:104B20003A685A6400BF0C37BD465DF8047B704795
:104B300080B485B000AF786039607B684433FB6037
:104B400003E0FB681B682033FB60FB681A683B6866
:104B50009A42F6D1FB681B681A6AFB681A6000BFAC
:104B60001437BD465DF8047B704780B487B000AF52
:104B700078601F23FB747B6844337B6114E07B699E
:104B80001B689B68FB60FB68002B09D0FB6893F8EF
:104B90003F30FB72FA7AFB7C9A4201D2FB7AFB74BB
:104BA0007B691B6820337B617B691B68002BE6D126
:104BB000FB7C18461C37BD465DF8047B704780B50A
:104BC0008AB002AF78607B685B6CFB6133E0FB69A5
:104BD0001B6ABB61FEF7DCFB7861FB697A69DA620C
:104BE000F9697868FFF7A4FFFB6908333B613B690B
:104BF0001B68002B07D1FB69002283F82820FB6982
:104C000000225A6215E03B691B68FB60FB697A6809
:104C10005A62FB69012283F82820F969F868FFF7D6
:104C200075FF7B69009300230022F968F869FFF79C
:104C300057F8BB69FB61FB69002BC8D100BF203767
:104C4000BD4680BD80B483B000AF00237B6007E029
:104C5000084A7B68002142F823107B6801337B609F
:104C60007B68002BF4D000BF0C37BD465DF8047B99
:104C7000704700BFFC5B002080B582B000AF00230E
:104C8000FB71084B3B603B681B681846FBF781FBD8
:104C90000346DAB2FB791344FB71FB7918460837F7
:104CA000BD4680BDFC5B002080B487B000AF0346EA
:104CB000FB710023FB75FB793B610123FB603B69C2
:104CC000C3F11F03FA6802FA03F3FB60FB7DFA7D70
:104CD000064951F82210FA680A43044941F8232092
:104CE00000BF1C37BD465DF8047B7047FC5B0020AD
:104CF00080B487B000AF0346FB710023FB75FB79DE
:104D00003B610123FB603B69C3F11F03FA6802FAB0
:104D100003F3FB60FB7DFA7D074951F82210FA6826
:104D2000D2430A40044941F8232000BF1C37BD4646
:104D30005DF8047B704700BFFC5B002080B586B047
:104D400000AFF860B9603B601346FB8000237B61D5
:104D5000214B1B78002B04D03B6842F6E1621A809D
:104D600037E0FB68002B04D13B6845F6C3521A803C
:104D70002FE0FB88002B04D13B6846F294521A8046
:104D800027E0FBF7FBFA786103F0FCF8FB68134AB5
:104D90001A60FB68BA685A60FB682033FA881146CB
:104DA0001846FFF723FBFB6808331846FEF7C3FEDF
:104DB000F86800F0B7F90A4B1B8801339AB2084B28
:104DC0001A8003F0FFF87869FBF7DCFA3B680022F1
:104DD0001A801837BD4680BDA45E00205155455548
:104DE000845E002080B586B000AFF860B9603B609B
:104DF0001346FB8000233B61754B1B78002B05D0CD
:104E00007B6A46F2AE121A800023DDE0FB68002BBD
:104E100005D17B6A45F6C3521A800023D4E03B6873
:104E2000002B05D17B6A46F2D5221A800023CBE005
:104E3000FB88002B08D0B3F5004F05D07B6A45F600
:104E400025621A800023BFE000BFFB681B68614A2F
:104E5000934205D07B6A45F6C4521A800023B3E022
:104E60003B6A002B02D03B6A00221A60FBF786FAED
:104E7000386103F087F8FB6803F120007B6A3A6A27
:104E80003968FFF7CFFA78617B6A1B88002B06D15F
:104E900003F098F83869FBF775FA7B6994E0B7F985
:104EA0000630002B0ADA03F08DF83869FBF76AFA4E
:104EB0007B6A46F2B0121A80002385E0464B1B78CD
:104EC000002B0AD003F07EF83869FBF75BFA7B6AA7
:104ED00046F663521A80002376E0BA680521F86826
:104EE000FEF772FD03F06EF83869FBF74BFAFEF738
:104EF000D1FBFBF743FA386103F044F8374B1B68EA
:104F000093F83D30032B4FD801A252F823F000BF95
:104F1000214F00084D4F0008854F0008714F0008D1
:104F20002E4B1B681B6E7B612C4B1B68B3F86420F7
:104F30003B681A803B6A002B04D0284B1B681A6D13
:104F40003B6A1A607B6A00221A8037E000237B618B
:104F50003B6800221A803B6A002B04D01F4B1B6861
:104F60001A6D3B6A1A607B6A46F2A9121A8025E024
:104F700000237B613B6800221A807B6A47F2D922BA
:104F80001A801BE000237B613B6800221A803B6A89
:104F9000002B04D0114B1B681A6D3B6A1A607B6AA8
:104FA00045F6C2521A8009E000237B613B6800226B
:104FB0001A807B6A46F62E621A8000BF03F002F860
:104FC0003869FBF7DFF97B6918461837BD4680BDA5
:104FD000A45E002051554555005C0020805E0020F5
:104FE00080B58CB002AFF860B96011461A460B4626
:104FF000FB801346BB800023FB61FB68002B04D1C0
:105000003B6B45F6C3521A8087E0BB88B3F5047F3B
:1050100022D0B3F5047F07DC102B1DD0B3F5007F41
:105020001AD0002B18D012E048F21002934213D08D
:1050300048F21002934203DCB3F5004F0CD006E0B7
:10504000B3F5024F08D048F21022934204D03B6BD4
:1050500045F625621A8060E000BFFB681B68304A95
:10506000934204D03B6B45F6C4521A8055E0FEF7DC
:105070008FF9B861FBF782F9F86102F083FFFB68F2
:1050800008337B617B691B68002B1CD1BB8803F054
:105090001003002B02D10023FB8401E01023FB84CA
:1050A000FB6803F12000F98CFA883B6B0193BB6924
:1050B00000930B46B968FFF715FA02F083FFF86911
:1050C000FBF760F929E07B691B683B6212E03B6AF1
:1050D0001B6B3B61FA88BB6900931346BA68396A57
:1050E000F868FEF7FDFDBB8803F40073002B05D0C4
:1050F0003B693B623B6A002BE9D100E000BF02F054
:1051000061FFF869FBF73EF9B7F90430002B01DBCA
:10511000FEF7C0FA3B6B00221A802837BD4680BDDF
:105120005155455580B483B000AF78607B680F4A15
:10513000DA617B6800225A610D4B1B68002B03D19A
:105140007B6800229A6107E0094B1A687B689A61C4
:10515000074B1B687A685A61054A7B68136000BF79
:105160000C37BD465DF8047B704700BFC054020891
:105170005C60002080B586B000AFF860B9607A60EE
:105180003B6000237B611D4B1B78002B04D03B68E8
:1051900042F6E1621A802EE0FB68002B04D13B68E6
:1051A00045F6C3521A8026E0FBF7E8F8786102F072
:1051B000E9FEFB68124A1A60FB687A681A62FB68AB
:1051C00000225A62FB68BA685A60FB6808331846C6
:1051D000FEF7B1FCF86800F0A7F90A4B1B88013311
:1051E0009AB2084B1A8002F0EDFE7869FBF7CAF814
:1051F0003B6800221A801837BD4680BDA45E00209F
:1052000053454D416060002080B586B000AFF86026
:10521000B9603B601346FB8000237B61724B1B78B7
:10522000002B05D03B6A46F2AE121A800023D6E06E
:10523000FB68002B05D13B6A45F6C3521A80002358
:10524000CDE0FB88002B08D0B3F5004F05D03B6ABA
:1052500045F625621A800023C1E000BFFB681B6889
:10526000624A934205D03B6A45F6C4521A80002335
:10527000B5E0FBF783F8786102F084FEFB681B6AF7
:10528000002B18D0FB681B6A5A1EFB681A623B6829
:10529000002B03D0FB685A6A3B681A60FB681B6AE4
:1052A0003B6102F08FFE7869FBF76CF83B6A0022E5
:1052B0001A803B6993E0B7F90630002B13DA3B689C
:1052C000002B02D03B6800221A60FB681B6A3B611E
:1052D00002F078FE7869FBF755F83B6A46F2B012A7
:1052E0001A803B697BE0424B1B78002B10D03B6857
:1052F000002B02D03B6800221A6002F063FE78693E
:10530000FBF740F83B6A46F663521A80002366E0DA
:10531000BA680621F868FEF757FB02F053FE786979
:10532000FBF730F8FEF7B6F9FBF728F8786102F0E2
:1053300029FE304B1B6893F83D30032B3BD801A26C
:1053400052F823F0555300086D5300089D53000890
:10535000875300083B68002B04D0264B1B681A6D4E
:105360003B681A603B6A00221A802FE03B68002BE2
:1053700004D0204B1B681A6D3B681A603B6A46F2EA
:10538000A9121A8022E03B68002B02D03B68002261
:105390001A603B6A47F2D9221A8017E03B68002B5B
:1053A00004D0144B1B681A6D3B681A603B6A45F6C3
:1053B000C2521A800AE03B6A46F62E621A8002F058
:1053C00001FE7869FAF7DEFF002308E0FB681B6A3C
:1053D0003B6102F0F7FD7869FAF7D4FF3B691846A4
:1053E0001837BD4680BD00BFA45E002053454D4127
:1053F000005C0020805E002080B58CB002AFF860B9
:105400000B467A607B8100233B62FB68002B05D151
:105410007B6845F6C3521A8000237FE07B89B3F591
:10542000007F11D0B3F5007F02DC002B0CD005E02B
:10543000B3F5004F08D0B3F5024F05D07B6845F6B1
:1054400025621A80002369E000BFFB681B68354AAB
:10545000934205D07B6845F6C4521A8000235DE074
:10546000FDF796FFF861FAF789FF386202F08AFDCE
:10547000FB680833BB61BB691B68002B24D1FB6848
:105480001B6AB3F1FF3F0AD102F09CFD386AFAF7BC
:1054900079FF7B6846F6C5521A8000233EE0FB6820
:1054A0001B6A5A1CFB681A62FB681B6A7B61FB68FB
:1054B000FA695A6202F086FD386AFAF763FF7B6880
:1054C00000221A807B6929E0BB691B687B6211E0BE
:1054D0007B6A1B6B3B61FB69009300230022796AA6
:1054E000F868FEF7FDFB7B8903F40073002B05D001
:1054F0003B697B627B6A002BEAD100E000BF02F0CF
:1055000061FD386AFAF73EFFB7F90A30002B01DB7C
:10551000FEF7C0F87B6800221A800023184628375F
:10552000BD4680BD53454D4180B483B000AF786027
:105530007B680F4ADA617B6800225A610D4B1B6859
:10554000002B03D17B6800229A6107E0094B1A689F
:105550007B689A61074B1B687A685A61054A7B68C9
:10556000136000BF0C37BD465DF8047B704700BF79
:10557000CC5402089C5D002080B586B000AF7860F6
:105580000023FB60FAF7FAFEF86002F0FBFC474BE1
:1055900000221A80464B00221A60464B00221A60F5
:1055A000454B00221A60454B00221A6002F040FD74
:1055B000434B00221A8102F005FDF868FAF7E2FE7B
:1055C000FAF7DCFEF86002F0DDFC3E4B1B687B6105
:1055D00002F0F8FCF868FAF7D5FE38E0FAF7CEFEEC
:1055E000F86002F0CFFC7B690022C3F8C4207B691D
:1055F0000022DA677B690022C3F8B8207B690022A9
:10560000C3F8A0207B690022A3F89A207B690022BE
:10561000A3F89C207B690022C3F8AC207B690022A0
:10562000C3F8B020FDF7B4FE02467B69C3F8A8209A
:105630007B696833BB60BB6800229A817B69D3F8C1
:10564000CC307B6102F0BEFCF868FAF79BFE7B6908
:10565000002BC3D1FAF792FEF86002F093FC1A4BCC
:105660001B683B6102F0AEFCF868FAF78BFE12E0B3
:10567000FAF784FEF86002F085FC3B692033BB60DA
:10568000BB6800229A813B699B693B6102F09AFCEE
:10569000F868FAF777FE3B69002BE9D17B680022B6
:1056A0001A8000BF1837BD4680BD00BF865E00204F
:1056B000085C0020AC610020905E0020B0600020FB
:1056C0007C5F00208C5E00205C60002080B586B08E
:1056D00000AF786000233B6107F10E03194636489E
:1056E00000F08EFFFB89002B03D0FA897B681A80BB
:1056F0005EE007F10E031A460021022001F0D6FDFC
:10570000FB89002B03D0FA897B681A8050E0FAF7F6
:1057100035FE386102F036FC284B00221A6002F098
:1057200051FC3869FAF72EFE00237B61244B1A687E
:10573000244B1B689A4206D9214B1A68214B1B68DF
:10574000B2FBF3F37B617B69002B06D11C4B1B681A
:105750001D4AA2FB0323DB087B6107F10E031A46F7
:105760000021786901F0A2FD07F10E0319461248E5
:1057700000F04EFCFB89002B03D0FA897B681A806D
:1057800016E0FAF7FBFD386102F0FCFB0F4B00223C
:105790001A600A4B1B680E4A13600E4B01221A70E6
:1057A00002F010FC3869FAF7EDFD7B6800221A80E0
:1057B0001837BD4680BD00BFA85E00200C5C0020ED
:1057C000E8590208D4590208CDCCCCCC085C0020A2
:1057D000A0600020995D002080B590B000AF786097
:1057E0000023BB6108E0904B1B685B0007F10A02D5
:1057F0000021184601F05AFD8C4B1B78012BF2D189
:1058000007F10A031846FFF7B7FE0023FB61884B38
:105810001A68854B1B689A4206D9854B1A68824BD9
:105820001B68B2FBF3F3FB61FB69002B06D1804BD5
:105830001B68804AA2FB0323DB08FB61FDF7A8FD80
:10584000786102F085FB02467B4B1A60FAF796FD01
:10585000B86102F097FB794B1B68794A1360774B6C
:1058600000221A6002F0AEFBB869FAF78BFD754BA7
:105870001A68734B1B689A424FD9724B1B68724A65
:10588000934205D842F210737B6201233B6224E00D
:105890006C4B1B686D4A934205D84FF47A737B6258
:1058A0000A233B6219E0674B1B68694A934204D89C
:1058B00064237B6264233B620FE0624B1B68654A92
:1058C000934205D80A237B624FF47A733B6204E06B
:1058D00001237B6242F210733B625A4B1A683B6AA7
:1058E000B2FBF3F33B61564B1B687A6A02FB03F28F
:1058F0003B69B2FBF3F39AB242F210739B1A9AB26D
:10590000554B1A80554B1A88534B1B889A4207D225
:10591000514B1A88514B1A8002E04F4B00221A80DB
:1059200001F022FF0023BB63FAF728FDB86102F003
:1059300029FB4B4B1B68BB6202F044FBB869FAF7CA
:1059400021FD27E0FAF71AFDB86102F01BFBBB6AE4
:10595000D3F8AC20BB6AC3F8B020BB6A0022C3F8FE
:10596000AC2002F02FFBB869FAF70CFDBB6AD3F844
:10597000B030BA6B1344BB63FAF700FDB86102F0B4
:1059800001FBBB6AD3F8CC30BB6202F01BFBB869E9
:10599000FAF7F8FCBB6A002BD4D1BB6B002B31D0DB
:1059A000BB6B294A934205D842F210733B63012333
:1059B0007B6321E0BB6B254A934205D84FF47A7391
:1059C0003B630A237B6317E0BB6B214A934204D8F5
:1059D00064233B6364237B630EE0BB6B1D4A9342ED
:1059E00005D80A233B634FF47A737B6304E00123F9
:1059F0003B6342F210737B63BA6B7B6BB2FBF3F3D6
:105A0000FB6203E000233B630123FB62FAF7B6FC71
:105A1000B86102F0B7FA124B1B68BB6202F0D2FA0F
:105A2000B869FAF7AFFC56E0D4590208995D002036
:105A3000E8590208CDCCCCCCB06000200C5C002032
:105A4000B8600020A06000207F1A0600FF083D001B
:105A5000FF596202FF83D7179C5E0020865E0020FC
:105A60008C5E0020BB6AD3F8B0303A6B02FB03F2C5
:105A7000FB6AB2FBF3F3FB87FB8F42F21072934297
:105A800002D942F21073FB87BB6AFA8FA3F89A20FF
:105A9000BB6AB3F89C30FA8F9A4203D9BB6AFA8F7B
:105AA000A3F89C20BB6A03F1C001BB6A03F1BC02EE
:105AB00007F10A03B86A00F023FDFAF75FFCB8614A
:105AC00002F060FABB6AD3F8CC30BB6202F07AFA1B
:105AD000B869FAF757FCBB6A002BC3D1104B1B788F
