:020000040800F2
:1000000000000520318C0008818C0008818C0008DC
:10001000818C0008818C0008818C000800000000A1
:10002000000000000000000000000000818C0008BB
:10003000818C000800000000FB020008395C000809
:10004000818C0008818C0008818C0008818C00085C
:10005000818C0008818C0008818C0008818C00084C
:10006000818C0008818C0008818C0008818C00083C
:10007000818C0008818C0008818C0008818C00082C
:10008000818C0008818C0008818C0008818C00081C
:10009000818C0008818C0008818C0008818C00080C
:1000A000818C0008818C0008818C0008818C0008FC
:1000B000A51B0008C11B0008818C0008818C00086A
:1000C000818C0008818C0008818C0008818C0008DC
:1000D000818C0008818C0008818C0008818C0008CC
:1000E000818C0008818C0008818C0008818C0008BC
:1000F000818C0008818C0008818C0008818C0008AC
:10010000818C0008818C0008D51B0008818C0008B8
:10011000818C0008818C0008818C0008818C00088B
:10012000818C0008818C0008818C0008818C00087B
:10013000818C0008818C0008818C0008818C00086B
:10014000818C0008818C0008818C0008818C00085B
:10015000818C0008818C0008818C0008818C00084B
:10016000818C0008818C0008818C0008818C00083B
:10017000818C0008818C0008818C00080000000040
:10018000818C0008818C0008818C0008818C00081B
:10019000818C0008818C0008818C0008818C00080B
:1001A000818C0008818C0008818C0008818C0008FB
:1001B000818C0008818C0008818C0008818C0008EB
:1001C000818C0008818C000800000000818C0008F0
:1001D000818C0008818C0008818C0008818C0008CB
:1001E000818C0008818C0008818C0008818C0008BB
:0801F000818C0008818C0008DD
:1002000010B5054C237833B9044B13B10448AFF350
:1002100000800123237010BDB00900200000000001
:1002200040EA00080C4B43B10C480D4910B5AFF340
:1002300000800C48036823B910BD0A48036833B92D
:100240007047094B002BF7D0BDE810401847064B0C
:10025000002BF5D0184700BF0000000040EA00085E
:10026000B4090020B00900200000000072B64EF66C
:100270002250CEF2000040F2FF01C0F200010170F6
:10028000002080F3098842F6EC30C2F200000168D9
:1002900081F3088805F07AFC42F2C070C2F20000D7
:1002A00042F2B471C2F200010A78027042F69C0078
:1002B000C2F2000042F6A401C2F200010A68026024
:1002C000106880F30988EFF3148040F0020080F397
:1002D0001488BFF36F8FBDE8F04F0FBCBDE800502E
:1002E00006BC62B6084718484FF08051016070475D
:1002F00015484FF080510160704772B6EFF30980E6
:1003000020E9F04F42F69C05C2F20005296808601A
:10031000744605F03BFC42F2C070C2F2000042F2AB
:10032000B471C2F200010A78027042F6A401C2F26E
:1003300000010A682A6044F0040E1068B0E8F04F2B
:1003400080F3098862B6704704ED00E072B670472A
:1003500062B67047EFF3108072B6704780F3108872
:10036000704730BF704720BF7047B0FA80F07047C9
:1003700090FAA0F0B0FA80F0704790FAA0F07047C1
:1003800053B94AB9002908BF00281CBF4FF0FF31FC
:100390004FF0FF3000F07AB9ADF1080C6DE904CEF2
:1003A00000F006F8DDF804E0DDE9022304B0704750
:1003B0002DE9F0478C460D460446089E002B51D18E
:1003C0008A4217466DD9B2FA82FEBEF1000F0BD0F9
:1003D000CEF1200C01FA0EF520FA0CFC02FA0EF711
:1003E0004CEA050C00FA0EF44FEA174A250CBCFB48
:1003F000FAF81FFA87F90AFB18CC45EA0C4508FB06
:1004000009F3AB420AD9ED1908F1FF3280F02381DC
:10041000AB4240F22081A8F102083D44ED1AA4B29B
:10042000B5FBFAF00AFB105544EA054400FB09F954
:10043000A14509D9E41900F1FF3380F00A81A145F3
:1004400040F2078102383C44A4EB090440EA08402A
:100450000021002E61D024FA0EF400233460736072
:10046000BDE8F0878B4207D9002E54D0002186E8E2
:1004700021000846BDE8F087B3FA83F1002940F077
:100480008E80AB4202D3824200F2FA80841A65EB7E
:1004900003050120AC46002E3FD086E81010BDE8D1
:1004A000F08712B90127B7FBF2F7B7FA87FEBEF162
:1004B000000F34D1EB1B3A0C1FFA87FC0121B3FB70
:1004C000F2F8250C02FB183345EA03450CFB08F350
:1004D000AB4207D9ED1908F1FF3002D2AB4200F26E
:1004E000D1808046ED1AA3B2B5FBF2F002FB1055A5
:1004F00043EA05440CFB00FCA44507D9E41900F1CC
:10050000FF3302D2A44500F2B8801846A4EB0C04D5
:1005100040EA08409DE731463046BDE8F087CEF11D
:10052000200405FA0EF307FA0EF720FA04F83A0C45
:1005300025FA04F448EA0308B4FBF2F14FEA18453F
:1005400002FB11441FFA87FC45EA044501FB0CF34A
:10055000AB4200FA0EF409D9ED1901F1FF3080F039
:100560008A80AB4240F2878002393D44EB1A1FFA81
:1005700088F5B3FBF2F002FB103345EA034500FBBC
:100580000CF3AB4207D9ED1900F1FF386FD2AB4243
:100590006DD902383D44EB1A40EA01418FE7C1F1C1
:1005A000200722FA07F88B4005FA01F448EA030312
:1005B00020FA07FE4FEA134CFD404EEA040EB5FB4D
:1005C000FCF94FEA1E440CFB19551FFA83F844EA64
:1005D000054509FB08F4AC4202FA01F200FA01FAFF
:1005E00008D9ED1809F1FF3043D2AC4241D9A9F145
:1005F00002091D442D1B1FFA8EFEB5FBFCF00CFBFF
:1006000010554EEA054400FB08F8A04507D9E41848
:1006100000F1FF3529D2A04527D902381C4440EA11
:100620000940A4EB0804A0FB02894C45C6464D4690
:1006300015D312D056B1BAEB0E0364EB050404FADD
:1006400007F7CB401F43CC40376074600021BDE802
:10065000F0871846F8E69046E0E6C245EAD2B8EBE5
:10066000020E69EB03050138E4E72846D7E7404668
:1006700091E78146BEE7014678E702383C4445E70A
:10068000084608E7A8F102083D442BE7704700BF81
:10069000000000000000000000000000000000005A
:1006A000000000000000000000000000000000004A
:1006B000000000000000000000000000000000003A
:1006C00090F800F06DE9024520F007016FF0000C92
:1006D00010F0070491F820F040F049804FF000043A
:1006E0006FF00700D1E9002391F840F000F1080015
:1006F00082FA4CF2A4FA8CF283FA4CF3A2FA8CF34D
:100700004BBBD1E9022382FA4CF200F10800A4FAB3
:100710008CF283FA4CF3A2FA8CF3E3B9D1E9042307
:1007200082FA4CF200F10800A4FA8CF283FA4CF33E
:10073000A2FA8CF37BB9D1E9062301F1200182FAF8
:100740004CF200F10800A4FA8CF283FA4CF3A2FAFE
:100750008CF3002BC6D0002A04BF04301A4612BA0C
:10076000B2FA82F2FDE8024500EBD2007047D1E90F
:10077000002304F00305C4F100004FEAC50514F09E
:10078000040F91F840F00CFA05F562EA05021CBF6F
:1007900063EA050362464FF00004A9E70000000089
:1007A00001F0FF01102A2BDB10F0070F08D010F822
:1007B000013B013A8B422DD010F0070F42B3F6D126
:1007C000F0B441EA012141EA014122F007047FF03F
:1007D00000070023F0E80256083C85EA010586EA96
:1007E000010685FA47F5A3FA87F586FA47F6A5FAD2
:1007F00087F68EB9EED1F0BC01F0FF0102F00702DE
:1008000032B110F8013B013A83EA010313B1F8D188
:100810000020704701387047002D06BF3546033869
:10082000073815F0010F07D1013015F4807F02BFA2
:10083000013015F4C03F0130F0BC0138704700BFF3
:10084000844641EA000313F003036DD1403A41D3DB
:1008500051F8043B40F8043B51F8043B40F8043B9A
:1008600051F8043B40F8043B51F8043B40F8043B8A
:1008700051F8043B40F8043B51F8043B40F8043B7A
:1008800051F8043B40F8043B51F8043B40F8043B6A
:1008900051F8043B40F8043B51F8043B40F8043B5A
:1008A00051F8043B40F8043B51F8043B40F8043B4A
:1008B00051F8043B40F8043B51F8043B40F8043B3A
:1008C00051F8043B40F8043B51F8043B40F8043B2A
:1008D000403ABDD2303211D351F8043B40F8043BCA
:1008E00051F8043B40F8043B51F8043B40F8043B0A
:1008F00051F8043B40F8043B103AEDD20C3205D3DA
:1009000051F8043B40F8043B043AF9D2043208D0D1
:10091000D2071CBF11F8013B00F8013B01D30B8843
:1009200003806046704700BF082A13D38B078DD021
:1009300010F003038AD0C3F10403D21ADB071CBFF3
:1009400011F8013B00F8013B80D331F8023B20F85D
:10095000023B7BE7043AD9D3013A11F8013B00F896
:10096000013BF9D20B7803704B7843708B7883701E
:100970006046704781F0004102E000BF83F0004311
:1009800030B54FEA41044FEA430594EA050F08BF2A
:1009900090EA020F1FBF54EA000C55EA020C7FEAEE
:1009A000645C7FEA655C00F0E2804FEA5454D4EB6B
:1009B0005555B8BF6D420CDD2C4480EA020281EA35
:1009C000030382EA000083EA010180EA020281EA6D
:1009D0000303362D88BF30BD11F0004F4FEA0131BF
:1009E0004FF4801C4CEA113102D0404261EB4101CE
:1009F00013F0004F4FEA03334CEA133302D0524254
:100A000063EB430394EA050F00F0A780A4F101040F
:100A1000D5F1200E0DDB02FA0EFC22FA05F2801849
:100A200041F1000103FA0EF2801843FA05F359412F
:100A30000EE0A5F120050EF1200E012A03FA0EFCAE
:100A400028BF4CF0020C43FA05F3C01851EBE371D8
:100A500001F0004507D54FF0000EDCF1000C7EEBF5
:100A600000006EEB0101B1F5801F1BD3B1F5001F33
:100A70000CD349085FEA30004FEA3C0C04F1010452
:100A80004FEA445212F5800F80F09A80BCF1004F7B
:100A900008BF5FEA500C50F1000041EB045141EAFD
:100AA000050130BD5FEA4C0C404141EB010111F4FE
:100AB000801FA4F10104E9D191F0000F04BF0146A9
:100AC0000020B1FA81F308BF2033A3F10B03B3F187
:100AD00020020CDA0C3208DD02F1140CC2F10C0217
:100AE00001FA0CF021FA02F10CE002F11402D8BF75
:100AF000C2F1200C01FA02F120FA0CFCDCBF41EA41
:100B00000C019040E41AA2BF01EB0451294330BD0F
:100B10006FEA04041F3C1CDA0C340EDC04F11404EC
:100B2000C4F1200220FA04F001FA02F340EA0300C3
:100B300021FA04F345EA030130BDC4F10C04C4F109
:100B4000200220FA02F001FA04F340EA03002946E9
:100B500030BD21FA04F0294630BD94F0000F83F433
:100B6000801306BF81F480110134013D4EE77FEA16
:100B7000645C18BF7FEA655C29D094EA050F08BF62
:100B800090EA020F05D054EA000C04BF1946104643
:100B900030BD91EA030F1EBF0021002030BD5FEA87
:100BA000545C05D14000494128BF41F0004130BDAF
:100BB00014F580043CBF01F5801130BD01F0004503
:100BC00045F0FE4141F470014FF0000030BD7FEA76
:100BD000645C1ABF194610467FEA655C1CBF0B4671
:100BE000024650EA013406BF52EA033591EA030F88
:100BF00041F4002130BD00BF90F0000F04BF002180
:100C0000704730B54FF4806404F132044FF00005B2
:100C10004FF0000150E700BF90F0000F04BF00212B
:100C2000704730B54FF4806404F1320410F0004591
:100C300048BF40424FF000013EE700BF42004FEA8C
:100C4000E2014FEA31014FEA02701FBF12F07F4309
:100C500093F07F4F81F06051704792F0000F14BF06
:100C600093F07F4F704730B54FF4607401F000454A
:100C700021F0004120E700BF50EA010208BF7047A1
:100C800030B54FF000050AE050EA010208BF704796
:100C900030B511F0004502D5404261EB41014FF4FF
:100CA000806404F132045FEA915C3FF4DCAE4FF003
:100CB00003025FEADC0C18BF03325FEADC0C18BFEA
:100CC000033202EBDC02C2F1200300FA03FC20FA3B
:100CD00002F001FA03FE40EA0E0021FA02F1144488
:100CE000C1E600BF70B54FF0FF0C4CF4E06C1CEA9D
:100CF00011541DBF1CEA135594EA0C0F95EA0C0F12
:100D000000F0DEF82C4481EA030621EA4C5123EA84
:100D10004C5350EA013518BF52EA033541F48011B3
:100D200043F4801338D0A0FB02CE4FF00005E1FB66
:100D300002E506F00042E0FB03E54FF00006E1FBB0
:100D400003569CF0000F18BF4EF0010EA4F1FF04F3
:100D5000B6F5007F64F5407404D25FEA4E0E6D4133
:100D600046EB060642EAC62141EA55514FEAC52044
:100D700040EA5E504FEACE2EB4F1FD0C88BFBCF5C0
:100D8000E06F1ED8BEF1004F08BF5FEA500E50F171
:100D9000000041EB045170BD06F0004646EA010137
:100DA00040EA020081EA0301B4EB5C04C2BFD4EB69
:100DB0000C0541EA045170BD41F480114FF0000E62
:100DC000013C00F3AB8014F1360FDEBF002001F0D0
:100DD000004170BDC4F10004203C35DA0C341BDC4A
:100DE00004F11404C4F1200500FA05F320FA04F01C
:100DF00001FA05F240EA020001F0004221F0004150
:100E000010EBD37021FA04F642EB06015EEA430EC2
:100E100008BF20EAD37070BDC4F10C04C4F12005F2
:100E200000FA04F320FA05F001FA04F240EA0200A5
:100E300001F0004110EBD37041F100015EEA430E76
:100E400008BF20EAD37070BDC4F1200500FA05F296
:100E50004EEA020E20FA04F301FA05F243EA020315
:100E600021FA04F001F0004121FA04F220EA020024
:100E700000EBD3705EEA430E08BF20EAD37070BD6A
:100E800094F0000F0FD101F00046400041EB01014A
:100E900011F4801F08BF013CF7D041EA060195F02C
:100EA000000F18BF704703F00046520043EB0303E6
:100EB00013F4801F08BF013DF7D043EA06037047D3
:100EC00094EA0C0F0CEA135518BF95EA0C0F0CD0DE
:100ED00050EA410618BF52EA4306D1D181EA030124
:100EE00001F000414FF0000070BD50EA410606BF1E
:100EF0001046194652EA430619D094EA0C0F02D163
:100F000050EA013613D195EA0C0F05D152EA0336A7
:100F10001CBF104619460AD181EA030101F00041C5
:100F200041F0FE4141F470014FF0000070BD41F00E
:100F3000FE4141F4780170BD70B54FF0FF0C4CF4E8
:100F4000E06C1CEA11541DBF1CEA135594EA0C0F07
:100F500095EA0C0F00F0A7F8A4EB050481EA030E54
:100F600052EA03354FEA013100F088804FEA03333B
:100F70004FF0805545EA131343EA12634FEA022209
:100F800045EA111545EA10654FEA00260EF00041CA
:100F90009D4208BF964244F1FD0404F5407402D21C
:100FA0005B084FEA3202B61A65EB03055B084FEAAD
:100FB00032024FF480104FF4002CB6EB020E75EBAA
:100FC000030E22BFB61A754640EA0C005B084FEAD2
:100FD0003202B6EB020E75EB030E22BFB61A75464F
:100FE00040EA5C005B084FEA3202B6EB020E75EB9A
:100FF000030E22BFB61A754640EA9C005B084FEA12
:101000003202B6EB020E75EB030E22BFB61A75461E
:1010100040EADC0055EA060E18D04FEA051545EA0D
:1010200016754FEA06164FEAC30343EA52734FEAB6
:10103000C2025FEA1C1CC0D111F4801F0BD141EA2F
:1010400000014FF000004FF0004CB6E711F4801F94
:1010500004BF01430020B4F1FD0C88BFBCF5E06F74
:101060003FF6AFAEB5EB030C04BFB6EB020C5FEA84
:10107000500C50F1000041EB045170BD0EF0004ED9
:101080004EEA113114EB5C04C2BFD4EB0C0541EA0B
:10109000045170BD41F480114FF0000E013C90E608
:1010A00045EA060E8DE60CEA135594EA0C0F08BFCC
:1010B00095EA0C0F3FF43BAF94EA0C0F0AD150EACB
:1010C00001347FF434AF95EA0C0F7FF425AF10465E
:1010D00019462CE795EA0C0F06D152EA03353FF486
:1010E000FDAE1046194622E750EA410618BF52EA03
:1010F00043067FF4C5AE50EA41047FF40DAF52EAD7
:1011000043057FF4EBAE12E74FF0FF3C06E000BF73
:101110004FF0010C02E000BF4FF0010C4DF804CD80
:101120004FEA410C7FEA6C5C4FEA430C18BF7FEA40
:101130006C5C1BD001B050EA410C0CBF52EA430C6E
:1011400091EA030F02BF90EA020F0020704710F1EE
:10115000000F91EA030F58BF994208BF90422CBF7D
:10116000D8176FEAE37040F0010070474FEA410C76
:101170007FEA6C5C02D150EA013C07D14FEA430C94
:101180007FEA6C5CD6D152EA033CD3D05DF8040B05
:10119000704700BF8446104662468C461946634637
:1011A00000E000BF01B5FFF7B7FF002848BF10F10E
:1011B000000F01BD4DF808EDFFF7F4FF0CBF012053
:1011C00000205DF808FB00BF4DF808EDFFF7EAFFCF
:1011D00034BF012000205DF808FB00BF4DF808ED8A
:1011E000FFF7E0FF94BF012000205DF808FB00BF7F
:1011F0004DF808EDFFF7CEFF94BF012000205DF809
:1012000008FB00BF4DF808EDFFF7C4FF34BF012015
:1012100000205DF808FB00BF4FEA410C7FEA6C5CE0
:1012200002D150EA013C0AD14FEA430C7FEA6C5CE0
:1012300002D152EA033C02D14FF0000070474FF058
:10124000010070474FEA410212F5001215D211D584
:101250006FF47873B3EB625212D94FEAC12343F0B3
:10126000004343EA505311F0004F23FA02F018BF35
:10127000404270474FF00000704750EA013005D1FE
:1012800011F0004008BF6FF0004070474FF00000C1
:10129000704700BF80B58CB00AAF04F081FF00F04A
:1012A0009FF904F019FE04F041FD04F01DFDFFF765
:1012B0004DF8BB1D184600F0FDFD00F009F90F4B7D
:1012C0005B6EBA1D0892032207920022069200224A
:1012D0000592002204924FF4807203920293074B0E
:1012E0000193022300930023054A0649064802F0B1
:1012F000D9FCBB1D184601F027F8FEE7A00A002024
:101300000D13000858EA0008CC09002080B586B00B
:1013100002AF786000F053F907F10E03184602F0AF
:1013200029FA04F00FFE084807F050FD00F00EF80F
:1013300007F10E03019300230093002300220121F3
:10134000002004F073F8F3E768EA000880B58CB079
:101350000AAF1C4B5B6EBA1D089203220792002253
:10136000069200220592002204924FF480720392AA
:101370000293144B0193032300930023124A134951
:10138000134802F08FFC134B5B6EBA1D08920322C8
:1013900007920022069200220592002204924FF446
:1013A0008072039202930B4B01930423009300235A
:1013B000094A0649094802F075FC00BF0837BD46D6
:1013C00080BD00BF740F0020E113000888EA000808
:1013D000A00E002048140020A1140008741300205F
:1013E00090B599B002AF7860002000F0E9F9274B82
:1013F0001B78072B3AD9254B1B7803F03F03DAB251
:10140000224B1A70214B1B785B424FF00004C7E956
:1014100014341F4B1B684FF00004D7E914125B18FB
:1014200044EB0204C7E91434D7E914014FF47A728B
:101430004FF00003FEF7A4FF03460C461A46144B78
:101440001A60134B1B681A46D7E9143407F10C00D5
:10145000CDE900340F4907F023FD07F10C031946CD
:101460000D4807F0B3FC094B00221A7007F14E0338
:10147000019300230093002301220021002003F0A8
:10148000D5FF064807F004FDAEE700BFE0180020D6
:10149000E4180020A0EA0008B4EA0008BCEA00084A
:1014A00080B586B002AF7860002000F061F907F1E6
:1014B0000E0301930023009300230122002100204A
:1014C00003F0B4FF014807F0E3FCEDE7E0EA0008B1
:1014D00080B582B000AF00237B60FEF73BFF7860F1
:1014E00004F07CFD0E4B0F4A1A600F4B0F4A1A6036
:1014F0000F4B104A1A60104B104A1A60104B114AD9
:101500001A60114B114A1A60114B124A1A6004F00A
:1015100085FD7868FEF722FF00BF0837BD4680BD15
:10152000B82A002059150008D82A0020651500089F
:10153000BC27002071150008B02800208315000882
:101540002026002095150008C42A0020A7150008B1
:10155000B4280020B315000880B400AF00BFBD461A
:1015600080BC704780B400AF00BFBD4680BC7047F0
:1015700080B483B000AF786000BF0C37BD4680BC3C
:10158000704780B483B000AF786000BF0C37BD46B1
:1015900080BC704780B483B000AF786000BF0C3768
:1015A000BD4680BC704780B400AF00BFBD4680BC64
:1015B000704780B400AF00BFBD4680BC704780B5A7
:1015C00000AF00F025F900F0A9F800F065FB00F08D
:1015D00047F900F081F900F0C1F900BF80BD0000BB
:1015E00080B584B000AF334A324B1B6C43F080535C
:1015F0001364304B1B6C03F08053BB60BB682E4AF6
:101600002D4B1B6843F4404313602B4B1B6803F4C2
:1016100040437B607B68294B01221A60274B4FF4C3
:1016200080325A60254B0022DA60244B02229A61F4
:10163000224B4FF48002DA61204B19221A621F4BB1
:101640004FF4D8725A621D4B02229A621B4B092238
:10165000DA621A4805F0A6F80346FB73FB7B002B01
:1016600000D0FEE705F04EF80346FB73FB7B002B32
:1016700000D0FEE7124B0F221A60114B02225A6073
:101680000F4B00229A600E4B4FF4A052DA600C4BC5
:101690004FF480521A610721094805F039FB0346CF
:1016A000FB73FB7B002B00D0FEE700BF1037BD466D
:1016B00080BD00BF00380240007000404818002084
:1016C0007C18002080B584B000AF0346FB71FB7925
:1016D000032B1BD801A252F823F000BFED1600081F
:1016E000F5160008FD1600080517000805F00EFCA9
:1016F000F8600EE005F088FCF8600AE005F08EFC6A
:10170000F86006E005F0ACFCF86002E00123FB6045
:1017100000BFFB6818461037BD4680BD80B586B057
:1017200000AF114A104B1B6B43F0020313630E4BC7
:101730001B6B03F002033B603B6803237B600123C8
:10174000BB600123FB6003233B613B1D1946074837
:1017500004F016FE002000F00BF8012000F008F85D
:1017600000BF1837BD4680BD00380240000402406B
:1017700080B582B000AF0346FB71FB79002B02D02D
:10178000012B06D00BE0012201210C4804F0A2FF3E
:1017900010E001220221094804F09CFF0AE0012226
:1017A0000121064804F096FF01220221034804F0BB
:1017B00091FF00BF00BF0837BD4680BD0004024056
:1017C00080B582B000AF0346FB71FB79002B02D0DD
:1017D000012B06D00BE0002201210C4804F07AFF17
:1017E00010E000220221094804F074FF0AE0002200
:1017F0000121064804F06EFF00220221034804F094
:1018000069FF00BF00BF0837BD4680BD000402402D
:1018100080B582B000AF0120FFF754FF7860786890
:1018200004F024FA00BF0837BD4680BD80B582B001
:1018300000AF7860002004F06DFD002318460837E3
:10184000BD4680BD80B582B000AFBB1C184603F01A
:10185000EFFE78607B6818460837BD4680BD000003
:1018600080B584B000AF1A4A194B1B6C43F00103DA
:101870001364174B1B6C03F001033B603B683B1D7B
:101880000C220021184607F053FA124B4FF0804209
:101890001A60104B40F2CF72DA600E4B4DF2EF221D
:1018A0005A600C4B00229A600A4805F0FBFB20238B
:1018B0007B608023FB603B1D1946064806F01CFB3D
:1018C000044805F01AFC00BF1037BD4680BD00BFBC
:1018D000003802406819002080B588B000AF3B1D79
:1018E0001C220021184607F023FA194A184B1B6CDA
:1018F00043F002031364164B1B6C03F002033B60BE
:101900003B68144B144A1A60124B40F2CF72DA60F3
:10191000104B4DF2EF225A600E4B00229A600D4898
:1019200005F005FC60237B6040F2E733BB600023D9
:10193000FB603B1D0C221946064806F043FB0C21B8
:10194000044805F01FFC00BF2037BD4680BD00BF26
:1019500000380240281900200004004080B582B001
:1019600000AF224A214B1B6C43F0080313641F4B4A
:101970001B6C03F008037B607B681D4B1D4A1A60DB
:101980001B4B6B225A601A4B00229A60184B4FF087
:10199000FF32DA60164B00221A61154805F026FC6A
:1019A00003461A46144B1A70144B00221A60134B4C
:1019B00000229A60114B0022DA60104B01225A601B
:1019C00000220E490A4805F0BCFD03461A460A4BA0
:1019D0001A700021064805F035FC03461A46064BEE
:1019E0001A7000BF0837BD4680BD00BF00380240F6
:1019F000E8180020000C00409018002094180020E7
:101A000080B588B000AF78607B681B68114A93424C
:101A10001BD1114A104B1B6B43F0020313630E4B97
:101A20001B6B03F00203BB60BB680223FB60022355
:101A30003B6101237B610323BB610223FB6107F14F
:101A40000C031946054804F09BFC00BF2037BD4637
:101A500080BD00BF00040040003802400004024086
:101A600080B584B000AF78607B681B68B3F1804FAD
:101A700014D1194A184B1B6C43F001031364164B25
:101A80001B6C03F00103FB60FB681C2004F069FC85
:101A9000022200211C2004F048FC18E07B681B682F
:101AA0000E4A934213D10C4A0B4B1B6C43F00203BA
:101AB0001364094B1B6C03F00203BB60BB681D2061
:101AC00004F04FFC032200211D2004F02EFC00BF77
:101AD0001037BD4680BD00BF003802400004004002
:101AE00080B58AB000AF78607B681B681B4A934260
:101AF0002FD11B4A1A4B1B6C43F008031364184B7D
:101B00001B6C03F008033B613B69322004F029FCA5
:101B100002220021322004F008FC114A104B1B6BFA
:101B200043F0010313630E4B1B6B03F00103FB60D7
:101B3000FB6801237B610223BB610223FB6103235A
:101B40003B6202237B6207F114031946054804F047
:101B500017FC00BF2837BD4680BD00BF000C004009
:101B6000003802400000024080B483B000AF7860CB
:101B70007B681B68094A93420BD1094B1B7803F021
:101B80004003002B05D0064B1B780133DAB2044B1F
:101B90001A7000BF0C37BD4680BC7047000C004077
:101BA000E018002080B500AF00F066FA034805F0A9
:101BB000A9FB00F07DFA00BF80BD00BF68190020BE
:101BC00080B500AF024805F09DFB00BF80BD00BF9F
:101BD0002819002080B500AF00F04EFA034805F048
:101BE00091FB00F065FA00BF80BD00BFE81800203F
:101BF00080B582B000AF78607B681B68234A93424F
:101C000040D1234B1B78002B02D0402B2BD039E046
:101C10001F4B40221A701F4B00221A607B681B6802
:101C20001A6A41F211131340002B0FD17B681B6815
:101C30001A6A40F244431340002B07D17B681B68AB
:101C40007A681268126822F001021A607B681B68C9
:101C500000225A627B681B687A681268126842F038
:101C600001021A600EE00A4B1B7863F07F03DAB2C0
:101C7000074B1A700021786805F000FD0246054BFD
:101C80001A6000BF00BF0837BD4680BD000C004091
:101C9000E0180020E418002080B500AF124B134A72
:101CA0001A60114B4FF416525A600F4B00229A6083
:101CB0000D4B0022DA600C4B00221A610A4B0C22F9
:101CC0005A61094B00229A61074806F043FB03461C
:101CD0001A46074B1A70064B1B780133DAB2044BD5
:101CE0001A7000BF80BD00BFA8190020004400404A
:101CF000A418002080B58CB000AF78607B681B68AA
:101D0000364A934232D1364A354B1B6C43F400338A
:101D10001364334B1B6C03F40033BB61BB69304A63
:101D20002F4B1B6B43F0010313632D4B1B6B03F015
:101D300001037B617B690423FB6102233B62002377
:101D40007B620023BB620723FB6207F11C03194679
:101D5000244804F015FB0823FB610723FB6207F10D
:101D60001C0319461F4804F00BFB32E07B681B681C
:101D70001D4A93422DD11A4A194B5B6C43F0100354
:101D80005364174B5B6C03F010033B613B69144ACF
:101D9000134B1B6B43F001031363114B1B6B03F0DD
:101DA0000103FB60FB684FF48063FB6102233B622D
:101DB00000237B620023BB620723FB6207F11C0345
:101DC0001946084804F0DCFA4FF40073FB6107235E
:101DD000FB6200BF3037BD4680BD00BF00440040FD
:101DE00000380240000002400010014080B584B07D
:101DF00000AFF860B9607A607B689AB24FF6FF7303
:101E0000B968044806F0F7FA7B6818461037BD46F3
:101E100080BD00BFA819002080B582B000AF154B6F
:101E20001B687B607B6803F00103002B07D07B6895
:101E300003F00203002B02D00F4B104A1A6001205E
:101E4000FFF740FC38600E4A0D4B1B6843F080736F
:101E500013600C4B00221A600B4A0B4B1B6843F0BB
:101E600001031360386804F05FF800BF0837BD460F
:101E700080BD00BFB41F00E0B01F00E055CEACC570
:101E8000FCED00E0041000E0001000E080B483B03E
:101E900000AF044B1B687B607B6818460C37BD465F
:101EA00080BC7047041000E080B400AF00BFBD46A6
:101EB00080BC704780B584B000AF786003F07AFDD5
:101EC000534B00221A70534B00221A70524B0022BF
:101ED0001A70524B00221A60514B00221A60514B6B
:101EE00000221A70504B00221A70504B1B68FB6086
:101EF000FB68002B0FD04E4B1B68BB6008E0BB6833
:101F0000013BBB60FB6800221A60FB680433FB6086
:101F1000BB68002BF3D1474B00221A60464B0022CE
:101F20001A60464B00221A60454B00221A60454B4E
:101F300000221A60444B00221A60444B00221A60AF
:101F4000434B00221A7001F0F3FA00F0B5FC414B4C
:101F500000221A60404B00221A80786800F0F6FEDA
:101F60007B681B88002B43D1786800F005FF7B68F5
:101F70001B88002B3ED1394B00221A60384B0022BF
:101F80001A80384B00221A60374B00221A80374BD8
:101F900000221A60364B00221A80786802F0C2FCD8
:101FA0007B681B88002B27D1786800F053FA7B6888
:101FB0001B88002B22D1786802F09AFE7B681B8870
:101FC000002B1DD1786801F003FE7B681B88002B75
:101FD00018D1786803F07CFB7B681B88002B13D139
:101FE00000F0A4FDFFF760FF224B01221A700CE005
:101FF00000BF0AE000BF08E000BF06E000BF04E049
:1020000000BF02E000BF00E000BF1037BD4680BD4A
:10201000C02800202D2600201C2600209C280020FF
:10202000A4280020C0270020B4270020ECEB0008E3
:10203000F0EB0008BC270020B0280020202600205C
:10204000B82A0020D82A0020C42A0020B428002062
:102050002C260020E02A0020DC2A0020D42B00209F
:10206000E82A0020782A0020A0280020B827002095
:102070007C2A0020B027002080B400AF0A4B1B78D8
:10208000012B0AD1094B1B78F92B08D8074B1B7879
:102090000133DAB2054B1A7002E000BF00E000BF66
:1020A000BD4680BC704700BF2D260020C028002000
:1020B00080B582B000AF00237B602B4B1B78012BD7
:1020C0004ED1FEF747F97860284B1B78002B03D1DF
:1020D0007868FEF743F944E0244B1B78013BDAB201
:1020E000224B1A70214B1B78002B03D07868FEF727
:1020F00035F936E01E4B1B78002B03D07868FEF7CD
:102100002DF92EE001F02CFA03461A46194B1A70ED
:10211000184B1B781946184A0B465B000B449B0072
:1021200013441B68154A1360144B1A68144B1B6840
:102130009A4203D17868FEF711F912E00F4B1B6841
:10214000D3F8A0200132C3F8A0200E4B1B68013346
:102150000C4A1360FEF7CCF87868FEF7FFF800E051
:1021600000BF0837BD4680BD2D260020C0280020B6
:102170001C260020B427002030260020A4280020A0
:102180009C280020BC28002080B582B000AF00232E
:102190007B60204B1B78002B36D11F4B1B78002B0C
:1021A00034D1FEF7D7F8786001F0DAF903461A4621
:1021B0001A4B1A70194B1B781946194A0B465B00CB
:1021C0000B449B0013441B68164A1360154B1A6896
:1021D000154B1B689A4203D17868FEF7BFF816E0EA
:1021E000104B1B68D3F8A0200132C3F8A0200F4B7E
:1021F0001B6801330D4A1360FEF775F87868FEF727
:10220000ADF8BFF36F8F02E000BF00E000BF0837FA
:10221000BD4680BDC02800201C260020B427002019
:1022200030260020A42800209C280020BC28002064
:1022300080B584B000AF78600023FB60184B1B783A
:10224000002B04D07B6846F662521A8024E0154BBE
:102250001B78012B04D07B6845F689621A801BE04D
:10226000114B1B78F92B04D97B6845F209221A809F
:1022700012E0FEF76FF8F86003F0B0FE0A4B1B782F
:102280000133DAB2084B1A7003F0C8FEF868FEF7A3
:1022900065F87B6800221A801037BD4680BD00BFFC
:1022A000C02800202D2600201C26002080B584B0E8
:1022B00000AF78600023FB60204B1B78002B04D01C
:1022C0007B6846F665521A8034E01D4B1B78012B63
:1022D00004D07B6845F689621A802BE0194B1B7885
:1022E000002B04D17B6846F664521A8022E0FEF788
:1022F00031F8F86003F072FE124B1B78013BDAB242
:10230000104B1A700F4B1B78002B09D003F086FE80
:10231000F868FEF723F87B6846F663521A8009E0F6
:1023200003F07CFEF868FEF719F8FFF72DFF7B68D5
:1023300000221A801037BD4680BD00BFC028002093
:102340002D2600201C26002080B584B000AF7860C8
:10235000274B1B78012B04D07B6845F68B621A80D3
:1023600043E00023FB81FB890133FB81FB890133BF
:10237000FB81FB890133FB81FB890133FB811D4B11
:102380001B88FA899A4204D37B6845F68C621A80CE
:102390002BE0194B1B78002B23D101F0E1F8034609
:1023A0001A46164B1A70154B1A78154B1A70134BA8
:1023B0001B781946134A0B465B000B449B001344E1
:1023C0001B68114A1360104B1B68104A13600A4BBC
:1023D00001221A70FDF74AFF7B6843F699221A80A2
:1023E00003E07B6845F68A621A801037BD4680BDDF
:1023F000B0270020C22800202D260020B42700206E
:10240000C027002030260020A42800209C2800207F
:1024100080B584B000AF78600023FB60FDF79AFFC1
:10242000F86003F0DBFD094B1B680133074A1360BA
:10243000074B1B680133064A136003F0EFFDF86891
:10244000FDF78CFF03F0A8FAE8E700BFD02A0020D0
:102450002826002080B58CB00AAF7860104B00228F
:102460001A60104B1B68104A126810490968786896
:1024700008900B2007900020069000200590002077
:1024800004900391029201931F2300930023084AB2
:102490000849094801F006FC00BF0837BD4680BD69
:1024A000D02A0020E0EB0008E4EB0008E8EB00088D
:1024B0001124000804EB0008A429002080B586B090
:1024C00000AFF8600B467A60FB72174B1B68FA7A14
:1024D00083F83C20144B1B68002283F83D20124BEC
:1024E0001B687968184600F001FBFB68002B0DD0D3
:1024F000FB6808337B610C4B1B68FA689A630A4BD4
:102500001B681946786900F09EF803E0064B1B68CB
:1025100000229A63044B1B681946F86800F006F81D
:1025200000BF1837BD4680BD9C28002080B485B010
:1025300000AF786039607B68002B0FD07B685A68E9
:102540003B68C3F8D0207B680833FB60FB681B68DE
:10255000BB60BB689A687B68DA6116E03B6893F8F9
:102560003C30022B02D0072B05D009E03B68094A1A
:10257000C3F8D02009E03B68074AC3F8D02004E044
:102580003B68064AC3F8D02000BF00BF1437BD46E1
:1025900080BC704718EB000820EB00082CEB00080B
:1025A00080B485B000AF786039603B680D4AC3F8ED
:1025B000D0207B68002B10D07B680833FB60FB6861
:1025C0001B68BB60BB68002B04D0BB689A687B6843
:1025D000DA6102E07B68034ADA6100BF1437BD4666
:1025E00080BC70472CEB000880B584B000AF7860E9
:1025F0007B689B6BFB60FB680833BB60BB681B6838
:102600001B6B002B09D0786800F088F87B68FA68AB
:102610009A637968B86800F016F800BF1037BD46B5
:1026200080BD80B483B000AF78607B6800221A6000
:102630007B6800225A607B6800221A8100BF0C3739
:10264000BD4680BC704780B485B000AF786039600B
:102650003B6893F83F30FB727B681B68002B0FD1FF
:102660007B6801221A813B6800221A633B680022C2
:102670005A637B683A681A607B683A685A6048E037
:102680007B681B8901339AB27B681A817B681B685F
:10269000FB6008E0FB6893F83F30FA7A9A4206D371
:1026A000FB681B6BFB60FB68002BF3D100E000BFF5
:1026B000FB68002B0ED13B6800221A637B685A68C6
:1026C0003B685A633B685B6B3A681A637B683A689D
:1026D0005A601EE0FB685B6B002B0CD13B68FA680C
:1026E0001A633B6800225A63FB683A685A637B6846
:1026F0003A681A600DE03B68FA681A63FB685A6B27
:102700003B685A633B685B6B3A681A63FB683A68DC
:102710005A6300BF1437BD4680BC704780B487B091
:1027200000AF78607B689B6B002B46D07B689B6B0F
:1027300008337B617B691B681B6B002B06D17B69AF
:1027400000221A607B6900225A6027E07B685B6B7D
:10275000002B09D17B681B6B3B613B6900225A63EC
:102760007B693A691A6019E07B681B6B002B09D101
:102770007B685B6BFB60FB6800221A637B69FA680D
:102780005A600BE07B685B6BFB607B681B6B3B619B
:10279000FB683A691A633B69FA685A637B691B896B
:1027A000013B9AB27B691A817B6800221A637B68BD
:1027B00000225A637B6800229A6300BF1C37BD4623
:1027C00080BC704780B584B000AFF860B9607A60B3
:1027D0007B80BB6893F83E30072B68D801A252F883
:1027E00023F000BFAF280008AF2800080528000824
:1027F00005280008AF280008AF2800085D28000859
:102800005D280008BB687A681A66BB687A88A3F8F6
:102810006420BB68BA691A65FB68002B02D0B868EF
:10282000FFF77CFFB968F868FFF7BAFEBB6893F85A
:102830003E30032B02D1B86802F0D8FBB86800F034
:102840005FF8BB68002283F83E20BB68002283F853
:102850003D20BB68002283F83C2029E0BB687A68F1
:102860001A66BB687A88A3F86420BB68BA691A65DF
:10287000FB68002B02D0B868FFF750FFB968F86812
:10288000FFF78EFEBB6893F83E30072B02D1B86885
:1028900002F0ACFBBB68042283F83E20BB68002238
:1028A00083F83D20BB68002283F83C2000E000BF95
:1028B00000BF1037BD4680BD80B483B000AF002399
:1028C0007B6013E07A6813465B0013449B000B4A5D
:1028D00013443B603B6800221A813B6800221A6067
:1028E0003B6800225A607B6801337B607B681F2B4A
:1028F000E8D900BF0C37BD4680BC704730260020A9
:1029000080B582B000AF78607B6893F83F3018469E
:1029100000F03EFE7B6893F83F20074B1B789A42FD
:1029200003D1786800F04AF802E0786800F006F811
:1029300000BF0837BD4680BDC027002080B485B0E9
:1029400000AF78607B6893F83F301A4613465B000F
:1029500013449B00184A1344FB60FB681B68002B60
:102960000FD1FB6801221A817B6800221A617B6803
:1029700000225A61FB687A681A60FB687A685A60BC
:1029800015E0FB681B8901339AB2FB681A81FB686A
:102990001A687B681A617B6800225A61FB681B68B1
:1029A000BB60BB687A685A61FB687A681A6000BFCE
:1029B0001437BD4680BC70473026002080B485B0F7
:1029C00000AF78607B6893F83F301A4613465B008F
:1029D00013449B00184A1344FB60FB681B68002BE0
:1029E0000FD1FB6801221A817B6800221A617B6883
:1029F00000225A61FB687A681A60FB687A685A603C
:102A000014E0FB681B8901339AB2FB681A817B686A
:102A100000221A61FB685B68BB607B68BA685A6118
:102A2000BB687A681A61FB687A685A6000BF14371D
:102A3000BD4680BC704700BF3026002080B586B000
:102A400000AF78607B6893F83F301A4613465B000E
:102A500013449B00244A13447B617B685B693B61A0
:102A60007B681B69FB603B69002B1FD1FB68002B57
:102A70000FD17B6900221A817B6900221A607B6971
:102A800000225A607B6893F83F30184600F0A4FD9E
:102A90001FE07B691B89013B9AB27B691A81FB6845
:102AA00000225A617B69FA681A6012E07B691B890F
:102AB000013B9AB27B691A813B69FA681A61FB682B
:102AC000002B03D17B693A695A6002E0FB683A69DE
:102AD0005A617B6800225A617B6800221A6100BF3C
:102AE0001837BD4680BD00BF3026002080B582B0BB
:102AF00000AF786039603B68002B09D03A6879688C
:102B0000094802F061F97B68032283F83E2003E064
:102B10007B68022283F83E207868FFF78FFF00BFB2
:102B20000837BD4680BD00BFE42B002080B485B0CF
:102B300000AF444BFB60444BBB60444BFB60444BD9
:102B4000FB60444BBB60444BFB60444B7B60444B9D
:102B5000FB60444BFB60444BFB60444BFB60444BCD
:102B60007B60444B7B60444B7B60444BFB60444B3D
:102B70007B60444BFB60444B7B60444B7B60444B2D
:102B80007B60444B7B60444BFB60444BFB60444B9D
:102B9000FB60444B7B60444BFB60444B7B60444B8D
:102BA0007B60444B7B60444B7B60444B7B60444B7D
:102BB0007B60444BFB60444BFB60444BFB60444BED
:102BC000FB60444B7B60444B7B60444B7B60444BDD
:102BD000FB60444BFB60444BFB60444B7B60444BCD
:102BE0007B60444B7B60444BBB60444B7B60444BFD
:102BF000FB60444BFB60444BFB60444BFB60444B2D
:102C0000FB60444BFB60444BFB60444B7B60444B9C
:102C1000FB60444BFB60444B7B60444B7B60444B0C
:102C2000FB60444BFB60444B7B60444BFB60444B7C
:102C3000FB60444B7B60444B7B6000BF1437BD4658
:102C400080BC70473CEC0008A0ED00083DEC00089B
:102C50003EEC000840EC000844EC000848EC00089A
:102C600045EC000870EC000871EC000872EC0008FC
:102C700074EC000876EC000878EC000898EC00088A
:102C80009AEC00089CEC00089EEC0008A0EC000800
:102C9000A2EC0008A4EC0008D4EC0008D5EC000875
:102CA000D6EC0008D8EC0008DAEC0008DCEC0008F0
:102CB000DEEC0008E0EC0008E2EC0008E4EC0008C0
:102CC000E8EC000818ED000819ED00081AED0008FE
:102CD0001BED00081CED00081EED000820ED0008AB
:102CE00048ED000849ED00084AED00084BED0008EA
:102CF0004CED00084EED000850ED000854ED0008C2
:102D000055ED000856ED000857ED000858ED000895
:102D100059ED00085AED00085BED00085CED000875
:102D20005EED00085FED000860ED000862ED000850
:102D300064ED000865ED000868ED000898ED0008F6
:102D400099ED00089AED00089CED000880B483B06E
:102D500000AF7860064B00221A60064B00221A80F2
:102D60007B6800221A8000BF0C37BD4680BC7047CC
:102D7000802A0020E62A002080B487B000AF786067
:102D80002D4B1B68002B04D17B6845F21E721A8004
:102D90004EE02A4B1B88002B04D17B6845F21D7244
:102DA0001A8045E0244B1B687B61234B1B683B6109
:102DB0003B6910333B61214B1B88013BBB810023E6
:102DC000FB8114E07B693A691A607B6900225A60D2
:102DD0007B6900221A817B690022DA607B691033EB
:102DE0007B613B6910333B61FB890133FB81FA89CD
:102DF000BB899A42E6D37B6900221A607B69002274
:102E00005A607B6900221A817B690022DA600A4BD2
:102E10001B680B4A1360094B1A88094B9A80084BB0
:102E20000022DA80064B00221A817B6800221A8079
:102E30001C37BD4680BC7047F8EB0008F4EB000877
:102E40009829002080B485B000AF78607B685B89EA
:102E5000FB817B685B89002B26D07B681B68BB608D
:102E6000144B1A68BB681A607B685B68114A136070
:102E7000104BDA887B685B89D31A9AB20D4BDA80E3
:102E80000C4B9A887B685B8913449AB2094B9A80F1
:102E90007B6800225A817B6800229A817B6800222D
:102EA0001A607B6800225A60FB8918461437BD46B9
:102EB00080BC70479829002080B483B000AF786050
:102EC0000B467B807B687A881A817B6800225A8156
:102ED0007B6800229A817B6800221A607B6800224E
:102EE0005A6000BF0C37BD4680BC704780B586B0C5
:102EF00000AFF860B9607A6000237B61204B1B78DB
:102F0000002B04D07B6842F6E1621A8035E0FB6852
:102F1000002B04D17B6845F6C3521A802DE0FDF7E3
:102F200019FA786103F05AF8FB68164A1A60FB68D0
:102F3000BA685A60FB6800221A62FB6800225A6273
:102F4000FB68002283F82820FB680022DA62FB6815
:102F500008331846FFF765FBF86800F029FA0A4BBA
:102F60001B8801339AB2084B1A8003F057F878692E
:102F7000FDF7F4F97B6800221A801837BD4680BD42
:102F8000C02800204D555458E82A002080B586B04E
:102F900000AFF860B9603B601346FB8000237B61A3
:102FA0008C4B1B78002B04D03B6A46F2AE121A8081
:102FB0000DE1FB68002B04D13B6A45F6C3521A8031
:102FC00005E1FB88002B07D0B3F5004F04D03B6A26
:102FD00045F625621A80FAE000BFFB681B687E4A4E
:102FE000934204D03B6A45F6C4521A80EFE0FDF7E5
:102FF000B1F9786102F0F2FFFB6893F82830002BFA
:103000001DD1764B1A68FB685A62FB68012283F86F
:1030100028203B68002B03D0FB68DA6A3B681A6003
:103020006E4B1B68F968184600F0E8F902F0F6FFED
:103030007869FDF793F93B6A00221A80C7E0FB68C4
:103040005A6A664B1B689A4227D1FB6893F828306E
:10305000FF2B09D102F0E2FF7869FDF77FF93B6AA7
:1030600045F284721A80B2E0FB6893F8283001338D
:10307000DAB2FB6883F828203B68002B03D0FB689A
:10308000DA6A3B681A6002F0C9FF7869FDF766F9F1
:103090003B6A45F282721A8099E0B7F90630002B3C
:1030A0000FDA02F0BBFF7869FDF758F93B68002B97
:1030B00002D03B6800221A603B6A46F2B0121A80C6
:1030C00085E0474B1B78002B0FD002F0A7FF7869F3
:1030D000FDF744F93B68002B02D03B6800221A60E0
:1030E0003B6A46F663521A8071E0FB685B6A3B619B
:1030F0003B6993F83F20394B1B6893F83F309A4265
:1031000007D9364B1B6893F83F301946386901F0F0
:1031100011FDBA680421F868FFF7D0F902F07EFFCC
:103120007869FDF71BF9FFF72FF8FDF713F97861C0
:1031300002F054FF294B1B6893F83D30032B3CD819
:1031400001A252F823F000BF593100087131000884
:10315000A13100088B3100083B68002B04D01F4BC5
:103160001B681A6D3B681A603B6A00221A8029E0CE
:103170003B68002B04D0194B1B681A6D3B681A6022
:103180003B6A46F2A9121A801CE03B68002B02D071
:103190003B6800221A603B6A47F2D9221A8011E08C
:1031A0003B68002B04D00D4B1B681A6D3B681A60FE
:1031B0003B6A45F6C2521A8004E03B6A46F62E622C
:1031C0001A8000BF02F02AFF7869FDF7C7F81837A8
:1031D000BD4680BDC02800204D5554589C28002075
:1031E0001C26002080B58CB002AFF8600B467A60D8
:1031F0007B8100237B626A4B1B78002B04D07B68A9
:1032000046F20E221A80C7E0FB68002B04D17B68CF
:1032100045F6C3521A80BFE07B89002B07D0B3F577
:10322000004F04D07B6845F625621A80B4E000BFE9
:10323000FB681B685B4A934204D07B6845F6C45226
:103240001A80A9E0FDF786F8786202F0C7FEFB68F5
:103250005A6A554B1B689A4209D002F0DFFE786A21
:10326000FDF77CF87B6845F281721A8094E0FEF7E6
:103270000DFE3862FB683A6ADA62FB6893F8283020
:10328000013BDAB2FB6883F82820FB6893F828300A
:10329000002B09D002F0C2FE786AFDF75FF87B6868
:1032A00045F283721A8077E03F4B1B68F968184635
:1032B00000F0B5F8FB680833FB61FB691B68002B65
:1032C0000FD1FB6800225A62FB68002283F8282095
:1032D00002F0A4FE786AFDF741F87B6800221A80AC
:1032E0005AE0314B1B6893F83F202F4B1B6893F833
:1032F00040309A422CD02C4B1B68184600F0ABF89B
:103300000346FB76284B1B6893F84020FB7E9342D4
:1033100028BF1346FB76244B1B6893F83F30FA7E98
:103320009A4215D9204B1B681846FFF787FB1E4BA6
:103330001B68FA7E83F83F20FB7E184600F028F9D0
:10334000194B1B681846FFF739FB184AFB7E1370B0
:10335000FB691B687B61FB687A695A62FB68012222
:1033600083F82820F968786900F048F83B6A0093F0
:10337000002300227969F868FFF724FA02F04EFE74
:10338000786AFCF7EBFFB7F90A30002B01DBFEF798
:10339000FBFE7B6800221A802837BD4680BD00BF37
:1033A000C02800204D5554589C280020C0270020DC
:1033B00080B483B000AF78607B680E4ADA617B68C6
:1033C00000225A610C4B1B68002B03D17B68002242
:1033D0009A6107E0084B1A687B689A61064B1B6884
:1033E0007A685A61044A7B68136000BF0C37BD4697
:1033F00080BC704738EB0008D42B002080B483B029
:1034000000AF786039607B685A6C3B681A627B68F1
:103410003A685A6400BF0C37BD4680BC704780B420
:1034200085B000AF786039607B684433FB6003E0AF
:10343000FB681B682033FB60FB681A683B689A4294
:10344000F6D1FB681B681A6AFB681A6000BF143764
:10345000BD4680BC704780B487B000AF78601F2342
:10346000FB747B6844337B6114E07B691B689B6859
:10347000FB60FB68002B09D0FB6893F83F30FB72C0
:10348000FA7AFB7C9A4201D2FB7AFB747B691B6857
:1034900020337B617B691B68002BE6D1FB7C1846DF
:1034A0001C37BD4680BC704780B58AB002AF7860DB
:1034B0007B685B6CFB6133E0FB691B6ABB61FEF7F9
:1034C000E5FC7861FB697A69DA62F9697868FFF787
:1034D000A6FFFB6908333B613B691B68002B07D1E2
:1034E000FB69002283F82820FB6900225A6215E05C
:1034F0003B691B68FB60FB697A685A62FB690122C1
:1035000083F82820F969F868FFF778FF7B69009352
:1035100000230022F968F869FFF754F9BB69FB61E1
:10352000FB69002BC8D100BF2037BD4680BD00001D
:1035300080B483B000AF00237B6007E0074A7B685C
:10354000002142F823107B6801337B607B68002BED
:10355000F4D000BF0C37BD4680BC70471826002051
:1035600080B582B000AF0023FB71084B3B603B6825
:103570001B681846FCF7F9FE0346DAB2FB791344E0
:10358000FB71FB7918460837BD4680BD1826002020
:1035900080B487B000AF0346FB710023FB75FB7955
:1035A0003B610123FB603B69C3F11F03FA6802FA28
:1035B00003F3FB60FB7DFA7D064951F82210FA689F
:1035C0000A43044941F8232000BF1C37BD4680BC94
:1035D000704700BF1826002080B487B000AF0346B4
:1035E000FB710023FB75FB793B610123FB603B69A9
:1035F000C3F11F03FA6802FA03F3FB60FB7DFA7D57
:10360000064951F82210FA68D2430A40034941F8AA
:10361000232000BF1C37BD4680BC70471826002001
:1036200080B586B000AF78600023FB60FCF792FEA7
:10363000F86002F0D3FC474B00221A80464B002270
:103640001A60464B00221A60454B00221A60454B17
:1036500000221A6002F018FD434B00221A8102F08A
:10366000DDFCF868FCF77AFEFCF774FEF86002F007
:10367000B5FC3E4B1B687B6102F0D0FCF868FCF7A0
:103680006DFE38E0FCF766FEF86002F0A7FC7B698F
:103690000022C3F8C4207B690022DA677B6900221C
:1036A000C3F8B8207B690022C3F8A0207B69002200
:1036B000A3F89A207B690022A3F89C207B69002252
:1036C000C3F8AC207B690022C3F8B020FEF7DEFB14
:1036D00002467B69C3F8A8207B696833BB60BB687E
:1036E00000229A817B69D3F8CC307B6102F096FC92
:1036F000F868FCF733FE7B69002BC3D1FCF72AFE88
:10370000F86002F06BFC1A4B1B683B6102F086FC10
:10371000F868FCF723FE12E0FCF71CFEF86002F0EC
:103720005DFC3B692033BB60BB6800229A813B692A
:103730009B693B6102F072FCF868FCF70FFE3B6985
:10374000002BE9D17B6800221A8000BF1837BD46E4
:1037500080BD00BFA228002024260020C82B002006
:10376000AC280020CC2A002098290020A82800207E
:10377000782A002080B586B000AF786000233B61D6
:1037800007F10E031946364800F08EFFFB89002B27
:1037900003D0FA897B681A805EE007F10E031A46AF
:1037A0000021022001F0D2FDFB89002B03D0FA8911
:1037B0007B681A8050E0FCF7CDFD386102F00EFC0A
:1037C000284B00221A6002F029FC3869FCF7C6FD7C
:1037D00000237B61244B1A68244B1B689A4206D94C
:1037E000214B1A68214B1B68B2FBF3F37B617B69A9
:1037F000002B06D11C4B1B681D4AA2FB0323DB08D0
:103800007B6107F10E031A460021786901F09EFDE5
:1038100007F10E031946124800F04EFCFB89002BFD
:1038200003D0FA897B681A8016E0FCF793FD3861B3
:1038300002F0D4FB0F4B00221A600A4B1B680E4AA1
:1038400013600E4B01221A7002F0E8FB3869FCF796
:1038500085FD7B6800221A801837BD4680BD00BFF9
:10386000C42800202826002014EC000800EC0008E2
:10387000CDCCCCCC24260020BC2A0020B5270020AB
:1038800080B590B000AF78600023BB6108E0904B3A
:103890001B685B0007F10A020021184601F056FD83
:1038A0008C4B1B78012BF2D107F10A031846FFF766
:1038B000B7FE0023FB61884B1A68854B1B689A4250
:1038C00006D9854B1A68824B1B68B2FBF3F3FB6188
:1038D000FB69002B06D1804B1B68804AA2FB0323A7
:1038E000DB08FB61FEF7D2FA786102F05DFB02466D
:1038F0007B4B1A60FCF72EFDB86102F06FFB794B31
:103900001B68794A1360774B00221A6002F086FB2D
:10391000B869FCF723FD754B1A68734B1B689A4214
:103920004FD9724B1B68724A934205D842F210730A
:103930007B6201233B6224E06C4B1B686D4A93421F
:1039400005D84FF47A737B620A233B6219E0674B18
:103950001B68694A934204D864237B6264233B62F8
:103960000FE0624B1B68654A934205D80A237B62CD
:103970004FF47A733B6204E001237B6242F21073DE
:103980003B625A4B1A683B6AB2FBF3F33B61564BFE
:103990001B687A6A02FB03F23B69B2FBF3F39AB24B
:1039A00042F210739B1A9AB2554B1A80554B1A88E3
:1039B000534B1B889A4207D2514B1A88514B1A809D
:1039C00002E04F4B00221A8002F010F80023BB6384
:1039D000FCF7C0FCB86102F001FB4B4B1B68BB62FB
:1039E00002F01CFBB869FCF7B9FC27E0FCF7B2FC5D
:1039F000B86102F0F3FABB6AD3F8AC20BB6AC3F833
:103A0000B020BB6A0022C3F8AC2002F007FBB86903
:103A1000FCF7A4FCBB6AD3F8B030BA6B1344BB63A9
:103A2000FCF798FCB86102F0D9FABB6AD3F8CC3045
:103A3000BB6202F0F3FAB869FCF790FCBB6A002B9A
:103A4000D4D1BB6B002B31D0BB6B294A934205D834
:103A500042F210733B6301237B6321E0BB6B254A79
:103A6000934205D84FF47A733B630A237B6317E0D4
:103A7000BB6B214A934204D864233B6364237B637A
:103A80000EE0BB6B1D4A934205D80A233B634FF4FB
:103A90007A737B6304E001233B6342F210737B6320
:103AA000BA6B7B6BB2FBF3F3FB6203E000233B6377
:103AB0000123FB62FCF74EFCB86102F08FFA124B57
:103AC0001B68BB6202F0AAFAB869FCF747FC56E033
:103AD00000EC0008B527002014EC0008CDCCCCCCBD
:103AE000CC2A002028260020D42A0020BC2A00202E
:103AF0007F1A0600FF083D00FF596202FF83D717B7
:103B0000B8280020A2280020A8280020BB6AD3F8EB
:103B1000B0303A6B02FB03F2FB6AB2FBF3F3FB87B4
:103B2000FB8F42F21072934202D942F21073FB876C
:103B3000BB6AFA8FA3F89A20BB6AB3F89C30FA8F5D
:103B40009A4203D9BB6AFA8FA3F89C20BB6A03F19F
:103B5000C001BB6A03F1BC0207F10A03B86A00F0B6
:103B600023FDFCF7F7FBB86102F038FABB6AD3F823
:103B7000CC30BB6202F052FAB869FCF7EFFBBB6ACB
:103B8000002BC3D1104B1B78012B07D10E4B002209
:103B90001A7007F10A031846FFF742FDFEF776F99F
:103BA00002467B69D31AFB60084B1A68FB689A428D
:103BB00002D2064AFB68136007F10A031A46002185
:103BC000F86901F0C3FB8DE6E42A002024260020DA
:103BD00090B58DB00AAF7860254B00221A60254B56
:103BE00000221A60244B00221A60244B00221A7013
:103BF000234B00221A70234B1B68002B04D17B68D7
:103C000046F62B621A802FE01F4B1A681F4B1B6869
:103C10009A4204D27B6846F62C621A8024E01C4B40
:103C20001B781E2B04D97B6846F62A621A801BE09B
:103C3000174B1B78134A1268164909681248006826
:103C40007C680894032407940024069400240594B7
:103C500000240494039002910192009300230E4AE1
:103C60000E490F4800F01EF80C37BD4690BD00BF4E
:103C700028260020D42A0020BC2A0020B5270020B6
:103C8000E42A002004EC00080CEC000810EC00080A
:103C9000FCEB000808EC0008813800083CEB000849
:103CA000EC2A002080B58CB002AFF860B9607A6071
:103CB0003B600023BB61814B1B78002B04D03B6D24
:103CC00047F24A121A80F6E0FB68002B04D13B6DE4
:103CD00047F2AD121A80EEE07B68002B04D13B6DF9
:103CE00047F24F121A80E6E07B6B002B04D13B6D4C
:103CF00046F62F621A80DEE0714B1B68FA6B9A421F
:103D000004D23B6D46F630621A80D4E0BA6BFB6B8E
:103D10009A4204D33B6D46F631621A80CBE097F8A5
:103D200030301E2B08D997F830301F2B04D03B6D54
:103D300046F273221A80BEE097F830301F2B08D16C
:103D4000FB68604A934204D03B6D46F273221A80AE
:103D5000B1E0F86800F002FE3B6D00221A80B7F86F
:103D60004C3003F00103002B05D1B7F84C3003F0C1
:103D70000203002B17D0B7F84C3003F00203002BDE
:103D800011D07B6BFB6100237B6208E0FB690022A2
:103D90001A60FB690433FB617B6A01337B627A6AD8
:103DA000FB6B9A42F2D3BB6B9B007A6B13447B6133
:103DB000B7F84C300193FB6B00937B697A6B3968E1
:103DC000786801F057FEF861FA697B6B9A4204D279
:103DD0003B6D46F62C621A806DE0FB687A689A6249
:103DE000FB683A68DA62FB68BA689A60FB6897F821
:103DF000302083F83F20FB6897F8302083F840207C
:103E0000FB68FA691A60FB687A69DA60FB68BA6C69
:103E10005A60FB687A6B5A62FB68FA6B9A64FB68BB
:103E2000B7F84C20A3F84C20002387F823300BE090
:103E300097F82320FB682032002143F8221097F8DE
:103E40002330013387F8233097F82330002BEFD04D
:103E5000FB686833B7F8402011461846FFF72CF886
:103E6000F86801F0D1FDFCF775FAB86102F0B6F818
:103E7000FB6893F83F301846FFF78AFBF868FEF7B7
:103E80009DFDF86800F0E6FC0F4B1B8801339AB2E9
:103E90000D4B1A800D4B1B78012B05D002F0BEF89C
:103EA000B869FCF75BFA06E002F0B8F8B869FCF70D
:103EB00055FAFEF769F92837BD4680BDC0280020B5
:103EC00010EC0008A4290020C22800202D26002084
:103ED00080B586B000AF7860396000233B61724BDB
:103EE0001B78002B04D03B6847F24E121A80D8E0B2
:103EF0007B686E4A934204D13B6847F24C121A80A9
:103F0000CFE07B68002B0CD1FCF724FA386102F07B
:103F100065F8674B1B687B6002F080F83869FCF736
:103F20001DFAFCF717FA386102F058F87B6893F82D
:103F30003E30072B7FD801A252F823F05D3F0008E6
:103F4000653F00086D3F00086D3F00084B400008CA
:103F5000653F00086D3F00086D3F00087868FEF778
:103F60006DFD75E0786801F041F871E07B6893F8C9
:103F70003C30072B4ED801A252F823F01540000820
:103F80009D3F00081540000815400008A53F0008A7
:103F90009D3F00089D3F0008154000087868FEF727
:103FA000BDFB3AE07B689B6B5B6AFB60FB6893F848
:103FB0003F30FB757868FEF7B1FBFB6893F83F2054
:103FC000FB6893F840309A4214D0FB6893F83F2086
:103FD0007B6893F83F309A420CD1F868FFF73BFAC0
:103FE0000346FB75FB6893F84020FB7D934228BF96
:103FF0001346FB757B68002283F83C20FB6893F82E
:104000003F30FA7D9A4207D0FB7D1946F86800F0F0
:1040100091FD01E000BF00E000BF7B6893F83E30F7
:10402000032B04D07B6893F83E30072B0FD17868C0
:1040300000F0DCFF0BE001F0F1FF3869FCF78EF9CE
:104040003B6846F62D621A802BE000BF00E000BFFF
:104050007B685B6C002B02D07868FFF725FA7B68E1
:1040600068331846FEF7EEFE786801F0DFFC7868EA
:1040700000F016FC0F4B1B88013B9AB20D4B1A80C7
:10408000786800F06BFC7B68FF2283F83E203B6879
:1040900000221A8001F0C2FF3869FCF75FF9FEF7D1
:1040A00073F81837BD4680BDC0280020A429002021
:1040B0009C280020C228002080B584B000AF786022
:1040C00039600023FB605E4B1B78002B04D03B68FB
:1040D00047F255121A80B0E0FCF73CF9F86001F0A5
:1040E0007DFF7B68002B04D0564B1B687A689A4290
:1040F00009D101F093FFF868FCF730F93B6847F20B
:1041000057121A8099E001F089FFF868FCF726F948
:10411000FCF720F9F86001F061FF3B6800221A808B
:104120007B6893F83E30072B7BD801A252F823F02E
:104130005141000851410008514100085141000817
:104140006541000899410008C7410008F541000891
:1041500001F064FFF868FCF701F93B6847F253127D
:104160001A8068E07B6893F89830013BDAB27B688C
:1041700083F898207B6893F89830002B06D17B68F1
:10418000002283F83E207868FEF7BAFB01F046FF74
:10419000F868FCF7E3F84EE07B6893F89830013B51
:1041A000DAB27B6883F898207B6893F89830002B0C
:1041B00003D17B68012283F83E2001F02FFFF868CD
:1041C000FCF7CCF837E07B6893F89830013BDAB223
:1041D0007B6883F898207B6893F89830002B03D194
:1041E0007B68022283F83E2001F018FFF868FCF794
:1041F000B5F820E07B6893F89830013BDAB27B6831
:1042000083F898207B6893F89830002B03D17B6863
:10421000032283F83E2001F001FFF868FCF79EF8C6
:1042200009E001F0FBFEF868FCF798F83B6846F6F9
:104230002D621A8001E0FDF7A7FF1037BD4680BD53
:10424000C02800209C28002090B587B000AFF860FF
:104250007A603B600B467B8100237B61784B1B7847
:10426000002B05D03B6846F2AE121A800023E3E033
:104270007B89002B08D0B3F5004F05D03B6845F68D
:1042800025621A800023D7E000BFFCF763F878614D
:1042900001F0A4FE6B4B1B685B6D002B37D0694BA4
:1042A0001B685A6D013A5A65664B1B685B6D3B6132
:1042B0007B68002B04D0634B1B681A6D7B681A6007
:1042C000604B1C68FDF7E2FD02465E4B1B681B6DF0
:1042D000D31AC4F8B4305B4B1B68D3F8B820594BE1
:1042E0001B68D3F8B4309A4207D2564B1B68554A24
:1042F0001268D2F8B420C3F8B82001F08FFE7869B4
:10430000FCF72CF83B6800221A803B6994E0B7F96F
:104310000A30002B10DA01F081FE7869FCF71EF8F4
:104320007B68002B02D07B6800221A603B6846F253
:10433000B0121A8000237FE0434B1B78002B10D073
:104340007B68002B02D07B6800221A6001F066FEB9
:104350007869FCF703F83B6846F663521A8000233D
:104360006AE0FA6807210020FEF7A8F801F056FE7F
:104370007869FBF7F3FFFDF707FFFBF7EBFF7861C9
:1043800001F02CFE2F4B1B6893F83D30012B2CD0F5
:10439000032B37D0002B40D17B68002B21D0294B39
:1043A0001B681A6D7B681A60264B1C68FDF76EFD52
:1043B0000246244B1B681B6DD31AC4F8B430214B42
:1043C0001B68D3F8B8201F4B1B68D3F8B4309A424F
:1043D00007D21C4B1B681B4A1268D2F8B420C3F8E2
:1043E000B8203B6800221A801CE07B68002B04D0B8
:1043F000144B1B681A6D7B681A603B6846F2A91261
:104400001A800FE07B68002B02D07B6800221A60C4
:104410003B6847F2D9221A8004E03B6846F62E62D8
:104420001A8000BF074B1B685B6D3B6101F0F6FD16
:104430007869FBF793FF3B6918461C37BD4690BD72
:10444000C02800209C2800201C26002080B58AB0AF
:1044500002AFF8600B467A607B810023BB617B89E9
:10446000002B08D0B3F5004F05D07B6845F62562D8
:104470001A80002392E000BFFDF708FD7861FBF78A
:1044800069FFB86101F0AAFDFB68002B02D1454B22
:104490001B68FB60FB687A691A657B6800221A80DA
:1044A000FB6893F83E30072B6AD801A252F823F03C
:1044B000D1440008D14400080D4500080D4500080E
:1044C000D1440008D14400080D4500080D450008FE
:1044D000FB685B6DB3F1FF3F0AD101F09FFDB86946
:1044E000FBF73CFF7B6846F6C5521A80002355E077
:1044F000FB685B6D5A1CFB685A65FB685B6DFB6172
:1045000001F08CFDB869FBF729FF46E0FB6893F8E2
:104510003C30072B16D17B69009300230022F968F9
:104520000020FEF74FF9FB685B6DFB6101F076FD43
:10453000B869FBF713FFB7F90A30002B2CDBFDF746
:1045400023FE29E0FB685B6DB3F1FF3F0AD101F068
:1045500065FDB869FBF702FF7B6846F6C5521A8015
:1045600000231BE0FB685B6D5A1CFB685A65FB6807
:104570005B6DFB6101F052FDB869FBF7EFFE0BE0EC
:1045800001F04CFDB869FBF7E9FE7B6846F62D6249
:104590001A800023FB6100E000BFFB69184620374A
:1045A000BD4680BD9C28002080B588B000AFF86073
:1045B000B9607A603B6000237B61394B1B78002B2C
:1045C00004D03B6847F259121A8066E0BB68002BA2
:1045D00004D13B6846F2D5221A805EE07B68002B4E
:1045E00004D13B6846F2D5221A8056E0FBF7B2FEB2
:1045F000786101F0F3FCFB68002B02D1294B1B68AA
:10460000FB60FB681B68002B0FD101F007FD786988
:10461000FBF7A4FEBB6800221A607B6800221A60C8
:104620003B6847F252121A8037E0FB68B3F84C300F
:1046300003F00103002B0FD101F0F0FC7869FBF7C8
:104640008DFEBB6800221A607B6800221A603B68FE
:1046500047F254121A8020E001F0E0FC7869FBF781
:104660007DFE0023FB61FB685B6ABB6105E0BB6903
:104670000433BB61FB690133FB61BB691B68002B21
:10468000F5D0BB68FA691A60FB689A6CFB69D21AAC
:104690007B681A603B6800221A802037BD4680BDC7
:1046A000C02800209C28002080B584B000AF78602E
:1046B00039600023FB60624B1B78002B04D03B6801
:1046C00047F25D121A80B7E07B685E4A934204D1DC
:1046D0003B6847F25B121A80AEE0FBF73BFEF860E6
:1046E00001F07CFC7B68002B10D1574B1B78012B11
:1046F00009D001F093FCF868FBF730FE3B6845F603
:1047000089621A8098E0514B1B687B604F4B1B6895
:104710007A689A420DD14E4B1B78002B09D001F0DC
:104720007DFCF868FBF71AFE3B6846F663521A8078
:1047300082E03B6800221A807B6893F83E30072BAA
:104740006AD801A252F823F0694700088B47000895
:10475000A7470008C3470008DF470008DF470008F5
:10476000DF470008DF4700087B68042283F83E200B
:104770007B68012283F898207868FEF75FF901F0E2
:104780004DFCF868FBF7EAFD50E07B68052283F8F2
:104790003E207B68012283F8982001F03FFCF868F6
:1047A000FBF7DCFD42E07B68062283F83E207B6855
:1047B000012283F8982001F031FCF868FBF7CEFD68
:1047C00034E07B68072283F83E207B68012283F86F
:1047D000982001F023FCF868FBF7C0FD26E07B6819
:1047E00093F89830FF2B09D101F018FCF868FBF71B
:1047F000B5FD3B6847F260121A801DE07B6893F8B4
:1048000098300133DAB27B6883F8982001F006FC17
:10481000F868FBF7A3FD09E001F000FCF868FBF77E
:104820009DFD3B6846F62D621A8005E0064B1B781D
:10483000012B01D1FDF7A8FC1037BD4680BD00BF9C
:10484000C0280020A42900202D2600209C2800201C
:104850001C26002080B483B000AF78607B68002203
:10486000C3F8C8200D4B1B68002B04D17B680022C5
:10487000C3F8CC2009E0094B1A687B68C3F8CC2048
:10488000064B1B687A68C3F8C820044A7B6813602B
:1048900000BF0C37BD4680BC704700BFA828002071
:1048A00080B485B000AF78607B68D3F8C830FB6017
:1048B0007B68D3F8CC30BB60FB68002B0ED1184A64
:1048C000BB681360BB68002B03D0BB680022C3F831
:1048D000C8207B680022C3F8CC201BE0BB68002BFB
:1048E00008D1FB680022C3F8CC207B680022C3F803
:1048F000C8200FE0FB68BA68C3F8CC20BB68FA6830
:10490000C3F8C8207B680022C3F8CC207B68002253
:10491000C3F8C82000BF1437BD4680BC704700BF35
:10492000A828002080B483B000AF7860084B002234
:104930001A60084B00221A80074B00221A607B681D
:1049400000221A8000BF0C37BD4680BC704700BFF4
:10495000A8280020C2280020BC28002080B584B0F0
:1049600000AF78607B6800221A607B680022DA6002
:104970007B6800225A607B6800221A617B680022F3
:104980005A617B6800229A617B680022DA617B6849
:1049900000221A627B685B4A9A607B6800225A6236
:1049A0007B6800229A627B680022DA627B680022C0
:1049B0001A657B6800221A667B680022A3F86420CF
:1049C0007B68683300211846FEF776FA7B68002280
:1049D0009A677B680022DA677B680022C3F884202C
:1049E0007B680022A3F88C207B680022C3F8882013
:1049F0007B680022C3F890207B680022C3F89420D3
:104A00000023FB7308E0FA7B7B682032002143F827
:104A10002210FB7B0133FB73FB7B002BF3D07B6805
:104A200000225A657B680022C3F8B4207B6800220C
:104A3000C3F8B8207B6800229A647B68002283F860
:104A400098207B680022C3F8C0207B680022C3F84E
:104A5000BC207B680022A3F84C207B6800229A656A
:104A60007B680022DA657B680022A3F89A207B68C5
:104A70000022A3F89C207B680022C3F8A0207B685A
:104A80000022C3F8A420FDF701FA02467B68C3F8B0
:104A9000A8207B680022C3F8AC207B680022C3F802
:104AA000C4207B6800221A637B6800225A637B68FB
:104AB00000229A637B68002283F83C207B680022F6
:104AC00083F83D207B68002283F83E207B6820220B
:104AD00083F83F207B68202283F840207B680022F7
:104AE0005A647B680022C3F8C8207B680022C3F8A0
:104AF000CC207B68044AC3F8D02000BF1037BD46E5
:104B000080BD00BF50EB000858EB000880B582B0B4
:104B100000AF074B1B68184600F09AFFBB1D1946F3
:104B20000020FFF7D5F900BF0837BD4680BD00BFA4
:104B30009C28002080B584B000AF78600B46FB70E5
:104B40000023FB607B6893F83F30FB727B6893F82F
:104B50003E30072B00F28B8001A252F823F000BFF9
:104B6000814B0008B54B0008BF4B0008BF4B000845
:104B7000B54B0008B54B0008BF4B0008BF4B000801
:104B80007868FDF75BFF7B68FA7883F83F207B68E5
:104B900093F83F301846FEF7FBFC374B1B687A68EA
:104BA0009A4203D17868FDF7C9FE59E07868FDF7AD
:104BB00005FF55E07B68FA7883F83F2050E07B687A
:104BC000FA7883F83F207B6893F83C30013B052B53
:104BD00042D801A252F823F0F14B0008594C0008CA
:104BE000594C0008F94B0008F14B0008F14B000844
:104BF0007868FDF7F9FC32E07868FDF7F5FC7B6832
:104C00009B6B5B6AFB60FA7AFB789A4208D9FB6877
:104C100093F83F30FA789A4220D30023FB601DE0DE
:104C2000FB6893F83F30FA7A9A4217D1F868FEF79A
:104C300012FC0346FB70FB6893F84020FB7893421C
:104C400028BF1346FB70FB6893F83F30FA789A420E
:104C500004D10023FB6001E000BF00E000BF00BF03
:104C6000FB687B607B68002B7FF46AAF00E000BFCD
:104C70001037BD4680BD00BF9C28002080B588B09D
:104C800000AF78600023FB6107F10A0300220021D6
:104C90000020FFF7D9FA7B89002BF5D1FBF75AFBEF
:104CA000F86101F09BF90123BB610F4B1B680133D5
:104CB0000D4A1360B86900F0FDF97861B86900F039
:104CC00077FA38617A693B691344FB60074B1A68CD
:104CD000FB689A4202D2054AFB68136001F09EF914
:104CE000F869FBF73BFBCFE7C02A0020C82B002068
:104CF00090B58DB00AAF7860284B00221A60284B1F
:104D000000221A60274B00221A60254B00229A804D
:104D1000234B0022DA80234B00229A80214B002271
:104D2000DA80214B1B68002B04D17B6847F21222EA
:104D30001A802FE01D4B1A681D4B1B689A4204D243
:104D40007B6847F213221A8024E01A4B1B781E2B33
:104D500004D97B6847F211221A801BE0154B1B789F
:104D6000114A126814490968104800687C68089460
:104D70000B24079400240694002405940024049432
:104D8000039002910192009300230C4A0C490D48B4
:104D9000FEF788FF0C37BD4690BD00BFC02A00203B
:104DA000D82B0020E42B00201CEC000824EC000889
:104DB00010EC000818EC000820EC00087D4C0008FE
:104DC0005CEB0008C427002080B489B000AFF86015
:104DD000B9607A60FB681B68002B12D1BB687A68E7
:104DE0009A65BB6800229A61BB680022DA61BB68E1
:104DF000FA681A62FB68BA681A60FB6801229A8036
:104E000074E0FB681B68FB61FB681B68BB617B6827
:104E10007B6153E0BB699A6D7B699A4244D3BB695D
:104E2000DB69002B1ED1BB687A699A65BB680022DA
:104E3000DA61BB68BA699A61BB68FA681A62BB69D1
:104E40009A6D7B69D21ABB699A65BB69BA68DA61E7
:104E5000FB68BA681A60FB689B8801339AB2FB68EA
:104E60009A8043E0BB69DB69FB61BB687A699A653C
:104E7000BB68FA69DA61BB68BA699A61BB68FA68AB
:104E80001A62BB699A6D7B69D21ABB699A65BB6964
:104E9000BA68DA61FB69BA689A61FB689B8801337A
:104EA0009AB2FB689A8021E0BB699B6D7A69D31A3C
:104EB0007B61BB69FB61BB699B69BB61BB69002B03
:104EC000A8D1BB687A699A65BB68FA69DA61BB6880
:104ED00000229A61BB68FA681A62FB69BA689A6133
:104EE000FB689B8801339AB2FB689A802437BD46E1
:104EF00080BC704780B586B000AFF860B9603B6099
:104F00001346FB80374B1B683B61FB88042B12D197
:104F1000BA683B69D31A7B617B6913F5803F02D87D
:104F20007B69002B48D1FB6800229A653B6847F2F9
:104F30007E221A8052E0FB88082B3BD1FB68DB6D98
:104F40003A69D21ABB689A4207D9BB687B613A6951
:104F5000BB681A44FB68DA652EE0FB68DA6D3B69D2
:104F6000D21ABB6813447B617B6913F5803F02D87A
:104F70007B69002B17D1FB68DA6DFB68DB6D396943
:104F8000C91ABB68B1FBF3F30133B96801FB03F342
:104F90001A44FB68DA65FB6800229A653B6847F2B1
:104FA0007E221A801AE0FB68DA6DBB681A44FB683F
:104FB000DA6501E0BB687B613B6800221A80FB6810
:104FC000012283F83E20074B1B683A69D21A7B699D
:104FD00013441A46F9680448FFF7F6FE1837BD4631
:104FE00080BD00BFC02A0020D82B002080B487B02D
:104FF00000AF78607B681B6A7B617B68DB693B6123
:105000007B689B69FB603B69002B2CD1FB68002B04
:105010000CD17B6900221A607B6900229A807B6830
:1050200000229A657B6800221A623EE0FB6800223B
:10503000DA61FB689A6D7B689B6D1A44FB689A6520
:105040007B69FA681A607B699B88013B9AB27B692D
:105050009A807B6800229A617B6800229A657B684F
:1050600000221A6221E03B69FA689A61FB68002B12
:1050700009D0FB683A69DA61FB689A6D7B689B6DC1
:105080001A44FB689A657B680022DA617B699B8819
:10509000013B9AB27B699A807B6800229A617B68A7
:1050A00000229A657B6800221A6200BF1C37BD4649
:1050B00080BC704780B588B000AF7860FCF7E6FE32
:1050C000786100237B83394B3B613B691B68FB6143
:1050D000FB69002B5CD0FB699A6D7B689A4208D80B
:1050E000FB699B6D7A68D31A7B60FB6900229A6525
:1050F0004AE0FB699A6D7B68D21AFB699A6543E0C6
:105100007B8B01337B83FB6993F83E30012B07D106
:10511000FB69002283F83E20F869FDF7F1FB08E007
:10512000FB6993F83E30052B03D1FB69042283F819
:105130003E20FB699A693B691A603B691B68FB6109
:10514000FB69002B03D13B6900229A8020E03B6978
:105150009B88013B9AB23B699A80FB690022DA6125
:10516000FB699A6D7B689A4208D8FB699B6D7A68E7
:10517000D31A7B60FB6900229A6505E0FB699A6D92
:105180007B68D21AFB699A65FB699B6D002BB7D0CF
:105190003B697A8BDA80FCF779FE02467B69D31A89
:1051A000FB60FB6818462037BD4680BDD82B002029
:1051B00080B58AB000AF7860FCF768FEB861002364
:1051C0007B84614B7B617B691B687B627B6A002B04
:1051D00000F0AB807B6A9A6D7B689A4208D87B6A44
:1051E0009B6D7A68D31A7B607B6A00229A6597E090
:1051F0007B6A9A6D7B68D21A7B6A9A6590E07B8C99
:1052000001337B840023FB617B6A93F83C30042BE1
:1052100003D17B6A9B6B5B6AFB617B6A00221A6627
:105220007B6A0022A3F86420FCF730FE02467B6A0A
:105230001A65786AFDF772FA7B6A93F83E30032BA1
:1052400007D1786AFDF75CFB7B6A002283F83E2079
:1052500008E07B6A93F83E30072B03D17B6A042277
:1052600083F83E207B6A032283F83D207B6A00227C
:1052700083F83C20FB69002B27D0FB6993F83F2083
:10528000FB6993F840309A421FD0FB6993F83F20A6
:105290007B6A93F83F309A4217D1F869FEF7DBF842
:1052A0000346FB74FB6993F84020FB7C934228BFC4
:1052B0001346FB74FB6993F83F30FA7C9A4204D0A2
:1052C000FB7C1946F869FFF735FC7B6A9A697B69B4
:1052D0001A607B691B687B627B6A002B03D17B6948
:1052E00000229A8021E07B699B88013B9AB27B690E
:1052F0009A807B6A0022DA617B6A9A6D7B689A42A7
:1053000008D87B6A9B6D7A68D31A7B607B6A00221F
:105310009A6505E07B6A9A6D7B68D21A7B6A9A650A
:105320007B6A9B6D002B3FF46AAF7B697A8CDA80D5
:10533000FCF7ACFD0246BB69D31AFB60FB6818465C
:105340002837BD4680BD00BFE42B002080B586B065
:1053500000AFF8600B467A607B8100237B61304BA5
:105360001B78002B04D07B6847F275221A8053E02B
:105370002C4B1B78002B04D07B6846F663521A80B6
:105380004AE07B89082B1DD801A252F823F000BF08
:10539000B5530008C5530008B5530008C5530008AD
:1053A000CF530008C5530008C5530008C553000873
:1053B000B5530008FB68002B0BD17B6847F27E22B7
:1053C0001A8029E07B6845F625621A8024E000BF38
:1053D00000E000BFFAF7BEFF786100F0FFFD124B5E
:1053E00018687A897B68F968FFF784FD7B681B88F9
:1053F000002B05D000F012FE7869FAF7AFFF0BE042
:10540000094B1B681846FDF719FB00F007FE786989
:10541000FAF7A4FFFCF7B8FE1837BD4680BD00BF01
:10542000C02800201C2600209C28002080B588B0C1
:1054300000AF7B600346FB810B46BB8113467B813B
:105440000023FB61754B1B78002B04D0FB6A47F2ED
:1054500075221A80DEE0724B1B78002B04D0FB6AA9
:1054600046F663521A80D5E03B8D03F00E037B8332
:105470007B8B082B25D801A252F823F0A1540008F9
:10548000C3540008A1540008C3540008CD540008B8
:10549000C3540008C3540008C3540008A1540008B2
:1054A0007B68002B14D17B89002B11D1BB89002B89
:1054B0000ED1FB89002B0BD1FB6A47F27E221A80AA
:1054C000A8E0FB6A45F625621A80A3E000BF00E071
:1054D00000BF3B8D23F01E03002B14BF01230023CC
:1054E000DBB27B767B7E012B04D1FB6A45F625621D
:1054F0001A808FE03B8D03F01003002B01D00123B5
:1055000000E000233B763B7E012B20D07B68B3F587
:105510007A7F04D3FB6A47F27B221A807AE07B8988
:105520003B2B04D9FB6A47F27A221A8072E0BB89CE
:105530003B2B04D9FB6A47F279221A806AE0FB8987
:10554000632B17D9FB6A47F278221A8062E0BB8985
:1055500042F20F72934204D9FB6A47F279221A8011
:1055600058E0FB89B3F57A7F04D3FB6A47F27822CF
:105570001A804FE02B4B1B687B61FB894FF4616203
:1055800002FB03F1BA8913461B019B1A9B00CA1840
:105590007B8913447A6902FB03F24FF4FA717B6949
:1055A000B1FBF3F17B680B44796901FB03F31E49FE
:1055B000A1FB03139B0913443B613B69002B25D0DE
:1055C000FAF7C8FEF86100F009FD184B18687A8BED
:1055D000FB6A3969FFF78EFCFB6A1B88002B05D03C
:1055E00000F01CFDF869FAF7B9FE13E00F4B1B68D9
:1055F0001846FDF723FA00F011FDF869FAF7AEFE40
:10560000FCF7C2FDFB6A00221A8003E0FB6A47F246
:105610007E221A802037BD4680BD00BFC0280020F2
:105620001C26002014EC0008D34D62109C2800209A
:1056300080B584B000AF78600023FB60FAF78AFE83
:10564000F86000F0CBFC084B1B68BB6000F0E6FC88
:10565000F868FAF783FE7B6800221A80BB68184658
:105660001037BD4680BD00BFC02A002080B582B083
:1056700000AF124B1B78012B1BD100F0CFFABB1DE2
:105680001A4600210E48FEF7E1FE0E4B1B68013B57
:105690000C4A13600B4B1B68002B0BD10A4B1B6889
:1056A000084A1360BB1D1A4600210848FEF7CEFECB
:1056B00000E000BF0837BD4680BD00BF2D2600209A
:1056C000C4270020E02B0020D02B0020C42800207D
:1056D00090B58DB00AAF7860374B00221A60374B17
:1056E00000221A60364B00221A80364B1B68002BB2
:1056F00008D0354B1A68334B1B68B2FBF3F3334ABF
:10570000136007E0304B1B68314AA2FB0323DB0820
:105710002E4A13602D4B1B682E4A13602E4B00221D
:105720001A602E4B00221A607A682D492D48FDF729
:10573000DDFB7B681B88002B39D12B4B1B68002BB2
:1057400004D17B6847F247321A8031E0274B1A6850
:10575000274B1B689A4204D27B6847F248321A8072
:1057600026E0244B1B781E2B04D97B6847F2463277
:105770001A801DE01F4B1B781B4A12681E490968DE
:105780001A4800687C6808940B2407940024069447
:105790000024059400240494039002910192009344
:1057A0000023164A16491748FEF77CFA00E000BFAE
:1057B0000C37BD4690BD00BFC42B0020C02B00207D
:1057C000CC2B00202CEC000814EC0008D02B00207F
:1057D000CDCCCCCCE02B002098280020AC28002099
:1057E00078EB0008882A002030EC000838EC00082C
:1057F00010EC000828EC000834EC0008855800087C
:1058000088EB0008C428002080B485B000AF786021
:105810001A4B1A687B689A420CD17B681B69FB6043
:10582000164AFB681360FB68002B12D0FB6800224D
:105830005A610EE07B685B69FB607B681B69BB603B
:10584000FB68BA681A61BB68002B02D0BB68FA68B3
:105850005A617B68012283F826207B6800221A6146
:105860007B6800225A61064B1B88013B9AB2044BAD
:105870001A8000BF1437BD4680BC7047C02B002083
:10588000CC2B002080B58AB000AF786007F11203FE
:1058900007F10C0200210020FEF7D6FC00F05AF8B8
:1058A000FCF7F4FA3862284B1B680133264A136070
:1058B000264B1B687B6233E007F112031846FCF7A6
:1058C000B7FC7B6A1B69BB617B6A9B695A1E7B6A5A
:1058D0009A617B6A9B69002B1BD17B6A9B8C022B94
:1058E00004D17B6A1A6A7B6A9A6106E0786AFFF7DC
:1058F0008BFF7B6A032283F826207B6A9B687B618F
:105900007B69002B05D07B6ADA687B691146786A6F
:105910009847BB697B6207F112031846FCF7C6FC87
:105920007B6A002BC8D1FCF7B1FA02463B6AD31A56
:10593000FB61074B1A68FB699A4202D2044AFB6971
:10594000136000F019F8A1E798280020C02B002070
:10595000AC28002080B584B002AF3A46BB1D00934E
:105960001346002200210348FDF710FB00BF083753
:10597000BD4680BD882A002080B582B000AFBB1D27
:105980001A4600210348FDF72DFC00BF0837BD462D
:1059900080BD00BF882A002080B500AF044B1B6883
:1059A000002B02D0024B1B68984700BF80BD00BF90
:1059B000B82A002080B400AF094B1A68094B1B6855
:1059C0009B001344084A1360074B1B6823F007032E
:1059D0001A46054B1A6000BFBD4680BC704700BF29
:1059E000ECEB0008F0EB0008EC2B002080B500AFDA
:1059F000044B1B68002B02D0024B1B68984700BF6A
:105A000080BD00BFD82A002080B582B000AF78608A
:105A1000054B1B68002B03D0034B1B687868984725
:105A200000BF0837BD4680BDBC27002080B582B0CE
:105A300000AF7860054B1B68002B03D0034B1B683D
:105A40007868984700BF0837BD4680BDB028002061
:105A500080B582B000AF7860054B1B68002B03D087
:105A6000034B1B687868984700BF0837BD4680BD68
:105A70002026002080B487B000AFF860B9607A605B
:105A80003B603B6A9B007A6813447B617B6923F02F
:105A900007037B617B69043B7B617B694FF080720C
:105AA0001A607B69043B7B61FA687B691A607B69D9
:105AB000043B7B61344A7B691A607B69043B7B61F0
:105AC0007B694FF012321A607B69043B7B617B6912
:105AD0004FF003321A607B69043B7B617B694FF0B6
