:020000040800F2
:1000000000000520B10B0108010C0108010C0108DA
:10001000010C0108010C0108010C0108000000009E
:10002000000000000000000000000000010C0108BA
:10003000010C01080000000019030008B97C000849
:10004000010C0108010C0108010C0108B92200088B
:10005000010C0108010C0108010C0108010C010848
:10006000FD14000813150008010C0108010C01081B
:10007000010C0108010C0108010C0108010C010828
:10008000010C0108010C0108010C0108010C010818
:10009000010C0108010C0108010C0108D93100080C
:1000A000010C0108010C0108010C0108010C0108F8
:1000B000F9290008192A00082D2A0008010C010856
:1000C000010C0108010C0108010C0108010C0108D8
:1000D000010C0108C9330008E5330008010C0108D0
:1000E000010C010889220008010C0108010C01081B
:1000F000010C0108010C0108010C0108010C0108A8
:10010000010C0108010C0108412A0008010C01083A
:10011000010C0108010C0108010C0108010C010887
:1001200059170008010C0108010C0108010C010815
:10013000010C0108D5180108010C0108010C010887
:10014000010C0108010C0108010C0108010D010856
:10015000010C0108010C0108010C0108010C010847
:10016000010C0108010C0108010C0108010C010837
:10017000010C0108010C0108010C0108000000003D
:10018000010C0108010C0108010C0108010C010817
:10019000010C0108010C0108010C0108010C010807
:1001A00015250108010C0108010C0108010C0108CA
:1001B000010C0108010C0108010C0108010C0108E7
:1001C000010C0108010C010800000000010C0108ED
:1001D000010C0108010C0108010C0108010C0108C7
:1001E000010C0108010C0108010C0108010C0108B7
:0801F000010C0108010C0108DB
:1002000010B5054C237833B9044B13B10448AFF350
:1002100000800123237010BD280A00200000000088
:10022000400C02080C4B43B10C480D4910B5AFF31C
:1002300000800C48036823B910BD0A48036833B92D
:100240007047094B002BF7D0BDE810401847064B0C
:10025000002BF5D0184700BF00000000400C02083A
:100260002C0A0020280A002000000000EFF309817A
:1002700021B120ED108A3C490A6810607047B0EC4B
:10028000108A3A490A681060704772B64EF62250DA
:10029000CEF2000040F2FF01C0F200010170002028
:1002A00080F3098846F6E020C2F20000016881F37D
:1002B000088807F09FFC46F2B460C2F2000046F2E4
:1002C000A861C2F200010A78027046F29070C2F290
:1002D000000046F29871C2F200010A6802601068DC
:1002E00080F30988EFF3148040F0020080F3148853
:1002F000BFF36F8FBDE8F04F0FBCBDE8005006BCE8
:1003000062B608471A484FF080510160704718489C
:100310004FF080510160704772B6EFF3098020E919
:10032000F04F46F29075C2F20005296808607446E5
:1003300007F060FC46F2B460C2F2000046F2A86129
:10034000C2F200010A78027046F29871C2F200010E
:100350000A682A6044F0040E1068B0E8F04F80F399
:10036000098862B6704700009067002098670020F7
:1003700004ED00E072B6704762B67047EFF310808C
:1003800072B6704780F31088704730BF704720BF47
:100390007047B0FA80F0704790FAA0F0B0FA80F0A1
:1003A000704790FAA0F0704781F0004102E000BF72
:1003B00083F0004330B54FEA41044FEA430594EA25
:1003C000050F08BF90EA020F1FBF54EA000C55EA60
:1003D000020C7FEA645C7FEA655C00F0E2804FEA31
:1003E0005454D4EB5555B8BF6D420CDD2C4480EA13
:1003F000020281EA030382EA000083EA010180EA43
:10040000020281EA0303362D88BF30BD11F0004F90
:100410004FEA01314FF4801C4CEA113102D04042C6
:1004200061EB410113F0004F4FEA03334CEA133301
:1004300002D0524263EB430394EA050F00F0A78019
:10044000A4F10104D5F1200E0DDB02FA0EFC22FA14
:1004500005F2801841F1000103FA0EF2801843FA08
:1004600005F359410EE0A5F120050EF1200E012AF9
:1004700003FA0EFC28BF4CF0020C43FA05F3C01837
:1004800051EBE37101F0004507D54FF0000EDCF1B0
:10049000000C7EEB00006EEB0101B1F5801F1BD359
:1004A000B1F5001F0CD349085FEA30004FEA3C0C5D
:1004B00004F101044FEA445212F5800F80F09A8053
:1004C000BCF1004F08BF5FEA500C50F1000041EB57
:1004D000045141EA050130BD5FEA4C0C404141EB5B
:1004E000010111F4801FA4F10104E9D191F0000F82
:1004F00004BF01460020B1FA81F308BF2033A3F105
:100500000B03B3F120020CDA0C3208DD02F1140CFB
:10051000C2F10C0201FA0CF021FA02F10CE002F136
:100520001402D8BFC2F1200C01FA02F120FA0CFC2F
:10053000DCBF41EA0C019040E41AA2BF01EB045178
:10054000294330BD6FEA04041F3C1CDA0C340EDC76
:1005500004F11404C4F1200220FA04F001FA02F3B9
:1005600040EA030021FA04F345EA030130BDC4F177
:100570000C04C4F1200220FA02F001FA04F340EA6C
:100580000300294630BD21FA04F0294630BD94F01D
:10059000000F83F4801306BF81F480110134013D04
:1005A0004EE77FEA645C18BF7FEA655C29D094EA75
:1005B000050F08BF90EA020F05D054EA000C04BFF3
:1005C0001946104630BD91EA030F1EBF00210020DE
:1005D00030BD5FEA545C05D14000494128BF41F07D
:1005E000004130BD14F580043CBF01F5801130BDE1
:1005F00001F0004545F0FE4141F470014FF000006C
:1006000030BD7FEA645C1ABF194610467FEA655C1C
:100610001CBF0B46024650EA013406BF52EA0335BE
:1006200091EA030F41F4002130BD00BF90F0000FAC
:1006300004BF0021704730B54FF4806404F13204E8
:100640004FF000054FF0000150E700BF90F0000FA1
:1006500004BF0021704730B54FF4806404F13204C8
:1006600010F0004548BF40424FF000013EE700BF98
:1006700042004FEAE2014FEA31014FEA02701FBF28
:1006800012F07F4393F07F4F81F06051704792F0FA
:10069000000F14BF93F07F4F704730B54FF4607474
:1006A00001F0004521F0004120E700BF50EA0102BF
:1006B00008BF704730B54FF000050AE050EA01026C
:1006C00008BF704730B511F0004502D5404261EBDC
:1006D00041014FF4806404F132045FEA915C3FF41D
:1006E000DCAE4FF003025FEADC0C18BF03325FEAB6
:1006F000DC0C18BF033202EBDC02C2F1200300FA6B
:1007000003FC20FA02F001FA03FE40EA0E0021FA8F
:1007100002F11444C1E600BF4FEA410212F5001293
:1007200015D211D56FF47873B3EB625212D94FEA38
:10073000C12343F0004343EA505311F0004F23FA22
:1007400002F018BF404270474FF00000704750EA77
:10075000013005D111F0004008BF6FF00040704734
:100760004FF00000704700BF53B94AB9002908BFD5
:1007700000281CBF4FF0FF314FF0FF3000F07AB976
:10078000ADF1080C6DE904CE00F006F8DDF804E0E8
:10079000DDE9022304B070472DE9F0478C460D4691
:1007A0000446089E002B51D18A4217466DD9B2FAF1
:1007B00082FEBEF1000F0BD0CEF1200C01FA0EF537
:1007C00020FA0CFC02FA0EF74CEA050C00FA0EF4C3
:1007D0004FEA174A250CBCFBFAF81FFA87F90AFB07
:1007E00018CC45EA0C4508FB09F3AB420AD9ED19D0
:1007F00008F1FF3280F02381AB4240F22081A8F162
:1008000002083D44ED1AA4B2B5FBFAF00AFB1055FC
:1008100044EA054400FB09F9A14509D9E41900F1AE
:10082000FF3380F00A81A14540F2078102383C4441
:10083000A4EB090440EA08400021002E61D024FA0C
:100840000EF4002334607360BDE8F0878B4207D953
:10085000002E54D0002186E821000846BDE8F0872C
:10086000B3FA83F1002940F08E80AB4202D382427A
:1008700000F2FA80841A65EB03050120AC46002ED5
:100880003FD086E81010BDE8F08712B90127B7FB0A
:10089000F2F7B7FA87FEBEF1000F34D1EB1B3A0C2A
:1008A0001FFA87FC0121B3FBF2F8250C02FB183379
:1008B00045EA03450CFB08F3AB4207D9ED1908F1F3
:1008C000FF3002D2AB4200F2D1808046ED1AA3B2D3
:1008D000B5FBF2F002FB105543EA05440CFB00FCAB
:1008E000A44507D9E41900F1FF3302D2A44500F270
:1008F000B8801846A4EB0C0440EA08409DE7314656
:100900003046BDE8F087CEF1200405FA0EF307FA71
:100910000EF720FA04F83A0C25FA04F448EA030822
:10092000B4FBF2F14FEA184502FB11441FFA87FCB1
:1009300045EA044501FB0CF3AB4200FA0EF409D979
:10094000ED1901F1FF3080F08A80AB4240F28780E0
:1009500002393D44EB1A1FFA88F5B3FBF2F002FBB3
:10096000103345EA034500FB0CF3AB4207D9ED1900
:1009700000F1FF386FD2AB426DD902383D44EB1A1B
:1009800040EA01418FE7C1F1200722FA07F88B40C6
:1009900005FA01F448EA030320FA07FE4FEA134C74
:1009A000FD404EEA040EB5FBFCF94FEA1E440CFB79
:1009B00019551FFA83F844EA054509FB08F4AC42CF
:1009C00002FA01F200FA01FA08D9ED1809F1FF3034
:1009D00043D2AC4241D9A9F102091D442D1B1FFA93
:1009E0008EFEB5FBFCF00CFB10554EEA054400FBF7
:1009F00008F8A04507D9E41800F1FF3529D2A04531
:100A000027D902381C4440EA0940A4EB0804A0FBA3
:100A100002894C45C6464D4615D312D056B1BAEBA5
:100A20000E0364EB050404FA07F7CB401F43CC40E8
:100A3000376074600021BDE8F0871846F8E69046FC
:100A4000E0E6C245EAD2B8EB020E69EB03050138D5
:100A5000E4E72846D7E7404691E78146BEE70146EE
:100A600078E702383C4445E7084608E7A8F1020861
:100A70003D442BE7704700BF844641EA000313F072
:100A800003036DD1403A41D351F8043B40F8043B95
:100A900051F8043B40F8043B51F8043B40F8043B58
:100AA00051F8043B40F8043B51F8043B40F8043B48
:100AB00051F8043B40F8043B51F8043B40F8043B38
:100AC00051F8043B40F8043B51F8043B40F8043B28
:100AD00051F8043B40F8043B51F8043B40F8043B18
:100AE00051F8043B40F8043B51F8043B40F8043B08
:100AF00051F8043B40F8043B51F8043B40F8043BF8
:100B000051F8043B40F8043B403ABDD2303211D397
:100B100051F8043B40F8043B51F8043B40F8043BD7
:100B200051F8043B40F8043B51F8043B40F8043BC7
:100B3000103AEDD20C3205D351F8043B40F8043B97
:100B4000043AF9D2043208D0D2071CBF11F8013B95
:100B500000F8013B01D30B8803806046704700BF5B
:100B6000082A13D38B078DD010F003038AD0C3F16A
:100B70000403D21ADB071CBF11F8013B00F8013B4C
:100B800080D331F8023B20F8023B7BE7043AD9D30B
:100B9000013A11F8013B00F8013BF9D20B780370E0
:100BA0004B7843708B78837060467047000000007C
:100BB0000000000000000000000000000000000035
:100BC00090F800F06DE9024520F007016FF0000C8D
:100BD00010F0070491F820F040F049804FF0000435
:100BE0006FF00700D1E9002391F840F000F1080010
:100BF00082FA4CF2A4FA8CF283FA4CF3A2FA8CF348
:100C00004BBBD1E9022382FA4CF200F10800A4FAAE
:100C10008CF283FA4CF3A2FA8CF3E3B9D1E9042302
:100C200082FA4CF200F10800A4FA8CF283FA4CF339
:100C3000A2FA8CF37BB9D1E9062301F1200182FAF3
:100C40004CF200F10800A4FA8CF283FA4CF3A2FAF9
:100C50008CF3002BC6D0002A04BF04301A4612BA07
:100C6000B2FA82F2FDE8024500EBD2007047D1E90A
:100C7000002304F00305C4F100004FEAC50514F099
:100C8000040F91F840F00CFA05F562EA05021CBF6A
:100C900063EA050362464FF00004A9E70000000084
:100CA00001F0FF01102A2BDB10F0070F08D010F81D
:100CB000013B013A8B422DD010F0070F42B3F6D121
:100CC000F0B441EA012141EA014122F007047FF03A
:100CD00000070023F0E80256083C85EA010586EA91
:100CE000010685FA47F5A3FA87F586FA47F6A5FACD
:100CF00087F68EB9EED1F0BC01F0FF0102F00702D9
:100D000032B110F8013B013A83EA010313B1F8D183
:100D10000020704701387047002D06BF3546033864
:100D2000073815F0010F07D1013015F4807F02BF9D
:100D3000013015F4C03F0130F0BC0138704700BFEE
:100D400080B58CB00AAF07F071FA00F053FD07F0E0
:100D500007F907F02DF807F009F8FFF70BFBBB1DAB
:100D6000184602F09FFB00F0F3FA00F0D5FA104BA2
:100D7000D3F8CC30BA1D08920322079200220692C3
:100D800000220592002204924FF400720392029313
:100D9000074B0193072300930023064A064907489F
:100DA00004F09EFFBB1D184602F0C6FDFEE700BF23
:100DB000180B0020C10D0008580C0208440A00203E
:100DC00080B584B000AF786000F076FB124801F087
:100DD000B7F8124A114B1B6B43F4805313630F4B4C
:100DE0001B6B03F48053BB60BB6813F0A7FE0C4879
:100DF00013F008FB13F066FE07F10E03184604F02B
:100E0000D7FC07F0E5F800F00DF807F10E031946DE
:100E1000002005F07BF8F8E70000002000380240D1
:100E2000CCE8CF0080B58CB00AAF384BD3F8CC30CB
:100E3000BA1D089203220792002206920022059210
:100E4000002204924FF40072039202932F4B0193FD
:100E50000D23009300232E4A2E492F4804F040FF13
:100E60002E4BD3F8CC30BA1D0892032207920022F1
:100E7000069200220592002204924FF4007203921F
:100E80000293264B01930E2300930023244A254905
:100E9000254804F025FF254BD3F8CC30BA1D089225
:100EA0000322079200220692002205920022049259
:100EB0004FF40072039202931C4B01930F23009393
:100EC00000231B4A1B491C4804F00AFF1B4BD3F8A4
:100ED000CC30BA1D0892032207920022069200220B
:100EE0000592002204924FF4007203920293134B76
:100EF0000193102300930023114A1249124804F071
:100F0000EFFE00BF0837BD4680BD00BFB4280020FB
:100F1000510F0008080D0208B4380020E4430020F7
:100F2000D5100008200D02087C1F002090390020F9
:100F3000AD110008380D0208384200207C1700204F
:100F400045120008500D0208AC50002000000000BF
:100F500080B584B000AF786013F0F0FD4E4813F018
:100F600051FA13F0AFFD642264214C4813F08AFB60
:100F700004224B494B4807F0D7F907F10E03002232
:100F80000021642005F07EF9FB89002BF5D176E085
:100F9000454B1B78032B5BD801A252F823F000BF0E
:100FA000B10F0008C10F0008D10F0008E10F0008C1
:100FB0003B4B5B881A463D493D481AF0D9FC48E056
:100FC000374B9B881A463B4939481AF0D1FC40E020
:100FD000334BDB881A46384935481AF0C9FC38E0EB
:100FE0002F4B1B881A46354B1A60344B1B6807EE93
:100FF000903AB8EE677ADFED326AC7EE267A9FED57
:10100000317A67EE877A304BC3ED007A2E4BD3ED01
:10101000007AB7EEE77A9FED1E6B37EE466BB0EEC7
:10102000045B86EE057BB3EE096B37EE067BF7EECD
:10103000C77B254BC3ED007A234BD3ED007AB7EE87
:10104000E77A53EC172B214919481AF091FC00E07C
:1010500000BF154B1B781A46642303FB02F31A46A4
:101060004FF4C871124813F00DFB114918481AF0DB
:10107000ADFB0D4B1B780133DAB20B4B1A700A4BE8
:101080001B78032B84D9084B00221A7075E700BF28
:101090000000000000C08740CCE8CF00680D0208C7
:1010A000883900205452002018130020780D0208BF
:1010B0001C130020840D0208900D02085C13002010
:1010C00000F07F4500404E45601300209C0D020853
:1010D000A40D020890B587B002AF786013F02EFD22
:1010E00007F10E03019300230093294B00224FF4D4
:1010F0007A71284803F0E8FE0246274B1A60FB8904
:10110000002BEDD1244B1B68234A1268126822F091
:1011100040421A60204B1B681B684FEAE3741F4A69
:10112000C2E900341C4B1B6804331B6819464FEAA4
:10113000E1721A4BD3E900345B1844EB0204174AFE
:10114000C2E90034144B1C68144BD3E900014FF47E
:101150007A724FF00003FFF707FB02460B46134677
:1011600023600D4B1B681B680D4A0F210D481AF0B8
:10117000B3FB4FF4C8724FF4C8710A4813F082FAF7
:10118000034B1B881A46074907481AF01FFBA7E7BD
:101190006413002050200020E0430020681300204A
:1011A000AC0D020870130020B80D020880B586B09F
:1011B00002AF786007F10E0300220021642005F0E1
:1011C00061F8FB89002BF5D100F0FCFA12F064FE07
:1011D00001F09EFF174B1B7F002BEBD0154B1B7FA5
:1011E00003F01F03DAB2134B1A77134B1B7801334A
:1011F000DAB2114B1A700F4B1B7F5B08DAB20D4B42
:101200001A770C4B1B7F03F00103002BEDD10A4B27
:101210001A78084B1A7707F10E0300934FF4007306
:1012200001220649064803F04DFF034B00221A70C5
:10123000C0E700BF20000020B013002028000020DD
:101240008020002080B586B002AF786007F10802E8
:1012500007F10A03019300230093134600224FF481
:101260007A71274803F030FE0246264B1A607B89CC
:10127000002BEBD1234B1B6814331B781A463B8998
:10128000214922481AF074FB204921481AF09EFA9D
:10129000642200211D4813F0F5F90023FB6026E0CD
:1012A000184B1B6814331B781946164B1A68FB68D9
:1012B0005B0013441B881846124B1A68FB68053301
:1012C0005B0013441B88009303460A4611490F48EC
:1012D0001AF04EFB4FF4C87200210C4813F0D2F9FB
:1012E0000A490B481AF072FAFB680133FB60054BA0
:1012F0001B6814331B781A46FB689A42D0DCA5E7BA
:1013000080200020B0200020D40D0208B41300205B
:10131000A40D0208EC0D020880B582B000AFBB1D21
:1013200005220749074803F07BFDBB1D052206493E
:10133000064803F075FD00BF0837BD4680BD00BFFD
:101340008C0E020880200020A40E020850200020ED
:1013500080B582B000AF00237B60FFF70FF87860A4
:1013600006F082FE0E4B0F4A1A600F4B0F4A1A60AE
:101370000F4B104A1A60104B104A1A60104B114A5A
:101380001A60114B114A1A60114B124A1A6006F08A
:101390008BFE7868FEF7F6FF00BF0837BD4680BDBC
:1013A000AC690020D9130008CC690020E7130008BD
:1013B000B0660020F5130008A46700200914000897
:1013C000146500201D140008B869002031140008BD
:1013D000A86700203F14000880B400AF00BFBD46DE
:1013E0005DF8047B704780B400AF00BFBD465DF878
:1013F000047B704780B483B000AF786000BF0C37C7
:10140000BD465DF8047B704780B483B000AF786060
:1014100000BF0C37BD465DF8047B704780B483B0D5
:1014200000AF786000BF0C37BD465DF8047B7047A5
:1014300080B400AF00BFBD465DF8047B704780B448
:1014400000AF00BFBD465DF8047B704780B586B035
:1014500000AF164A154B1B6B43F080031363134B0D
:101460001B6B03F080033B603B680C237B60104BDD
:10147000BB600123FB6003233B613B1D19460D4804
:1014800008F0D2F8082007F0B1FB0122052108205E
:1014900007F090FB092007F0A9FB01220521092094
:1014A00007F088FB00BF1837BD4680BD00380240FA
:1014B00000002110001C024080B500AF00F018FDB4
:1014C00000F036FA01F09EFE00F090FFFFF7BEFF3D
:1014D000094B1B68984700F013FB00F001FF01F077
:1014E000CBF801F001F901F03FF900F035F800F018
:1014F0003DF900BF80BD00BF2000002080B500AFD7
:1015000002F0B2F8042008F07DFA02F0C9F800BF3A
:1015100080BD80B500AF02F0A7F8082008F072FA8D
:1015200002F0BEF800BF80BD80B582B000AF0346B8
:10153000FB80FB88042B02D0082B04D007E000209E
:1015400000F074FA03E0002000F038FA00BF00BF9A
:101550000837BD4680BD000080B586B000AF354A73
:10156000344B5B6C43F480735364324B5B6C03F419
:1015700080737B607B68304B304A1A602E4B4FF48F
:1015800040325A602C4B00229A602B4B01221A6188
:10159000294B00229A61284B00221A62264B002216
:1015A000DA60254B0422DA61234B01221A63224BB5
:1015B00000225A61204B4FF030629A621E4B4FF06E
:1015C0008052DA621C4806F06BFE1D4BBB600123A3
:1015D000FB6007233B6107F108031946164806F034
:1015E00087FF0423BB600223FB6007233B6107F1F5
:1015F00008031946104806F07BFF0523BB60032350
:10160000FB6007233B6107F1080319460A4806F00F
:101610006FFF0623BB600423FB6007233B6107F1D8
:1016200008031946044806F063FF00BF1837BD469B
:1016300080BD00BF0038024054520020002001400D
:101640001200001080B58AB000AF78607B681B681C
:101650002F4A934258D12F4A2E4B1B6B43F0010364
:1016600013632C4B1B6B03F001033B613B69294A5D
:10167000284B1B6B43F480031363264B1B6B03F453
:101680008003FB60FB680323BB610023FB61022333
:101690003B6270237B6107F1140319461E4807F073
:1016A000C3FF1E4B1E4A1A601C4B00225A601B4B84
:1016B00000229A60194B0022DA60184B4FF48062C6
:1016C0001A61164B4FF400625A61144B4FF40052EA
:1016D0009A61124B4FF48072DA61104B00221A6249
:1016E0000E4B00225A620D4807F006FB382007F027
:1016F0007DFA02220021382007F05CFA094B074AE4
:101700009A63064B074A9A6300BF2837BD4680BDDF
:101710000020014000380240000002409C5200209E
:10172000106402405452002080B582B000AF78604F
:101730007B681B68054A934204D1054A002105488D
:1017400004F0A2FE00BF0837BD4680BD0020014066
:10175000F4130020B438002080B500AF024807F031
:10176000FBFB00BF80BD00BF9C52002080B586B04F
:1017700000AF124A114B1B6B43F0040313630F4B72
:101780001B6B03F004033B603B684FF400537B602A
:101790000123BB600123FB6003233B613B1D194612
:1017A000074807F041FF01224FF40051044808F0B8
:1017B000FDF800BF1837BD4680BD00BF00380240AD
:1017C0000008024080B500AF00224FF400510848E5
:1017D00008F0ECF8022006F04DFD01224FF4005114
:1017E000034808F0E3F8022006F044FD00BF80BD86
:1017F0000008024080B584B000AF334A324B1B6C06
:1018000043F080531364304B1B6C03F08053BB6078
:10181000BB682E4A2D4B1B6843F4404313602B4B8F
:101820001B6803F440437B607B68294B01221A60EC
:10183000274B4FF480325A60254B0022DA60244B4C
:1018400002229A61224B4FF48002DA61204B192266
:101850001A621F4B4FF4D8725A621D4B02229A62D1
:101860001B4B0922DA621A480AF098F80346FB7308
:10187000FB7B002B00D0FEE70AF040F80346FB7329
:10188000FB7B002B00D0FEE7124B0F221A60114B9E
:1018900002225A600F4B00229A600E4B4FF4A05266
:1018A000DA600C4B4FF480521A61072109480AF0A4
:1018B0002BFB0346FB73FB7B002B00D0FEE700BF36
:1018C0001037BD4680BD00BF0038024000700040A8
:1018D000F81300202C14002080B584B000AF03461C
:1018E000FB71FB79032B1BD801A252F823F000BF38
:1018F0000119000809190008111900081919000830
:101900000AF000FCF8600EE00AF07AFCF8600AE0E9
:101910000AF082FCF86006E00AF0A0FCF86002E041
:101920000123FB6000BFFB6818461037BD4680BD31
:1019300080B588B000AF1E4A1D4B1B6B43F00203FD
:1019400013631B4B1B6B03F00203BB60BB68184A9D
:10195000174B1B6B43F480731363154B1B6B03F422
:1019600080737B607B680323FB6001233B61012361
:101970007B610323BB6107F10C0319460D4807F097
:1019800053FE4FF40063FB6007F10C0319460A484D
:1019900007F04AFE002000F011F8012000F00EF8D8
:1019A000022000F043F800BF2037BD4680BD00BFD5
:1019B00000380240000402400020024080B582B09E
:1019C00000AF0346FB71FB79012B09D0022B0DD030
:1019D000002B12D101220121124807F0E7FF1DE080
:1019E000012202210F4807F0E1FF17E000224FF427
:1019F00000610D4807F0DAFF10E000224FF40061AB
:101A0000094807F0D3FF01220121064807F0CEFF65
:101A100001220221034807F0C9FF00BF00BF0837B9
:101A2000BD4680BD000402400020024080B582B067
:101A300000AF0346FB71FB79012B09D0022B0DD0BF
:101A4000002B12D100220121124807F0AFFF1DE048
:101A5000002202210F4807F0A9FF17E001224FF4EE
:101A600000610D4807F0A2FF10E001224FF4006171
:101A7000094807F09BFF00220121064807F096FF66
:101A800000220221034807F091FF00BF00BF083782
:101A9000BD4680BD000402400020024080B582B0F7
:101AA00000AF0346FB71FB79012B08D0022B0BD052
:101AB000002B0FD10121104807F091FF18E00221FF
:101AC0000D4807F08CFF13E04FF400610B4807F05E
:101AD00086FF0DE04FF40061084807F080FF012108
:101AE000054807F07CFF0221034807F078FF00BF9C
:101AF00000BF0837BD4680BD000402400020024000
:101B000080B588B000AF00F003F9414B414A1A603C
:101B10003F4B4FF480725A603D4B00229A603C4B21
:101B20000022DA603A4B00221A61394B4FF400323E
:101B30005A61374B0A229A61354B0A22DA610A232D
:101B40003B610A237B610A23BB610A23FB610A23F1
:101B50003B600A237B600A23BB600A23FB603A4692
:101B600007F1100319462A4809F086FE00F0AEF985
:101B7000642000F0D5FF00F01FF90246264B1A61E1
:101B8000254B1B691946254819F020FE042000F05A
:101B9000E7F8214B1B69224A934216D11E4B4FF4A2
:101BA00087521A801C4B4FF480525A801A4BE02205
:101BB0009A80194B80229A71174B4FF400621A8158
:101BC000154B4FF480525A811DE0134B1B69154A87
:101BD000934216D1104B4FF404621A800E4B4FF40F
:101BE00000625A800C4B40229A800B4B40229A7123
:101BF000094B4FF400621A81074B4FF480525A810F
:101C000001E0012300E0002318462037BD4680BDD7
:101C1000FC520020800000A03C530020C40E0208AB
:101C200089260048569590DC80B58CB000AF78606E
:101C3000334A334B9B6B43F001039363304B9B6BF5
:101C400003F00103BB61BB692D4A2D4B1B6B43F0B5
:101C5000080313632A4B1B6B03F008037B617B694A
:101C6000274A274B1B6B43F010031363244B1B6B5A
:101C700003F010033B613B69214A214B1B6B43F08E
:101C8000400313631E4B1B6B03F04003FB60FB68B8
:101C90004023FB6100233B6201237B620323BB6281
:101CA00007F11C031946174807F0BEFC4FF40073F8
:101CB000FB6102233B6200237B620323BB620C2394
:101CC000FB6207F11C0319460F4807F0ADFC4DF607
:101CD0003303FB6100237B6207F11C0319460948AB
:101CE00007F0A2FC4FF4F063FB6107F11C031946F7
:101CF000064807F099FC00BF3037BD4680BD00BFE5
:101D000000380240000C024000180240001002405F
:101D100080B584B000AF06F077FF01233B7003234A
:101D20007B704FF000437B601B233B7200237B7270
:101D30000023BB720323FB7200233B7300237B73DE
:101D40000023BB730123FB733B46184606F090FF4C
:101D5000042006F06FFF00BF1037BD4680BD0000B5
:101D600080B582B000AF0346FB71114BEF221A70B1
:101D7000104B01221A704FF00042FB7913704FF0A4
:101D8000004300221A704FF0004300221A704FF0F7
:101D9000004300221A7000F077F80346402B01D16F
:101DA000002300E0012318460837BD4680BD00BF70
:101DB000000001800000028080B485B000AF184BA5
:101DC00090221A70174B00221A704FF000431B78B4
:101DD000DBB23B714FF000431B78DBB27B714FF0FD
:101DE00000431B78DBB2BB714FF000431B78DBB2C2
:101DF000FB714FF000431B78DBB23B727B791A0614
:101E0000BB791B041A43FB791B0213433A7A134331
:101E1000FB60FB6818461437BD465DF8047B7047CD
:101E2000000001800000028080B483B000AF002376
:101E3000FB71144B70221A70FB79DBB20133DBB2F9
:101E4000FB71FB79DBB20133DBB2FB71FB79DBB2F7
:101E50000133DBB2FB71FB79DBB20133DBB2FB7127
:101E6000FB79DBB20133DBB2FB714FF000431B782F
:101E7000DBB2FB71FB79DBB218460C37BD465DF86F
:101E8000047B70470000018080B582B000AF002362
:101E9000FB7100233B60FFF7C7FF0346FB71FB7933
:101EA00003F04003002B08D13B6801333B603B68E3
:101EB000054A9342EFD9022301E000BF40231846B0
:101EC0000837BD4680BD00BFFEFF010080B500AFF2
:101ED000064BFF221A70FFF7D7FF0346402B01D1B4
:101EE000002300E00123184680BD00BF00000180F0
:101EF00080B582B000AF0120FFF7EEFC7860786813
:101F000005F0F6FE00BF0837BD4680BD80B582B043
:101F100000AF7860002006F042FE00231846083724
:101F2000BD4680BD80B582B000AFBB1C184605F031
:101F30009FFA78607B6818460837BD4680BD000070
:101F400080B5B6B000AF78607A4A7A4B5B6C43F0EC
:101F500080635364774B5B6C03F08063FB60FB68CA
:101F600008237B644FF4C673BB6503233B664FF4C1
:101F700080333B6707F1440318460AF091F90346A2
:101F8000C7F8D430D7F8D430002B40F0C5806A4B66
:101F90006A4A1A60684B00225A60674B00229A60B6
:101FA000654B0022DA60644B00221A617B689B68F3
:101FB000013B614A53617B68DB68013B5E4A936188
:101FC0007B689A687B681B691344013B5A4AD3615A
:101FD0007B68DA687B685B691344013B564A13628D
:101FE0007B689A687B681B691A447B681B6813448A
:101FF000013B514A53627B68DA687B685B691A442B
:102000007B685B681344013B4B4A93627B689A6828
:102010007B681B691A447B681B681A447B689B6950
:102020001344013B444AD3627B68DA687B685B698E
:102030001A447B685B681A447B68DB691344013B84
:102040003D4A13633C4B002283F836203A4B002272
:1020500083F83520384B002283F83420364808F0C6
:10206000F3FD0346C7F8D430D7F8D430002B55D150
:1020700000233B610023BB617B681B687B617B683D
:102080005B68FB6102233B62FF237B620023BB6230
:102090004FF4C063FB624FF4E0633B634FF0404397
:1020A0007B637B681B68BB637B685B68FB630023A7
:1020B00087F84230002387F84130002387F840300A
:1020C00007F11003002219461B4808F059FF034688
:1020D000C7F8D430D7F8D430002B21D10023002208
:1020E0000021154809F03DF90346C7F8D430D7F868
:1020F000D430002B16D17B6819687B685A6800239E
:102100000D4809F0E2F80346C7F8D4300122202137
:102110000B4807F04BFC06E000BF04E000BF02E004
:1021200000BF00E000BFD7F8D4301846D837BD460E
:1021300080BD00BF0038024090410020006801408F
:102140000004024080B58EB000AF7860484A484B2A
:102150005B6C43F080635364454B5B6C03F08063BE
:102160003B623B6A424A424B1B6B43F400031363DE
:102170003F4B1B6B03F40003FB61FB693C4A3C4B88
:102180001B6B43F002031363394B1B6B03F0020319
:10219000BB61BB69364A364B1B6B43F020031363AC
:1021A000334B1B6B03F020037B617B69304A304B60
:1021B0001B6B43F0400313632D4B1B6B03F0400379
:1021C0003B613B692A4A2A4B1B6B43F08003136334
:1021D000274B1B6B03F08003FB60FB68244A244BF6
:1021E0001B6B43F480731363214B1B6B03F48073ED
:1021F000BB60BB6820237B620123BB620123FB62BF
:1022000003233B6307F1240319461A4807F00CFA2D
:102210004FF480637B620223BB620023FB620323D3
:102220003B630E237B6307F124031946124807F032
:10223000FBF94FF40C637B6207F1240319460F4846
:1022400007F0F2F94FF47E437B6207F1240319464D
:102250000B4807F0E9F940F2F7637B6207F12403CA
:102260001946084807F0E0F900BF3837BD4680BD81
:1022700000380240000402400014024000180240EE
:10228000001C02400020024080B500AF02480AF066
:102290004DFF00BF80BD00BF9853002080B582B0C5
:1022A00000AF7860034819F0FDFA00BF0837BD465B
:1022B00080BD00BF680F020880B500AF02480AF079
:1022C0007BFF00BF80BD00BF9853002080B483B067
:1022D00000AF786000BF0C37BD465DF8047B7047E7
:1022E00080B582B000AF184A174B5B6C43F40063B3
:1022F0005364154B5B6C03F400633B603B68134B0A
:10230000134A1A60114B00225A60104B00229A6047
:102310000E4B0022DA600D4B4FF400621A610B4B3A
:1023200000225A61094B00229A6108480AF07AFF9C
:102330000346FB71FB79002B01D0012300E0002351
:1023400018460837BD4680BD003802409856002028
:10235000002C014080B58AB000AF7860204A204B45
:102360001B6B43F4800313631D4B1B6B03F480034F
:102370003B613B691A4A1A4B1B6B43F0040313631E
:10238000174B1B6B03F00403FB60FB68144A144BF0
:102390001B6B43F008031363114B1B6B03F0080323
:1023A000BB60BB684FF4F8537B610223BB61012320
:1023B000FB6103233B620C237B6207F11403194684
:1023C000084807F031F904237B6107F1140319462B
:1023D000054807F029F900BF2837BD4680BD00BF7A
:1023E0000038024000080240000C024080B500AFF7
:1023F000214B224A1A60204B00225A601E4B0122B8
:102400009A601D4B0822DA601B4B10221A611A4B8E
:1024100040225A61184B4FF4C0729A61164B002249
:10242000DA61154B4FF400621A62134B4FF480527D
:102430005A62114B4FF400529A62114B02221A60F9
:102440000F4B08225A600E4B06229A600C4B062254
:10245000DA600B4B02221A61094B02225A61084BC7
:1024600002229A61064904480BF007FB024800F07B
:1024700009F800BF80BD00BF1C570020400100A02C
:102480005057002080B584B000AF78600023FB6017
:10249000002301220121002000F0B6F84FF47A70E9
:1024A00000F049FB002301220221002000F0ACF8DB
:1024B000002308220321002000F0A6F84FF40C733B
:1024C000FB60FB689BB201220421002000F09CF815
:1024D00040F2373103480BF02FFB00BF1037BD46E9
:1024E00080BD00BF1C57002080B58EB000AF786063
:1024F0003F4A3F4B9B6B43F0010393633C4B9B6B09
:1025000003F001033B623B6A394A394B1B6B43F0D2
:1025100004031363364B1B6B03F00403FB61FB697D
:10252000334A334B1B6B43F008031363304B1B6B75
:1025300003F00803BB61BB692D4A2D4B1B6B43F0B5
:10254000100313632A4B1B6B03F010037B617B6941
:10255000274A274B1B6B43F020031363244B1B6B51
:1025600003F020033B613B69214A214B1B6B43F085
:10257000400313631E4B1B6B03F04003FB60FB68BF
:102580000D237B620223BB620123FB6203233B63B7
:102590000C237B6307F124031946164807F044F81F
:1025A0004CF203737B6207F124031946124807F0CB
:1025B0003BF84FF683737B6207F1240319460F48FB
:1025C00007F032F84FF63F037B6207F12403194608
:1025D0000B4807F029F848F237137B6207F1240310
:1025E0001946084807F020F800BF3837BD4680BDBF
:1025F0000038024000080240000C02400010024077
:10260000001402400018024090B589B000AF0446A3
:10261000084611461A462346FB710346BB710B461A
:102620007B7113467B800023FB61FB79002B02D179
:102630001023FB6104E0FB79012B01D10823FB612E
:10264000BB79FB60FB693B617B797B617B88BB610C
:1026500007F10C034FF48052194606480BF041FA7B
:102660000346002B01D1002300E001231846243744
:10267000BD4690BD1C57002080B582B000AF174A00
:10268000164B1B6C43F001031364144B1B6C03F0DB
:1026900001037B607B68124B4FF080421A60104B45
:1026A00040F2CF72DA600E4B4DF2EF225A600C4BC3
:1026B00000229A600A480BF05FFA0A4B20221A6047
:1026C000084B80229A60074905480CF08DF90448B0
:1026D0000BF07DFA00BF0837BD4680BD00380240D0
:1026E0005C5800208857002080B582B000AF1A4A9D
:1026F000194B1B6C43F002031364174B1B6C03F064
:1027000002037B607B68154B154A1A60134B40F23D
:10271000CF72DA60114B4DF2EF225A600F4B00225C
:102720009A600E480BF06EFA0E4B60221A600D4B49
:1027300040F2E7325A600B4B00229A600C220949A2
:1027400006480CF0B9F90C2104480BF087FA00BFD9
:102750000837BD4680BD00BF003802401C5800202D
:10276000000400406C57002080B582B000AF1C4AC6
:102770001B4B1B6C43F008031364194B1B6C03F0D9
:1027800008037B607B68174B174A1A60154B6B2256
:102790005A60144B00229A60124B4FF0FF32DA60FD
:1027A000104B00221A610F480BF08CFA0F4B0022DD
:1027B0001A600E4B00229A600C4B0022DA600B4B21
:1027C00001225A600022094906480BF026FC00212C
:1027D00004480BF0A3FA00BF0837BD4680BD00BF18
:1027E00000380240DC570020000C0040401400205C
:1027F00080B588B000AF78607B681B68114A93424F
:102800001BD1114A104B1B6B43F0020313630E4B99
:102810001B6B03F00203BB60BB680223FB60022357
:102820003B6101237B610323BB610223FB6107F151
:102830000C031946054806F0F7FE00BF2037BD46D9
:1028400080BD00BF00040040003802400004024088
:1028500080B586B000AF78607B681B68B3F1804FAD
:1028600014D1264A254B1B6C43F001031364234B00
:102870001B6C03F001037B617B691C2006F0B6F939
:10288000022200211C2006F095F932E07B681B68CB
:102890001B4A934214D1194A184B1B6C43F0020394
:1028A0001364164B1B6C03F002033B613B691D2054
:1028B00006F09CF9032200211D2006F07BF918E0A8
:1028C0007B681B680F4A934213D10C4A0B4B1B6C5D
:1028D00043F004031364094B1B6C03F00403FB6017
:1028E000FB68002201211E2006F064F91E2006F07C
:1028F0007DF900BF1837BD4680BD00BF00380240DB
:10290000000400400008004080B58AB000AF786045
:102910007B681B681B4A93422FD11B4A1A4B1B6CC6
:1029200043F008031364184B1B6C03F008033B616E
:102930003B69322006F05AF902220021322006F0CB
:1029400039F9114A104B1B6B43F0010313630E4B13
:102950001B6B03F00103FB60FB6801237B61022317
:10296000BB610223FB6103233B6202237B6207F10D
:1029700014031946054806F057FE00BF2837BD4628
:1029800080BD00BF000C0040003802400000024043
:1029900080B483B000AF78607B681B68114A9342B3
:1029A0000BD1114B1B6803F04003002B14D00E4BCE
:1029B0001B6801330C4A13600EE07B681B680B4AEE
:1029C000934209D07B681B68094A934204D1094BA2
:1029D0001B680A33074A136000BF0C37BD465DF819
:1029E000047B7047000C0040D457002000040040D6
:1029F00000080040E471002080B500AF00F034FE14
:102A000004480BF0EBF90220FFF748F800F048FE0D
:102A100000BF80BD5C58002080B500AF02480BF0BD
:102A2000DDF900BF80BD00BF1C58002080B500AF9D
:102A300002480BF0D3F900BF80BD00BF94570020BF
:102A400080B500AF00F010FE03480BF0C7F900F0AE
:102A500027FE00BF80BD00BFDC57002080B584B0DA
:102A600002AF78607B681B68294A93424BD1294B9F
:102A70001B689B17002B02D0012B2CD043E0254B69
:102A80004FF080421A60234B00225A607B681B681B
:102A90001A6A41F211131340002B0FD17B681B6897
:102AA0001A6A40F244431340002B07D17B681B682D
:102AB0007A681268126822F001021A607B681B684B
:102AC00000225A627B681B687A681268126842F0BA
:102AD00001021A6017E00F4B1B6843F000430D4AD8
:102AE0001360002178680BF035FB03461A46094B4A
:102AF0005A60094B00934FF40073012205490748BF
:102B000002F0E0FA00BF00BF0837BD4680BD00BF3D
:102B1000000C0040D457002050140020502000200A
:102B200080B582B000AF7860786805F0A3FB00BF85
:102B30000837BD4680BD80B485B000AF7860002303
:102B4000BB600BE00023FB6002E0FB680133FB602D
:102B5000FB68FE2BF9D9BB680133BB60BA687B68A0
:102B60009A42EFD300BF1437BD465DF8047B70472F
:102B700080B500AF0220FFF7DEFF00BF80BD000080
:102B800080B588B000AF194A184B1B6B43F0800327
:102B90001363164B1B6B03F08003BB60BB68134AC7
:102BA000124B1B6B43F480731363104B1B6B03F4CA
:102BB00080737B607B684023FB6001233B610123C2
:102BC0007B610323BB6107F10C031946084806F03B
:102BD0002BFD0823FB6007F10C031946054806F09E
:102BE00023FD00BF2037BD4680BD00BF0038024036
:102BF000001C02400020024080B500AF134A134B76
:102C00001B6823F0C0031360104A104B1B6843F08D
:102C100040031360012208210C4806F0C7FE012280
:102C200040210B4806F0C2FE1E20FFF784FF002261
:102C30000821064806F0BAFEFFF79AFF002240215D
:102C4000034806F0B3FE00BF80BD00BF0020024075
:102C5000001C024080B582B000AF0023FB711A4A0D
:102C6000194B1B6823F0C0031360174A164B1B68EF
:102C7000136001220821144806F098FE0122402129
:102C8000124806F093FEFFF773FF0BE0FB79013368
:102C9000FB71FB79FA2B03D900F076F801230EE0E3
:102CA000FFF766FF0821084806F068FE0346002B80
:102CB000ECD100224021054806F078FE002318469A
:102CC0000837BD4680BD00BF00200240001C024006
:102CD00080B500AF00224021124806F067FE124A7C
:102CE000114B1B6823F0C00313600F4A0E4B1B6887
:102CF00043F040031360FFF73BFF002208210A481E
:102D000006F054FEFFF734FF01224021054806F08B
:102D10004DFEFFF72DFF00224021024806F046FE3F
:102D200000BF80BD001C02400020024080B500AF03
:102D300000224021124806F039FE124A114B1B684E
:102D400023F0C00313600F4A0E4B1B6843F040038F
:102D50001360FFF70DFF012208210A4806F026FE46
:102D6000FFF706FF01224021054806F01FFEFFF78E
:102D7000FFFE00224021024806F018FE00BF80BD81
:102D8000001C02400020024080B500AF104A104BEA
:102D90001B6823F0C00313600D4A0D4B1B6843F002
:102DA00040031360012240210A4806F0FFFD1E2067
:102DB000FFF7C1FE00220821054806F0F7FDFFF7E6
:102DC000D7FE01220821024806F0F0FD00BF80BDB9
:102DD00000200240001C024080B584B000AF0346D2
:102DE000FB710023BB731E4A1D4B1B6823F0C003FD
:102DF00013601B4A1A4B1B6813601E20FFF79BFED3
:102E00000023FB731BE000224021164806F0CEFD94
:102E1000FFF7AEFE01224021124806F0C7FDBB7B42
:102E20005B00BB7308210E4806F0A8FD0346002B8B
:102E300002D0BB7B0133BB73FB7B0133FB73FB7B9A
:102E4000072BE0D9FB79002B02D1FFF76FFF01E0E0
:102E5000FFF73EFFBB7B18461037BD4680BD00BF65
:102E600000200240001C024080B584B000AF034641
:102E7000FB71204A1F4B1B6823F0C00313601D4ADF
:102E80001C4B1B6843F040031360002240211A488A
:102E900006F08CFDFFF76CFE0023FB7322E097F930
:102EA0000730002B05DA01220821124806F07EFDCA
:102EB00004E0002208210F4806F078FDFB795B0052
:102EC000FB71012240210C4806F070FDFFF750FE17
:102ED00000224021084806F069FDFFF749FEFB7B10
:102EE0000133FB73FB7B072BD9D900BF1037BD46DD
:102EF00080BD00BF00200240001C024080B584B0AD
:102F000000AF03463960FB8013467B710023BB731F
:102F1000FFF772FE7020FFF7A7FFFFF79BFEFB880D
:102F2000DBB21846FFF7A0FFFFF794FE0023FB7308
:102F300010E0FB7B3A6813441B781846FFF794FFB8
:102F4000FFF788FE0346BB73BB7B002B07D1FB7BDF
:102F50000133FB73FA7B7B799A42EAD300E000BF2E
:102F6000FFF712FFBB7B18461037BD4680BD90B5FA
:102F700085B000AF03463960FB8013467B71FFF7D5
:102F80003BFE7020FFF770FFFFF764FEFB88DBB2AB
:102F90001846FFF769FFFFF75DFEFFF72DFE712072
:102FA000FFF762FFFFF756FE0023FB7312E0FB7B87
:102FB0003A68D418FA7B7B79013B9A4214BF01230B
:102FC0000023DBB21846FFF707FF03462370FB7BA5
:102FD0000133FB73FA7B7B799A42E8D3FFF7D4FE87
:102FE00000BF1437BD4690BD80B588B000AF444ADD
:102FF000434B1B6B43F080031363414B1B6B03F08C
:1030000080037B607B683E4A3D4B1B6B43F48073BF
:1030100013633B4B1B6B03F480733B603B68802363
:10302000BB60384BFB6001233B6103237B6107F1ED
:1030300008031946344806F0F7FA172005F0D6FDC4
:1030400000220521172005F0B5FD4FF48073BB6009
:103050000123FB6007F1080319462C4806F0E4FA47
:10306000FFF78EFD00224FF48071284806F09EFC89
:103070001420FFF755FD01224FF48071234806F01C
:1030800095FC3220FFF74CFD00233B7707F11C0332
:10309000012219460020FFF731FF07F11C0301222E
:1030A0001946A420FFF72AFF16233B7707F11C03DC
:1030B000012219468020FFF721FF0C233B7707F1FF
:1030C0001C03012219468820FFF718FF07F11C0393
:1030D00002221946A120FFF74AFF3B7F302B02D185
:1030E0007B7F032B05D07B7F012B02D07B7F022BC4
:1030F00001D1002300E0012318462037BD4680BDE2
:103100000038024000002110001C02400020024054
:1031100080B582B000AF7B1D012219460220FFF767
:1031200026FF7B7903F00F03002B4CD07B7903F053
:103130000F03052B47DC7B7903F00F03FF2202FA14
:1031400003F3BB7197F90630DB435BB263F03F03D7
:103150005BB2DAB21E4B1A777B7903F00F03BB71B7
:103160000023FB712BE0FB791A4A32F81330394601
:1031700004221846FFF7FBFEFB793A78120292B25E
:1031800002F4706291B27A7892B20A4491B2104A13
:1031900008335B0013440A465A80FB79BA7812025E
:1031A00092B202F4706291B2FA7892B20A4491B289
:1031B000074A043322F81310FB790133FB71FA79C3
:1031C000BB799A42CFD3002318460837BD4680BD4D
:1031D00020000020AC1A020880B500AF00F044FACD
:1031E000054A0021054803F04FF9054B80225A613A
:1031F00000F056FA00BF80BD521400203842002073
:10320000003C014080B500AF124B134A1A60114BCD
:103210004FF4E1325A600F4B00229A600D4B0022AE
:10322000DA600C4B00221A610A4B0C225A61094BDE
:1032300000229A6107480BF009FE03461A46074B25
:103240001A70064B1B780133DAB2044B1A7000BFB8
:1032500080BD00BF9C580020004400405414002052
:1032600080B58CB000AF78607B681B68414A9342A0
:103270003AD1414A404B1B6C43F4003313643E4B3C
:103280001B6C03F40033BB61BB693B4A3A4B1B6BBD
:1032900043F001031363384B1B6B03F001037B61A5
:1032A0007B690423FB6102233B6200237B620023D2
:1032B000BB620723FB6207F11C0319462F4806F087
:1032C000B3F90823FB610723FB6207F11C031946CE
:1032D0002A4806F0A9F901220121262005F06AFCFE
:1032E000262005F083FC40E07B681B68244A93425B
:1032F0003BD1214A204B5B6C43F0100353641E4BBF
:103300005B6C03F010033B613B691B4A1A4B1B6B60
:1033100043F001031363184B1B6B03F00103FB60C5
:10332000FB684FF48063FB6102233B6200237B62F6
:103330000023BB620723FB6207F11C0319460F48F9
:1033400006F072F94FF40073FB610723FB6207F18B
:103350001C031946094806F067F9012201212520BE
:1033600005F028FC252005F041FC00BF3037BD46A4
:1033700080BD00BF00440040003802400000024011
:103380000010014080B584B000AFF860B9607A6089
:103390007B689BB21A46B96803480BF0A8FD7B68AE
:1033A00018461037BD4680BD9C58002080B483B0BD
:1033B00000AF78607B68202283F8692000BF0C375B
:1033C000BD465DF8047B704780B500AF00F04CF956
:1033D00003480BF0D3FD00F063F900BF80BD00BFD0
:1033E0009C58002080B500AF00F03EF903480BF078
:1033F000C5FD00F055F900BF80BD00BF9C580020FE
:1034000080B582B000AF154B1B687B607B6803F012
:103410000103002B07D07B6803F00203002B02D0CE
:103420000F4B104A1A600120FEF756FA38600E4A18
:103430000D4B1B6843F0807313600C4B00221A6025
:103440000B4A0B4B1B6843F001031360386804F010
:10345000AFFD00BF0837BD4680BD00BFB41F00E010
:10346000B01F00E055CEACC5FCED00E0041000E05C
:10347000001000E080B483B000AF054B1B687B6098
:103480007B6818460C37BD465DF8047B704700BF6B
:10349000041000E080B400AF00BFBD465DF8047BBF
:1034A0007047000080B584B000AF786004F0A4F9E4
:1034B000534B00221A70534B00221A70524B0022B9
:1034C0001A70524B00221A60514B00221A60514B65
:1034D00000221A70504B00221A70504B1B68FB6080
:1034E000FB68002B0FD04E4B1B68BB6008E0BB682D
:1034F000013BBB60FB6800221A60FB680433FB6081
:10350000BB68002BF3D1474B00221A60464B0022C8
:103510001A60464B00221A60454B00221A60454B48
:1035200000221A60444B00221A60444B00221A60A9
:10353000434B00221A7001F0F7FB00F0BDFC414B39
:1035400000221A60404B00221A80786800F004FFC5
:103550007B681B88002B43D1786800F015FF7B68DF
:103560001B88002B3ED1394B00221A60384B0022B9
:103570001A80384B00221A60374B00221A80374BD2
:1035800000221A60364B00221A80786803F0E8F9AE
:103590007B681B88002B27D1786800F053FA7B6882
:1035A0001B88002B22D1786803F0C0FB7B681B8846
:1035B000002B1DD1786802F029FB7B681B88002B4B
:1035C00018D1786803F0A4FF7B681B88002B13D107
:1035D00000F0B0FDFFF75EFF224B01221A700CE0F5
:1035E00000BF0AE000BF08E000BF06E000BF04E043
:1035F00000BF02E000BF00E000BF1037BD4680BD45
:10360000B46700202165002010650020906700202D
:1036100098670020B4660020A8660020C41A02083B
:10362000C81A0208B0660020A467002014650020B4
:10363000AC690020CC690020B8690020A867002090
:1036400020650020D4690020D0690020C86A0020CD
:10365000DC6900206C69002094670020AC660020C3
:1036600070690020A466002080B400AF0A4B1B786C
:10367000012B0AD1094B1B78F92B08D8074B1B7873
:103680000133DAB2054B1A7002E000BF00E000BF60
:10369000BD465DF8047B704721650020B4670020BB
:1036A00080B582B000AF00237B602B4B1B78012BD1
:1036B0004ED1FCF763FE7860284B1B78002B03D1BA
:1036C0007868FCF75FFE44E0244B1B78013BDAB2DC
:1036D000224B1A70214B1B78002B03D07868FCF723
:1036E00051FE36E01E4B1B78002B03D07868FCF7A8
:1036F00049FE2EE001F032FB03461A46194B1A70C0
:10370000184B1B781946184A0B465B000B449B006C
:1037100013441B68154A1360144B1A68144B1B683A
:103720009A4203D17868FCF72DFE12E00F4B1B681C
:10373000D3F8A0200132C3F8A0200E4B1B68013340
:103740000C4A1360FCF7E3FD7868FCF71BFE00E011
:1037500000BF0837BD4680BD21650020B46700204A
:1037600010650020A86600202465002098670020CE
:1037700090670020B067002080B582B000AF0023C2
:103780007B60204B1B78002B36D11F4B1B78002B06
:1037900034D1FCF7F3FD786001F0E0FA03461A46F5
:1037A0001A4B1A70194B1B781946194A0B465B00C5
:1037B0000B449B0013441B68164A1360154B1A6890
:1037C000154B1B689A4203D17868FCF7DBFD16E0C5
:1037D000104B1B68D3F8A0200132C3F8A0200F4B78
:1037E0001B6801330D4A1360FCF78CFD7868FCF709
:1037F000C9FDBFF36F8F02E000BF00E000BF0837D4
:10380000BD4680BDB467002010650020A86600207A
:10381000246500209867002090670020B067002092
:1038200080B584B000AF78600023FB60184B1B7834
:10383000002B04D07B6846F662521A8024E0154BB8
:103840001B78012B04D07B6845F689621A801BE047
:10385000114B1B78F92B04D97B6845F209221A8099
:1038600012E0FCF78BFDF86004F0FEFB0A4B1B78BE
:103870000133DAB2084B1A7004F016FCF868FCF752
:1038800081FD7B6800221A801037BD4680BD00BFD5
:10389000B4670020216500201065002080B584B049
:1038A00000AF78600023FB60204B1B78002B04D016
:1038B0007B6846F665521A8034E01D4B1B78012B5D
:1038C00004D07B6845F689621A802BE0194B1B787F
:1038D000002B04D17B6846F664521A8022E0FCF784
:1038E0004DFDF86004F0C0FB124B1B78013BDAB2CF
:1038F000104B1A700F4B1B78002B09D004F0D4FB2F
:10390000F868FCF73FFD7B6846F663521A8009E0D1
:1039100004F0CAFBF868FCF735FDFFF72DFF7B6864
:1039200000221A801037BD4680BD00BFB46700205A
:10393000216500201065002080B584B000AF78605C
:10394000274B1B78012B04D07B6845F68B621A80CD
:1039500043E00023FB81FB890133FB81FB890133B9
:10396000FB81FB890133FB81FB890133FB811D4B0B
:103970001B88FA899A4204D37B6845F68C621A80C8
:103980002BE0194B1B78002B23D101F0E7F90346FC
:103990001A46164B1A70154B1A78154B1A70134BA2
:1039A0001B781946134A0B465B000B449B001344DB
:1039B0001B68114A1360104B1B68104A13600A4BB6
:1039C00001221A70FCF761FC7B6843F699221A8089
:1039D00003E07B6845F68A621A801037BD4680BDD9
:1039E000A4660020B667002021650020A86600209C
:1039F000B4660020246500209867002090670020AE
:103A000080B584B000AF78600023FB60FCF7B6FCA3
:103A1000F86004F029FB094B1B680133074A136067
:103A2000074B1B680133064A136004F03DFBF8683E
:103A3000FCF7A8FC03F0D2FEE8E700BFC469002051
:103A40001C65002080B58CB00AAF7860104B002256
:103A50001A60104B1B68104A126810490968786890
:103A600008900B2007900020069000200590002071
:103A700004900391029201931F2300930023084AAC
:103A80000849094802F02CF900BF0837BD4680BD3F
:103A9000C4690020B81A0208BC1A0208C01A020839
:103AA000013A0008740F02089868002080B586B0BB
:103AB00000AFF8600B467A60FB72174B1B68FA7A0E
:103AC00083F83C20144B1B68002283F83D20124BE6
:103AD0001B687968184600F00DFBFB68002B0DD0C1
:103AE000FB6808337B610C4B1B68FA689A630A4BCE
:103AF0001B681946786900F0A3F803E0064B1B68C1
:103B000000229A63044B1B681946F86800F006F817
:103B100000BF1837BD4680BD9067002080B485B0D7
:103B200000AF786039607B68002B0FD07B685A68E3
:103B30003B68C3F8D0207B680833FB60FB681B68D8
:103B4000BB60BB689A687B68DA6116E03B6893F8F3
:103B50003C30022B02D0072B05D009E03B680A4A13
:103B6000C3F8D02009E03B68084AC3F8D02004E03D
:103B70003B68074AC3F8D02000BF00BF1437BD46DA
:103B80005DF8047B704700BF880F0208900F0208A1
:103B90009C0F020880B485B000AF786039603B6844
:103BA0000E4AC3F8D0207B68002B10D07B68083306
:103BB000FB60FB681B68BB60BB68002B04D0BB6864
:103BC0009A687B68DA6102E07B68044ADA6100BFC8
:103BD0001437BD465DF8047B704700BF9C0F020898
:103BE00080B584B000AF78607B689B6BFB60FB683E
:103BF0000833BB60BB681B681B6B002B09D078685F
:103C000000F08AF87B68FA689A637968B86800F00F
:103C100017F800BF1037BD4680BD80B483B000AF39
:103C200078607B6800221A607B6800225A607B689B
:103C300000221A8100BF0C37BD465DF8047B704737
:103C400080B485B000AF786039603B6893F83F304E
:103C5000FB727B681B68002B0FD17B6801221A81E5
:103C60003B6800221A633B6800225A637B683A680B
:103C70001A607B683A685A6048E07B681B890133A8
:103C80009AB27B681A817B681B68FB6008E0FB685E
:103C900093F83F30FA7A9A4206D3FB681B6BFB60BD
:103CA000FB68002BF3D100E000BFFB68002B0ED1B6
:103CB0003B6800221A637B685A683B685A633B681A
:103CC0005B6B3A681A637B683A685A601EE0FB686F
:103CD0005B6B002B0CD13B68FA681A633B680022CF
:103CE0005A63FB683A685A637B683A681A600DE069
:103CF0003B68FA681A63FB685A6B3B685A633B6817
:103D00005B6B3A681A63FB683A685A6300BF143702
:103D1000BD465DF8047B704780B487B000AF786023
:103D20007B689B6B002B46D07B689B6B08337B6169
:103D30007B691B681B6B002B06D17B6900221A6014
:103D40007B6900225A6027E07B685B6B002B09D1FE
:103D50007B681B6B3B613B6900225A637B693A6954
:103D60001A6019E07B681B6B002B09D17B685B6BC9
:103D7000FB60FB6800221A637B69FA685A600BE0FB
:103D80007B685B6BFB607B681B6B3B61FB683A6924
:103D90001A633B69FA685A637B691B89013B9AB2D3
:103DA0007B691A817B6800221A637B6800225A6350
:103DB0007B6800229A6300BF1C37BD465DF8047B18
:103DC0007047000080B584B000AFF860B9607A60D9
:103DD0007B80BB6893F83E30072B68D801A252F86D
:103DE00023F000BFAF3E0008AF3E0008053E0008CC
:103DF000053E0008AF3E0008AF3E00085D3E0008EB
:103E00005D3E0008BB687A681A66BB687A88A3F8CA
:103E10006420BB68BA691A65FB68002B02D0B868D9
:103E2000FFF77AFFB968F868FFF7B4FEBB6893F84C
:103E30003E30032B02D1B86803F0F8F8B86800F000
:103E400061F8BB68002283F83E20BB68002283F83B
:103E50003D20BB68002283F83C2029E0BB687A68DB
:103E60001A66BB687A88A3F86420BB68BA691A65C9
:103E7000FB68002B02D0B868FFF74EFFB968F868FE
:103E8000FFF788FEBB6893F83E30072B02D1B86875
:103E900003F0CCF8BB68042283F83E20BB68002204
:103EA00083F83D20BB68002283F83C2000E000BF7F
:103EB00000BF1037BD4680BD80B483B000AF002383
:103EC0007B6013E07A6813465B0013449B000C4A46
:103ED00013443B603B6800221A813B6800221A6051
:103EE0003B6800225A607B6801337B607B681F2B34
:103EF000E8D900BF0C37BD465DF8047B704700BFB2
:103F00002465002080B582B000AF78607B6893F8AC
:103F10003F30184600F03AFF7B6893F83F20074B8C
:103F20001B789A4203D1786800F04CF802E0786878
:103F300000F006F800BF0837BD4680BDB46600201B
:103F400080B485B000AF78607B6893F83F301A4644
:103F500013465B0013449B00194A1344FB60FB6843
:103F60001B68002B0FD1FB6801221A817B6800229D
:103F70001A617B6800225A61FB687A681A60FB68E4
:103F80007A685A6015E0FB681B8901339AB2FB68B6
:103F90001A81FB681A687B681A617B6800225A6183
:103FA000FB681B68BB60BB687A685A61FB687A680B
:103FB0001A6000BF1437BD465DF8047B704700BF30
:103FC0002465002080B485B000AF78607B6893F8EA
:103FD0003F301A4613465B0013449B00184A1344B3
:103FE000FB60FB681B68002B0FD1FB6801221A8164
:103FF0007B6800221A617B6800225A61FB687A683C
:104000001A60FB687A685A6014E0FB681B89013308
:104010009AB2FB681A817B6800221A61FB685B68B0
:10402000BB607B68BA685A61BB687A681A61FB68D2
:104030007A685A6000BF1437BD465DF8047B70474C
:104040002465002080B586B000AF78607B6893F867
:104050003F301A4613465B0013449B00244A134426
:104060007B617B685B693B617B681B69FB603B69CB
:10407000002B1FD1FB68002B0FD17B6900221A8116
:104080007B6900221A607B6900225A607B6893F882
:104090003F30184600F09EFE1FE07B691B89013B04
:1040A0009AB27B691A81FB6800225A617B69FA68BF
:1040B0001A6012E07B691B89013B9AB27B691A8105
:1040C0003B69FA681A61FB68002B03D17B693A6986
:1040D0005A6002E0FB683A695A617B6800225A61C3
:1040E0007B6800221A6100BF1837BD4680BD00BF43
:1040F0002465002080B582B000AF786039603B68ED
:10410000002B09D03A687968094802F07BFE7B6889
:10411000032283F83E2003E07B68022283F83E20DE
:104120007868FFF78FFF00BF0837BD4680BD00BF2E
:10413000D86A002080B485B000AF454BFB60454B8A
:10414000BB60454BFB60454BFB60454BBB60454B43
:10415000FB60454B7B60454BFB60454BFB60454B33
:10416000FB60454BFB60454B7B60454B7B60454BA3
:104170007B60454BFB60454B7B60454BFB60454B93
:104180007B60454B7B60454B7B60454B7B60454B83
:10419000FB60454BFB60454BFB60454B7B60454BF3
:1041A000FB60454B7B60454B7B60454B7B60454BE3
:1041B0007B60454B7B60454B7B60454BFB60454BD3
:1041C000FB60454BFB60454BFB60454B7B60454BC3
:1041D0007B60454B7B60454BFB60454BFB60454B33
:1041E000FB60454B7B60454B7B60454B7B60454BA3
:1041F000BB60454B7B60454BFB60454BFB60454BD3
:10420000FB60454BFB60454BFB60454BFB60454B02
:10421000FB60454B7B60454BFB60454BFB60454B72
:104220007B60454B7B60454BFB60454BFB60454BE2
:104230007B60454BFB60454BFB60454B7B60454BD2
:104240007B6000BF1437BD465DF8047B704700BF3C
:10425000141B0208781C0208151B0208161B020812
:10426000181B02081C1B0208201B02081D1B020849
:10427000481B0208491B02084A1B02084C1B020883
:104280004E1B0208501B0208701B0208721B02081A
:10429000741B0208761B0208781B02087A1B0208AE
:1042A0007C1B0208AC1B0208AD1B0208AE1B0208F7
:1042B000B01B0208B21B0208B41B0208B61B02089E
:1042C000B81B0208BA1B0208BC1B0208C01B02086C
:1042D000F01B0208F11B0208F21B0208F31B020884
:1042E000F41B0208F61B0208F81B0208201C020837
:1042F000211C0208221C0208231C0208241C02089C
:10430000261C0208281C02082C1C02082D1C02086E
:104310002E1C02082F1C0208301C0208311C020847
:10432000321C0208331C0208341C0208361C020826
:10433000371C0208381C02083A1C02083C1C020800
:104340003D1C0208401C0208701C0208711C020877
:10435000721C0208741C020880B483B000AF78603D
:10436000074B00221A60074B00221A807B6800224C
:104370001A8000BF0C37BD465DF8047B704700BF54
:1043800074690020DA69002080B487B000AF7860DB
:104390002E4B1B68002B04D17B6845F21E721A80DD
:1043A0004EE02B4B1B88002B04D17B6845F21D721D
:1043B0001A8045E0254B1B687B61244B1B683B61E1
:1043C0003B6910333B61224B1B88013BBB810023BF
:1043D000FB8114E07B693A691A607B6900225A60AC
:1043E0007B6900221A817B690022DA607B691033C5
:1043F0007B613B6910333B61FB890133FB81FA89A7
:10440000BB899A42E6D37B6900221A607B6900224D
:104410005A607B6900221A817B690022DA600B4BAB
:104420001B680C4A13600A4B1A880A4B9A80094B86
:104430000022DA80074B00221A817B6800221A8052
:104440001C37BD465DF8047B704700BFD01A0208D8
:10445000CC1A02088C68002080B485B000AF786068
:104460007B685B89FB817B685B89002B26D07B683E
:104470001B68BB60154B1A68BB681A607B685B6879
:10448000124A1360114BDA887B685B89D31A9AB29F
:104490000E4BDA800D4B9A887B685B8913449AB285
:1044A0000A4B9A807B6800225A817B6800229A819D
:1044B0007B6800221A607B6800225A60FB891846DC
:1044C0001437BD465DF8047B704700BF8C68002040
:1044D00080B483B000AF78600B467B807B687A88BD
:1044E0001A817B6800225A817B6800229A817B684E
:1044F00000221A607B6800225A6000BF0C37BD465C
:104500005DF8047B7047000080B487B000AFF860AE
:10451000B9607A603B60FB685B89002B0ED1BB6899
:1045200000221A807B68002B02D07B6800221A6070
:104530003B6846F292521A8000233CE0FB685B68BD
:104540007B617B695B683B617B691A89BB681A8008
:104550007B68002B03D07B69DA687B681A607B6913
:104560001A68FB685A60FB685B68002B06D1FB6821
:1045700000221A60FB6800225A8105E0FB685B8913
:10458000013B9AB2FB685A810E4B1A687B691A602C
:104590000C4A7B6913600B4B9B8801339AB2094B21
:1045A0009A80084BDB88013B9AB2064BDA803B6865
:1045B00000221A803B6918461C37BD465DF8047B13
:1045C000704700BF8C68002080B487B000AFF860EF
:1045D000B96011461A460B46FB801346BB80FB6848
:1045E0005A89FB681B899A4204D37B6A46F293522C
:1045F0001A806BE0384B9B88002B04D17B6A45F214
:104600001D721A8062E0344B1B687B617B691B68FA
:10461000314A1360304B9B88013B9AB22E4B9A80F3
:104620002D4BDB8801339AB22B4BDA802A4B1A8947
:10463000294BDB889A4203D2274BDA88264B1A8112
:10464000FB685B89002B0CD1FB687A691A60FB68F8
:104650007A695A60FB6801225A817B6900221A60DC
:104660001EE0BB8803F01003002B0CD1FB681B6815
:104670003B613B697A691A60FB687A691A607B69F9
:1046800000221A6006E0FB685A687B691A60FB68C2
:104690007A695A60FB685B8901339AB2FB685A8178
:1046A000FB689A89FB685B899A4203D2FB685A8946
:1046B000FB689A817B69BA685A607B69FA881A81BB
:1046C0007B693A6ADA607B6A00221A801C37BD4631
:1046D0005DF8047B704700BF8C68002080B586B011
:1046E00000AFF860B9607A6000237B61204B1B78D3
:1046F000002B04D07B6842F6E1621A8035E0FB684B
:10470000002B04D17B6845F6C3521A802DE0FBF7DD
:1047100035FE786103F0A8FCFB68164A1A60FB6856
:10472000BA685A60FB6800221A62FB6800225A626B
:10473000FB68002283F82820FB680022DA62FB680D
:1047400008331846FFF769FAF86800F029FA0A4BAF
:104750001B8801339AB2084B1A8003F0A5FC7869D4
:10476000FBF710FE7B6800221A801837BD4680BD1B
:10477000B46700204D555458DC69002080B586B0E0
:1047800000AFF860B9603B601346FB8000237B619B
:104790008C4B1B78002B04D03B6A46F2AE121A8079
:1047A0000DE1FB68002B04D13B6A45F6C3521A8029
:1047B00005E1FB88002B07D0B3F5004F04D03B6A1E
:1047C00045F625621A80FAE000BFFB681B687E4A46
:1047D000934204D03B6A45F6C4521A80EFE0FBF7DF
:1047E000CDFD786103F040FCFB6893F82830002B86
:1047F0001DD1764B1A68FB685A62FB68012283F868
:1048000028203B68002B03D0FB68DA6A3B681A60FB
:104810006E4B1B68F968184600F0EAF903F044FC97
:104820007869FBF7AFFD3B6A00221A80C7E0FB689E
:104830005A6A664B1B689A4227D1FB6893F8283066
:10484000FF2B09D103F030FC7869FBF79BFD3B6A35
:1048500045F284721A80B2E0FB6893F82830013385
:10486000DAB2FB6883F828203B68002B03D0FB6892
:10487000DA6A3B681A6003F017FC7869FBF782FD7F
:104880003B6A45F282721A8099E0B7F90630002B34
:104890000FDA03F009FC7869FBF774FD3B68002B25
:1048A00002D03B6800221A603B6A46F2B0121A80BE
:1048B00085E0474B1B78002B0FD003F0F5FB7869A0
:1048C000FBF760FD3B68002B02D03B6800221A60BA
:1048D0003B6A46F663521A8071E0FB685B6A3B6193
:1048E0003B6993F83F20394B1B6893F83F309A425D
:1048F00007D9364B1B6893F83F301946386902F0E8
:1049000037F9BA680421F868FFF7D0F803F0CCFB58
:104910007869FBF737FDFEF72FFFFBF72FFD786176
:1049200003F0A2FB294B1B6893F83D30032B3CD8C6
:1049300001A252F823F000BF49490008614900086C
:10494000914900087B4900083B68002B04D01F4BAD
:104950001B681A6D3B681A603B6A00221A8029E0C6
:104960003B68002B04D0194B1B681A6D3B681A601A
:104970003B6A46F2A9121A801CE03B68002B02D069
:104980003B6800221A603B6A47F2D9221A8011E084
:104990003B68002B04D00D4B1B681A6D3B681A60F6
:1049A0003B6A45F6C2521A8004E03B6A46F62E6224
:1049B0001A8000BF03F078FB7869FBF7E3FC183737
:1049C000BD4680BDB46700204D5554589067002007
:1049D0001065002080B58CB002AFF8600B467A609D
:1049E0007B8100237B626A4B1B78002B04D07B68A1
:1049F00046F20E221A80C7E0FB68002B04D17B68C8
:104A000045F6C3521A80BFE07B89002B07D0B3F56F
:104A1000004F04D07B6845F625621A80B4E000BFE1
:104A2000FB681B685B4A934204D07B6845F6C4521E
:104A30001A80A9E0FBF7A2FC786203F015FBFB6883
:104A40005A6A554B1B689A4209D003F02DFB786ACD
:104A5000FBF798FC7B6845F281721A8094E0FEF7C0
:104A600009FD3862FB683A6ADA62FB6893F828301D
:104A7000013BDAB2FB6883F82820FB6893F8283002
:104A8000002B09D003F010FB786AFBF77BFC7B68F6
:104A900045F283721A8077E03F4B1B68F96818462D
:104AA00000F0B8F8FB680833FB61FB691B68002B5A
:104AB0000FD1FB6800225A62FB68002283F828208D
:104AC00003F0F2FA786AFBF75DFC7B6800221A803B
:104AD0005AE0314B1B6893F83F202F4B1B6893F82B
:104AE00040309A422CD02C4B1B68184600F0AFF88F
:104AF0000346FB76284B1B6893F84020FB7E9342CD
:104B000028BF1346FB76244B1B6893F83F30FA7E90
:104B10009A4215D9204B1B681846FFF793FA1E4B93
:104B20001B68FA7E83F83F20FB7E184600F02EF9C2
:104B3000194B1B681846FFF745FA184AFB7E13709D
:104B4000FB691B687B61FB687A695A62FB6801221A
:104B500083F82820F968786900F04AF83B6A0093E6
:104B6000002300227969F868FFF72CF903F09CFA1A
:104B7000786AFBF707FCB7F90A30002B01DBFEF778
:104B8000FBFD7B6800221A802837BD4680BD00BF30
:104B9000B46700204D55545890670020B46600203B
:104BA00080B483B000AF78607B680F4ADA617B68BD
:104BB00000225A610D4B1B68002B03D17B68002239
:104BC0009A6107E0094B1A687B689A61074B1B687A
:104BD0007A685A61054A7B68136000BF0C37BD468E
:104BE0005DF8047B704700BFA80F0208C86A002068
:104BF00080B483B000AF786039607B685A6C3B68E2
:104C00001A627B683A685A6400BF0C37BD465DF88B
:104C1000047B704780B485B000AF786039607B68F2
:104C20004433FB6003E0FB681B682033FB60FB68D8
:104C30001A683B689A42F6D1FB681B681A6AFB68DF
:104C40001A6000BF1437BD465DF8047B704780B41E
:104C500087B000AF78601F23FB747B6844337B61AF
:104C600014E07B691B689B68FB60FB68002B09D024
:104C7000FB6893F83F30FB72FA7AFB7C9A4201D2D0
:104C8000FB7AFB747B691B6820337B617B691B6843
:104C9000002BE6D1FB7C18461C37BD465DF8047B33
:104CA000704780B58AB002AF78607B685B6CFB614F
:104CB00033E0FB691B6ABB61FEF7DCFB7861FB69D3
:104CC0007A69DA62F9697868FFF7A4FFFB6908334B
:104CD0003B613B691B68002B07D1FB69002283F80D
:104CE0002820FB6900225A6215E03B691B68FB60C3
:104CF000FB697A685A62FB69012283F82820F96906
:104D0000F868FFF775FF7B69009300230022F968BC
:104D1000F869FFF757F8BB69FB61FB69002BC8D145
:104D200000BF2037BD4680BD80B483B000AF0023F4
:104D30007B6007E0084A7B68002142F823107B680B
:104D400001337B607B68002BF4D000BF0C37BD467D
:104D50005DF8047B704700BF0C65002080B582B011
:104D600000AF0023FB71084B3B603B681B68184693
:104D7000FBF70FFB0346DAB2FB791344FB71FB79B7
:104D800018460837BD4680BD0C65002080B487B04A
:104D900000AF0346FB710023FB75FB793B610123E8
:104DA000FB603B69C3F11F03FA6802FA03F3FB607F
:104DB000FB7DFA7D064951F82210FA680A4304493E
:104DC00041F8232000BF1C37BD465DF8047B7047C7
:104DD0000C65002080B487B000AF0346FB71002350
:104DE000FB75FB793B610123FB603B69C3F11F034A
:104DF000FA6802FA03F3FB60FB7DFA7D074951F87C
:104E00002210FA68D2430A40044941F8232000BF27
:104E10001C37BD465DF8047B704700BF0C65002061
:104E200080B586B000AFF860B9603B601346FB8088
:104E300000237B61214B1B78002B04D03B6842F69A
:104E4000E1621A8037E0FB68002B04D13B6845F62D
:104E5000C3521A802FE0FB88002B04D13B6846F236
:104E600094521A8027E0FBF789FA786103F0FCF886
:104E7000FB68134A1A60FB68BA685A60FB68203303
:104E8000FA8811461846FFF723FBFB6808331846DB
:104E9000FEF7C3FEF86800F0B7F90A4B1B88013330
:104EA0009AB2084B1A8003F0FFF87869FBF76AFAA8
:104EB0003B6800221A801837BD4680BDB4670020C9
:104EC000515545559467002080B586B000AFF86015
:104ED000B9603B601346FB8000233B61754B1B7838
:104EE000002B05D07B6A46F2AE121A800023DDE06B
:104EF000FB68002B05D17B6A45F6C3521A8000235C
:104F0000D4E03B68002B05D17B6A46F2D5221A809B
:104F10000023CBE0FB88002B08D0B3F5004F05D071
:104F20007B6A45F625621A800023BFE000BFFB685C
:104F30001B68614A934205D07B6A45F6C4521A80C9
:104F40000023B3E03B6A002B02D03B6A00221A60C8
:104F5000FBF714FA386103F087F8FB6803F12000CF
:104F60007B6A3A6A3968FFF7CFFA78617B6A1B88F7
:104F7000002B06D103F098F83869FBF703FA7B6938
:104F800094E0B7F90630002B0ADA03F08DF838699F
:104F9000FBF7F8F97B6A46F2B0121A80002385E02D
:104FA000464B1B78002B0AD003F07EF83869FBF7DC
:104FB000E9F97B6A46F663521A80002376E0BA6804
:104FC0000521F868FEF772FD03F06EF83869FBF70B
:104FD000D9F9FEF7D1FBFBF7D1F9386103F044F8BA
:104FE000374B1B6893F83D30032B4FD801A252F882
:104FF00023F000BF05500008315000086950000838
:10500000555000082E4B1B681B6E7B612C4B1B6898
:10501000B3F864203B681A803B6A002B04D0284B0D
:105020001B681A6D3B6A1A607B6A00221A8037E09F
:1050300000237B613B6800221A803B6A002B04D06E
:105040001F4B1B681A6D3B6A1A607B6A46F2A912F5
:105050001A8025E000237B613B6800221A807B6A6E
:1050600047F2D9221A801BE000237B613B680022B3
:105070001A803B6A002B04D0114B1B681A6D3B6AE7
:105080001A607B6A45F6C2521A8009E000237B61F0
:105090003B6800221A807B6A46F62E621A8000BFA7
:1050A00003F002F83869FBF76DF97B691846183789
:1050B000BD4680BDB46700205155455510650020A0
:1050C0009067002080B58CB002AFF860B9601146DF
:1050D0001A460B46FB801346BB800023FB61FB682E
:1050E000002B04D13B6B45F6C3521A8087E0BB8886
:1050F000B3F5047F22D0B3F5047F07DC102B1DD05D
:10510000B3F5007F1AD0002B18D012E048F210023D
:10511000934213D048F21002934203DCB3F5004FE0
:105120000CD006E0B3F5024F08D048F210229342AB
:1051300004D03B6B45F625621A8060E000BFFB6837
:105140001B68304A934204D03B6B45F6C4521A8028
:1051500055E0FEF78FF9B861FBF710F9F86102F03E
:1051600083FFFB6808337B617B691B68002B1CD1C4
:10517000BB8803F01003002B02D10023FB8401E065
:105180001023FB84FB6803F12000F98CFA883B6B49
:105190000193BB6900930B46B968FFF715FA02F05B
:1051A00083FFF869FBF7EEF829E07B691B683B6237
:1051B00012E03B6A1B6B3B61FA88BB6900931346A4
:1051C000BA68396AF868FEF7FDFDBB8803F400731E
:1051D000002B05D03B693B623B6A002BE9D100E024
:1051E00000BF02F061FFF869FBF7CCF8B7F90430B3
:1051F000002B01DBFEF7C0FA3B6B00221A80283738
:10520000BD4680BD5155455580B483B000AF786030
:105210007B680F4ADA617B6800225A610D4B1B687C
:10522000002B03D17B6800229A6107E0094B1A68C2
:105230007B689A61074B1B687A685A61054A7B68EC
:10524000136000BF0C37BD465DF8047B704700BF9C
:10525000B00F02086C69002080B586B000AFF8601E
:10526000B9607A603B6000237B611D4B1B78002B8B
:1052700004D03B6842F6E1621A802EE0FB68002B06
:1052800004D13B6845F6C3521A8026E0FBF776F856
:10529000786102F0E9FEFB68124A1A60FB687A68DE
:1052A0001A62FB6800225A62FB68BA685A60FB689F
:1052B00008331846FEF7B1FCF86800F0A7F90A4B6E
:1052C0001B8801339AB2084B1A8002F0EDFE786910
:1052D000FBF758F83B6800221A801837BD4680BD9E
:1052E000B467002053454D417069002080B586B0F9
:1052F00000AFF860B9603B601346FB8000237B6120
:10530000724B1B78002B05D03B6A46F2AE121A8016
:105310000023D6E0FB68002B05D13B6A45F6C3525B
:105320001A800023CDE0FB88002B08D0B3F5004F96
:1053300005D03B6A45F625621A800023C1E000BF14
:10534000FB681B68624A934205D03B6A45F6C4522B
:105350001A800023B5E0FBF711F8786102F084FEB3
:10536000FB681B6A002B18D0FB681B6A5A1EFB687F
:105370001A623B68002B03D0FB685A6A3B681A60CC
:10538000FB681B6A3B6102F08FFE7869FAF7FAFF4F
:105390003B6A00221A803B6993E0B7F90630002B84
:1053A00013DA3B68002B02D03B6800221A60FB68CE
:1053B0001B6A3B6102F078FE7869FAF7E3FF3B6A0B
:1053C00046F2B0121A803B697BE0424B1B78002BFF
:1053D00010D03B68002B02D03B6800221A6002F01C
:1053E00063FE7869FAF7CEFF3B6A46F663521A808D
:1053F000002366E0BA680621F868FEF757FB02F062
:1054000053FE7869FAF7BEFFFEF7B6F9FAF7B6FF72
:10541000786102F029FE304B1B6893F83D30032B76
:105420003BD801A252F823F0395400085154000827
:10543000815400086B5400083B68002B04D0264BB5
:105440001B681A6D3B681A603B6A00221A802FE0C5
:105450003B68002B04D0204B1B681A6D3B681A6018
:105460003B6A46F2A9121A8022E03B68002B02D068
:105470003B6800221A603B6A47F2D9221A8017E083
:105480003B68002B04D0144B1B681A6D3B681A60F4
:105490003B6A45F6C2521A800AE03B6A46F62E6223
:1054A0001A8002F001FE7869FAF76CFF002308E029
:1054B000FB681B6A3B6102F0F7FD7869FAF762FF4F
:1054C0003B6918461837BD4680BD00BFB467002051
:1054D00053454D41106500209067002080B58CB089
:1054E00002AFF8600B467A607B8100233B62FB6869
:1054F000002B05D17B6845F6C3521A8000237FE05C
:105500007B89B3F5007F11D0B3F5007F02DC002B5F
:105510000CD005E0B3F5004F08D0B3F5024F05D02D
:105520007B6845F625621A80002369E000BFFB68AE
:105530001B68354A934205D07B6845F6C4521A80F1
:1055400000235DE0FDF796FFF861FAF717FF386278
:1055500002F08AFDFB680833BB61BB691B68002B46
:1055600024D1FB681B6AB3F1FF3F0AD102F09CFD16
:10557000386AFAF707FF7B6846F6C5521A8000239F
:105580003EE0FB681B6A5A1CFB681A62FB681B6AD8
:105590007B61FB68FA695A6202F086FD386AFAF7A5
:1055A000F1FE7B6800221A807B6929E0BB691B68D9
:1055B0007B6211E07B6A1B6B3B61FB6900930023FC
:1055C0000022796AF868FEF7FDFB7B8903F400731B
:1055D000002B05D03B697B627B6A002BEAD100E09F
:1055E00000BF02F061FD386AFAF7CCFEB7F90A3065
:1055F000002B01DBFEF7C0F87B6800221A80002335
:1056000018462837BD4680BD53454D4180B483B010
:1056100000AF78607B680F4ADA617B6800225A61CC
:105620000D4B1B68002B03D17B6800229A6107E0B9
:10563000094B1A687B689A61074B1B687A685A6144
:10564000054A7B68136000BF0C37BD465DF8047BDC
:10565000704700BFBC0F0208AC66002080B586B062
:1056600000AF78600023FB60FAF788FEF86002F074
:10567000FBFC474B00221A80464B00221A60464B27
:1056800000221A60454B00221A60454B00221A6026
:1056900002F040FD434B00221A8102F005FDF8683C
:1056A000FAF770FEFAF76AFEF86002F0DDFC3E4B96
:1056B0001B687B6102F0F8FCF868FAF763FE38E0DB
:1056C000FAF75CFEF86002F0CFFC7B690022C3F8B9
:1056D000C4207B690022DA677B690022C3F8B82006
:1056E0007B690022C3F8A0207B690022A3F89A20DE
:1056F0007B690022A3F89C207B690022C3F8AC20C0
:105700007B690022C3F8B020FDF7B4FE02467B6936
:10571000C3F8A8207B696833BB60BB6800229A810C
:105720007B69D3F8CC307B6102F0BEFCF868FAF7F5
:1057300029FE7B69002BC3D1FAF720FEF86002F046
:1057400093FC1A4B1B683B6102F0AEFCF868FAF759
:1057500019FE12E0FAF712FEF86002F085FC3B69D0
:105760002033BB60BB6800229A813B699B693B6127
:1057700002F09AFCF868FAF705FE3B69002BE9D1C4
:105780007B6800221A8000BF1837BD4680BD00BF6D
:105790009667002018650020BC6A0020A0670020E2
:1057A000C06900208C6800209C6700206C69002084
:1057B00080B586B000AF786000233B6107F10E032F
:1057C0001946364800F08EFFFB89002B03D0FA897A
:1057D0007B681A805EE007F10E031A460021022062
:1057E00001F0D6FDFB89002B03D0FA897B681A8073
:1057F00050E0FAF7C3FD386102F036FC284B002276
:105800001A6002F051FC3869FAF7BCFD00237B6195
:10581000244B1A68244B1B689A4206D9214B1A68FC
:10582000214B1B68B2FBF3F37B617B69002B06D134
:105830001C4B1B681D4AA2FB0323DB087B6107F19D
:105840000E031A460021786901F0A2FD07F10E034C
:105850001946124800F04EFCFB89002B03D0FA8950
:105860007B681A8016E0FAF789FD386102F0FCFBCC
:105870000F4B00221A600A4B1B680E4A13600E4B36
:1058800001221A7002F010FC3869FAF77BFD7B6880
:1058900000221A801837BD4680BD00BFB8670020BF
:1058A0001C650020EC1A0208D81A0208CDCCCCCC1A
:1058B00018650020B0690020A966002080B590B06E
:1058C00000AF78600023BB6108E0904B1B685B0071
:1058D00007F10A020021184601F05AFD8C4B1B7893
:1058E000012BF2D107F10A031846FFF7B7FE002398
:1058F000FB61884B1A68854B1B689A4206D9854B19
:105900001A68824B1B68B2FBF3F3FB61FB69002B47
:1059100006D1804B1B68804AA2FB0323DB08FB6196
:10592000FDF7A8FD786102F085FB02467B4B1A600B
:10593000FAF724FDB86102F097FB794B1B68794AAE
:105940001360774B00221A6002F0AEFBB869FAF7D9
:1059500019FD754B1A68734B1B689A424FD9724BED
:105960001B68724A934205D842F210737B6201238E
:105970003B6224E06C4B1B686D4A934205D84FF4A0
:105980007A737B620A233B6219E0674B1B68694AA2
:10599000934204D864237B6264233B620FE0624B32
:1059A0001B68654A934205D80A237B624FF47A73D9
:1059B0003B6204E001237B6242F210733B625A4B6C
:1059C0001A683B6AB2FBF3F33B61564B1B687A6A79
:1059D00002FB03F23B69B2FBF3F39AB242F210739B
:1059E0009B1A9AB2554B1A80554B1A88534B1B88F9
:1059F0009A4207D2514B1A88514B1A8002E04F4B02
:105A000000221A8001F022FF0023BB63FAF7B6FCE4
:105A1000B86102F029FB4B4B1B68BB6202F044FBF0
:105A2000B869FAF7AFFC27E0FAF7A8FCB86102F012
:105A30001BFBBB6AD3F8AC20BB6AC3F8B020BB6ABF
:105A40000022C3F8AC2002F02FFBB869FAF79AFCE9
:105A5000BB6AD3F8B030BA6B1344BB63FAF78EFC61
:105A6000B86102F001FBBB6AD3F8CC30BB6202F034
:105A70001BFBB869FAF786FCBB6A002BD4D1BB6B61
:105A8000002B31D0BB6B294A934205D842F21073E8
:105A90003B6301237B6321E0BB6B254A934205D81E
:105AA0004FF47A733B630A237B6317E0BB6B214A95
:105AB000934204D864233B6364237B630EE0BB6B97
:105AC0001D4A934205D80A233B634FF47A737B63E4
:105AD00004E001233B6342F210737B63BA6B7B6B80
